{
  "_format": "hh-sol-artifact-1",
  "contractName": "ERC20Template3",
  "sourceName": "contracts/templates/ERC20Template3.sol",
  "abi": [
    {
      "anonymous": false,
      "inputs": [
        {
          "indexed": true,
          "internalType": "address",
          "name": "user",
          "type": "address"
        },
        {
          "indexed": true,
          "internalType": "address",
          "name": "signer",
          "type": "address"
        },
        {
          "indexed": false,
          "internalType": "uint256",
          "name": "timestamp",
          "type": "uint256"
        },
        {
          "indexed": false,
          "internalType": "uint256",
          "name": "blockNumber",
          "type": "uint256"
        }
      ],
      "name": "AddedMinter",
      "type": "event"
    },
    {
      "anonymous": false,
      "inputs": [
        {
          "indexed": true,
          "internalType": "address",
          "name": "user",
          "type": "address"
        },
        {
          "indexed": true,
          "internalType": "address",
          "name": "signer",
          "type": "address"
        },
        {
          "indexed": false,
          "internalType": "uint256",
          "name": "timestamp",
          "type": "uint256"
        },
        {
          "indexed": false,
          "internalType": "uint256",
          "name": "blockNumber",
          "type": "uint256"
        }
      ],
      "name": "AddedPaymentManager",
      "type": "event"
    },
    {
      "anonymous": false,
      "inputs": [
        {
          "indexed": true,
          "internalType": "address",
          "name": "owner",
          "type": "address"
        },
        {
          "indexed": true,
          "internalType": "address",
          "name": "spender",
          "type": "address"
        },
        {
          "indexed": false,
          "internalType": "uint256",
          "name": "value",
          "type": "uint256"
        }
      ],
      "name": "Approval",
      "type": "event"
    },
    {
      "anonymous": false,
      "inputs": [
        {
          "indexed": true,
          "internalType": "address",
          "name": "signer",
          "type": "address"
        },
        {
          "indexed": false,
          "internalType": "uint256",
          "name": "timestamp",
          "type": "uint256"
        },
        {
          "indexed": false,
          "internalType": "uint256",
          "name": "blockNumber",
          "type": "uint256"
        }
      ],
      "name": "CleanedPermissions",
      "type": "event"
    },
    {
      "anonymous": false,
      "inputs": [
        {
          "indexed": true,
          "internalType": "address",
          "name": "consumeMarketFeeAddress",
          "type": "address"
        },
        {
          "indexed": true,
          "internalType": "address",
          "name": "consumeMarketFeeToken",
          "type": "address"
        },
        {
          "indexed": false,
          "internalType": "uint256",
          "name": "consumeMarketFeeAmount",
          "type": "uint256"
        }
      ],
      "name": "ConsumeMarketFee",
      "type": "event"
    },
    {
      "anonymous": false,
      "inputs": [
        {
          "indexed": false,
          "internalType": "address",
          "name": "currentMinter",
          "type": "address"
        },
        {
          "indexed": false,
          "internalType": "address",
          "name": "newMinter",
          "type": "address"
        }
      ],
      "name": "MinterApproved",
      "type": "event"
    },
    {
      "anonymous": false,
      "inputs": [
        {
          "indexed": false,
          "internalType": "address",
          "name": "currentMinter",
          "type": "address"
        },
        {
          "indexed": false,
          "internalType": "address",
          "name": "newMinter",
          "type": "address"
        }
      ],
      "name": "MinterProposed",
      "type": "event"
    },
    {
      "anonymous": false,
      "inputs": [
        {
          "indexed": false,
          "internalType": "address",
          "name": "dispenserContract",
          "type": "address"
        }
      ],
      "name": "NewDispenser",
      "type": "event"
    },
    {
      "anonymous": false,
      "inputs": [
        {
          "indexed": false,
          "internalType": "bytes32",
          "name": "exchangeId",
          "type": "bytes32"
        },
        {
          "indexed": true,
          "internalType": "address",
          "name": "owner",
          "type": "address"
        },
        {
          "indexed": false,
          "internalType": "address",
          "name": "exchangeContract",
          "type": "address"
        },
        {
          "indexed": true,
          "internalType": "address",
          "name": "baseToken",
          "type": "address"
        }
      ],
      "name": "NewFixedRate",
      "type": "event"
    },
    {
      "anonymous": false,
      "inputs": [
        {
          "indexed": true,
          "internalType": "address",
          "name": "user",
          "type": "address"
        },
        {
          "indexed": false,
          "internalType": "uint256",
          "name": "expires",
          "type": "uint256"
        },
        {
          "indexed": false,
          "internalType": "uint256",
          "name": "blocknum",
          "type": "uint256"
        }
      ],
      "name": "NewSubscription",
      "type": "event"
    },
    {
      "anonymous": false,
      "inputs": [
        {
          "indexed": true,
          "internalType": "address",
          "name": "consumer",
          "type": "address"
        },
        {
          "indexed": false,
          "internalType": "address",
          "name": "payer",
          "type": "address"
        },
        {
          "indexed": false,
          "internalType": "uint256",
          "name": "amount",
          "type": "uint256"
        },
        {
          "indexed": false,
          "internalType": "uint256",
          "name": "serviceIndex",
          "type": "uint256"
        },
        {
          "indexed": false,
          "internalType": "uint256",
          "name": "timestamp",
          "type": "uint256"
        },
        {
          "indexed": true,
          "internalType": "address",
          "name": "publishMarketAddress",
          "type": "address"
        },
        {
          "indexed": false,
          "internalType": "uint256",
          "name": "blockNumber",
          "type": "uint256"
        }
      ],
      "name": "OrderStarted",
      "type": "event"
    },
    {
      "anonymous": false,
      "inputs": [
        {
          "indexed": true,
          "internalType": "address",
          "name": "predictoor",
          "type": "address"
        },
        {
          "indexed": true,
          "internalType": "uint256",
          "name": "slot",
          "type": "uint256"
        },
        {
          "indexed": false,
          "internalType": "uint256",
          "name": "stake",
          "type": "uint256"
        },
        {
          "indexed": false,
          "internalType": "uint256",
          "name": "payout",
          "type": "uint256"
        },
        {
          "indexed": false,
          "internalType": "bool",
          "name": "predictedValue",
          "type": "bool"
        },
        {
          "indexed": false,
          "internalType": "bool",
          "name": "trueValue",
          "type": "bool"
        },
        {
          "indexed": false,
          "internalType": "uint256",
          "name": "aggregatedPredictedValue",
          "type": "uint256"
        },
        {
          "indexed": false,
          "internalType": "enum ERC20Template3.Status",
          "name": "status",
          "type": "uint8"
        }
      ],
      "name": "PredictionPayout",
      "type": "event"
    },
    {
      "anonymous": false,
      "inputs": [
        {
          "indexed": true,
          "internalType": "address",
          "name": "predictoor",
          "type": "address"
        },
        {
          "indexed": true,
          "internalType": "uint256",
          "name": "slot",
          "type": "uint256"
        },
        {
          "indexed": false,
          "internalType": "uint256",
          "name": "stake",
          "type": "uint256"
        }
      ],
      "name": "PredictionSubmitted",
      "type": "event"
    },
    {
      "anonymous": false,
      "inputs": [
        {
          "indexed": true,
          "internalType": "address",
          "name": "PublishMarketFeeAddress",
          "type": "address"
        },
        {
          "indexed": true,
          "internalType": "address",
          "name": "PublishMarketFeeToken",
          "type": "address"
        },
        {
          "indexed": false,
          "internalType": "uint256",
          "name": "PublishMarketFeeAmount",
          "type": "uint256"
        }
      ],
      "name": "PublishMarketFee",
      "type": "event"
    },
    {
      "anonymous": false,
      "inputs": [
        {
          "indexed": false,
          "internalType": "address",
          "name": "caller",
          "type": "address"
        },
        {
          "indexed": false,
          "internalType": "address",
          "name": "PublishMarketFeeAddress",
          "type": "address"
        },
        {
          "indexed": false,
          "internalType": "address",
          "name": "PublishMarketFeeToken",
          "type": "address"
        },
        {
          "indexed": false,
          "internalType": "uint256",
          "name": "PublishMarketFeeAmount",
          "type": "uint256"
        }
      ],
      "name": "PublishMarketFeeChanged",
      "type": "event"
    },
    {
      "anonymous": false,
      "inputs": [
        {
          "indexed": true,
          "internalType": "address",
          "name": "user",
          "type": "address"
        },
        {
          "indexed": true,
          "internalType": "address",
          "name": "signer",
          "type": "address"
        },
        {
          "indexed": false,
          "internalType": "uint256",
          "name": "timestamp",
          "type": "uint256"
        },
        {
          "indexed": false,
          "internalType": "uint256",
          "name": "blockNumber",
          "type": "uint256"
        }
      ],
      "name": "RemovedMinter",
      "type": "event"
    },
    {
      "anonymous": false,
      "inputs": [
        {
          "indexed": true,
          "internalType": "address",
          "name": "user",
          "type": "address"
        },
        {
          "indexed": true,
          "internalType": "address",
          "name": "signer",
          "type": "address"
        },
        {
          "indexed": false,
          "internalType": "uint256",
          "name": "timestamp",
          "type": "uint256"
        },
        {
          "indexed": false,
          "internalType": "uint256",
          "name": "blockNumber",
          "type": "uint256"
        }
      ],
      "name": "RemovedPaymentManager",
      "type": "event"
    },
    {
      "anonymous": false,
      "inputs": [
        {
          "indexed": false,
          "internalType": "uint256",
          "name": "totalAmount",
          "type": "uint256"
        },
        {
          "indexed": false,
          "internalType": "uint256",
          "name": "slot",
          "type": "uint256"
        },
        {
          "indexed": false,
          "internalType": "uint256",
          "name": "amountPerEpoch",
          "type": "uint256"
        },
        {
          "indexed": false,
          "internalType": "uint256",
          "name": "numEpochs",
          "type": "uint256"
        },
        {
          "indexed": false,
          "internalType": "uint256",
          "name": "blocksPerEpoch",
          "type": "uint256"
        }
      ],
      "name": "RevenueAdded",
      "type": "event"
    },
    {
      "anonymous": false,
      "inputs": [
        {
          "indexed": false,
          "internalType": "uint256",
          "name": "blocksPerEpoch",
          "type": "uint256"
        },
        {
          "indexed": false,
          "internalType": "uint256",
          "name": "blocksPerSubscription",
          "type": "uint256"
        },
        {
          "indexed": false,
          "internalType": "uint256",
          "name": "trueValueSubmitTimeoutBlock",
          "type": "uint256"
        },
        {
          "indexed": false,
          "internalType": "address",
          "name": "stakeToken",
          "type": "address"
        }
      ],
      "name": "SettingChanged",
      "type": "event"
    },
    {
      "anonymous": false,
      "inputs": [
        {
          "indexed": true,
          "internalType": "address",
          "name": "from",
          "type": "address"
        },
        {
          "indexed": true,
          "internalType": "address",
          "name": "to",
          "type": "address"
        },
        {
          "indexed": false,
          "internalType": "uint256",
          "name": "value",
          "type": "uint256"
        }
      ],
      "name": "Transfer",
      "type": "event"
    },
    {
      "anonymous": false,
      "inputs": [
        {
          "indexed": true,
          "internalType": "uint256",
          "name": "slot",
          "type": "uint256"
        },
        {
          "indexed": false,
          "internalType": "bool",
          "name": "trueValue",
          "type": "bool"
        },
        {
          "indexed": false,
          "internalType": "enum ERC20Template3.Status",
          "name": "status",
          "type": "uint8"
        }
      ],
      "name": "TruevalSubmitted",
      "type": "event"
    },
    {
      "stateMutability": "payable",
      "type": "fallback"
    },
    {
      "inputs": [],
      "name": "BASE",
      "outputs": [
        {
          "internalType": "uint256",
          "name": "",
          "type": "uint256"
        }
      ],
      "stateMutability": "view",
      "type": "function"
    },
    {
      "inputs": [],
      "name": "DOMAIN_SEPARATOR",
      "outputs": [
        {
          "internalType": "bytes32",
          "name": "",
          "type": "bytes32"
        }
      ],
      "stateMutability": "view",
      "type": "function"
    },
    {
      "inputs": [],
      "name": "PERMIT_TYPEHASH",
      "outputs": [
        {
          "internalType": "bytes32",
          "name": "",
          "type": "bytes32"
        }
      ],
      "stateMutability": "view",
      "type": "function"
    },
    {
      "inputs": [
        {
          "internalType": "address",
          "name": "owner",
          "type": "address"
        },
        {
          "internalType": "address",
          "name": "spender",
          "type": "address"
        }
      ],
      "name": "allowance",
      "outputs": [
        {
          "internalType": "uint256",
          "name": "",
          "type": "uint256"
        }
      ],
      "stateMutability": "view",
      "type": "function"
    },
    {
      "inputs": [
        {
          "internalType": "address",
          "name": "spender",
          "type": "address"
        },
        {
          "internalType": "uint256",
          "name": "amount",
          "type": "uint256"
        }
      ],
      "name": "approve",
      "outputs": [
        {
          "internalType": "bool",
          "name": "",
          "type": "bool"
        }
      ],
      "stateMutability": "nonpayable",
      "type": "function"
    },
    {
      "inputs": [
        {
          "internalType": "uint256",
          "name": "",
          "type": "uint256"
        }
      ],
      "name": "authERC20",
      "outputs": [
        {
          "internalType": "address",
          "name": "",
          "type": "address"
        }
      ],
      "stateMutability": "view",
      "type": "function"
    },
    {
      "inputs": [
        {
          "internalType": "address",
          "name": "account",
          "type": "address"
        }
      ],
      "name": "balanceOf",
      "outputs": [
        {
          "internalType": "uint256",
          "name": "",
          "type": "uint256"
        }
      ],
      "stateMutability": "view",
      "type": "function"
    },
    {
      "inputs": [
        {
          "internalType": "uint256",
          "name": "blocknum",
          "type": "uint256"
        }
      ],
      "name": "blocknumIsOnSlot",
      "outputs": [
        {
          "internalType": "bool",
          "name": "",
          "type": "bool"
        }
      ],
      "stateMutability": "view",
      "type": "function"
    },
    {
      "inputs": [],
      "name": "blocksPerEpoch",
      "outputs": [
        {
          "internalType": "uint256",
          "name": "",
          "type": "uint256"
        }
      ],
      "stateMutability": "view",
      "type": "function"
    },
    {
      "inputs": [],
      "name": "blocksPerSubscription",
      "outputs": [
        {
          "internalType": "uint256",
          "name": "",
          "type": "uint256"
        }
      ],
      "stateMutability": "view",
      "type": "function"
    },
    {
      "inputs": [
        {
          "internalType": "uint256",
          "name": "amount",
          "type": "uint256"
        }
      ],
      "name": "burn",
      "outputs": [],
      "stateMutability": "nonpayable",
      "type": "function"
    },
    {
      "inputs": [
        {
          "internalType": "address",
          "name": "account",
          "type": "address"
        },
        {
          "internalType": "uint256",
          "name": "amount",
          "type": "uint256"
        }
      ],
      "name": "burnFrom",
      "outputs": [],
      "stateMutability": "nonpayable",
      "type": "function"
    },
    {
      "inputs": [
        {
          "components": [
            {
              "internalType": "address",
              "name": "consumer",
              "type": "address"
            },
            {
              "internalType": "uint256",
              "name": "serviceIndex",
              "type": "uint256"
            },
            {
              "components": [
                {
                  "internalType": "address",
                  "name": "providerFeeAddress",
                  "type": "address"
                },
                {
                  "internalType": "address",
                  "name": "providerFeeToken",
                  "type": "address"
                },
                {
                  "internalType": "uint256",
                  "name": "providerFeeAmount",
                  "type": "uint256"
                },
                {
                  "internalType": "uint8",
                  "name": "v",
                  "type": "uint8"
                },
                {
                  "internalType": "bytes32",
                  "name": "r",
                  "type": "bytes32"
                },
                {
                  "internalType": "bytes32",
                  "name": "s",
                  "type": "bytes32"
                },
                {
                  "internalType": "uint256",
                  "name": "validUntil",
                  "type": "uint256"
                },
                {
                  "internalType": "bytes",
                  "name": "providerData",
                  "type": "bytes"
                }
              ],
              "internalType": "struct ERC20Template3.providerFee",
              "name": "_providerFee",
              "type": "tuple"
            },
            {
              "components": [
                {
                  "internalType": "address",
                  "name": "consumeMarketFeeAddress",
                  "type": "address"
                },
                {
                  "internalType": "address",
                  "name": "consumeMarketFeeToken",
                  "type": "address"
                },
                {
                  "internalType": "uint256",
                  "name": "consumeMarketFeeAmount",
                  "type": "uint256"
                }
              ],
              "internalType": "struct ERC20Template3.consumeMarketFee",
              "name": "_consumeMarketFee",
              "type": "tuple"
            }
          ],
          "internalType": "struct ERC20Template3.OrderParams",
          "name": "_orderParams",
          "type": "tuple"
        },
        {
          "components": [
            {
              "internalType": "address",
              "name": "exchangeContract",
              "type": "address"
            },
            {
              "internalType": "bytes32",
              "name": "exchangeId",
              "type": "bytes32"
            },
            {
              "internalType": "uint256",
              "name": "maxBaseTokenAmount",
              "type": "uint256"
            },
            {
              "internalType": "uint256",
              "name": "swapMarketFee",
              "type": "uint256"
            },
            {
              "internalType": "address",
              "name": "marketFeeAddress",
              "type": "address"
            }
          ],
          "internalType": "struct ERC20Template3.FreParams",
          "name": "_freParams",
          "type": "tuple"
        }
      ],
      "name": "buyFromFreAndOrder",
      "outputs": [],
      "stateMutability": "nonpayable",
      "type": "function"
    },
    {
      "inputs": [],
      "name": "cap",
      "outputs": [
        {
          "internalType": "uint256",
          "name": "",
          "type": "uint256"
        }
      ],
      "stateMutability": "view",
      "type": "function"
    },
    {
      "inputs": [],
      "name": "cleanFrom721",
      "outputs": [],
      "stateMutability": "nonpayable",
      "type": "function"
    },
    {
      "inputs": [],
      "name": "cleanPermissions",
      "outputs": [],
      "stateMutability": "nonpayable",
      "type": "function"
    },
    {
      "inputs": [
        {
          "internalType": "address",
          "name": "fixedPriceAddress",
          "type": "address"
        },
        {
          "internalType": "address[]",
          "name": "addresses",
          "type": "address[]"
        },
        {
          "internalType": "uint256[]",
          "name": "uints",
          "type": "uint256[]"
        }
      ],
      "name": "createFixedRate",
      "outputs": [
        {
          "internalType": "bytes32",
          "name": "exchangeId",
          "type": "bytes32"
        }
      ],
      "stateMutability": "nonpayable",
      "type": "function"
    },
    {
      "inputs": [],
      "name": "curEpoch",
      "outputs": [
        {
          "internalType": "uint256",
          "name": "",
          "type": "uint256"
        }
      ],
      "stateMutability": "view",
      "type": "function"
    },
    {
      "inputs": [],
      "name": "decimals",
      "outputs": [
        {
          "internalType": "uint8",
          "name": "",
          "type": "uint8"
        }
      ],
      "stateMutability": "pure",
      "type": "function"
    },
    {
      "inputs": [
        {
          "internalType": "address",
          "name": "spender",
          "type": "address"
        },
        {
          "internalType": "uint256",
          "name": "subtractedValue",
          "type": "uint256"
        }
      ],
      "name": "decreaseAllowance",
      "outputs": [
        {
          "internalType": "bool",
          "name": "",
          "type": "bool"
        }
      ],
      "stateMutability": "nonpayable",
      "type": "function"
    },
    {
      "inputs": [
        {
          "internalType": "uint256",
          "name": "blocknum",
          "type": "uint256"
        }
      ],
      "name": "epoch",
      "outputs": [
        {
          "internalType": "uint256",
          "name": "",
          "type": "uint256"
        }
      ],
      "stateMutability": "view",
      "type": "function"
    },
    {
      "inputs": [
        {
          "internalType": "uint256",
          "name": "",
          "type": "uint256"
        }
      ],
      "name": "epochStatus",
      "outputs": [
        {
          "internalType": "enum ERC20Template3.Status",
          "name": "",
          "type": "uint8"
        }
      ],
      "stateMutability": "view",
      "type": "function"
    },
    {
      "inputs": [
        {
          "internalType": "uint256",
          "name": "blocknum",
          "type": "uint256"
        }
      ],
      "name": "getAggPredval",
      "outputs": [
        {
          "internalType": "uint256",
          "name": "",
          "type": "uint256"
        },
        {
          "internalType": "uint256",
          "name": "",
          "type": "uint256"
        }
      ],
      "stateMutability": "view",
      "type": "function"
    },
    {
      "inputs": [],
      "name": "getDispensers",
      "outputs": [
        {
          "internalType": "address[]",
          "name": "",
          "type": "address[]"
        }
      ],
      "stateMutability": "view",
      "type": "function"
    },
    {
      "inputs": [],
      "name": "getERC721Address",
      "outputs": [
        {
          "internalType": "address",
          "name": "",
          "type": "address"
        }
      ],
      "stateMutability": "view",
      "type": "function"
    },
    {
      "inputs": [],
      "name": "getFixedRates",
      "outputs": [
        {
          "components": [
            {
              "internalType": "address",
              "name": "contractAddress",
              "type": "address"
            },
            {
              "internalType": "bytes32",
              "name": "id",
              "type": "bytes32"
            }
          ],
          "internalType": "struct ERC20Template3.fixedRate[]",
          "name": "",
          "type": "tuple[]"
        }
      ],
      "stateMutability": "view",
      "type": "function"
    },
    {
      "inputs": [],
      "name": "getId",
      "outputs": [
        {
          "internalType": "uint8",
          "name": "",
          "type": "uint8"
        }
      ],
      "stateMutability": "pure",
      "type": "function"
    },
    {
      "inputs": [],
      "name": "getPaymentCollector",
      "outputs": [
        {
          "internalType": "address",
          "name": "",
          "type": "address"
        }
      ],
      "stateMutability": "view",
      "type": "function"
    },
    {
      "inputs": [
        {
          "internalType": "address",
          "name": "user",
          "type": "address"
        }
      ],
      "name": "getPermissions",
      "outputs": [
        {
          "components": [
            {
              "internalType": "bool",
              "name": "minter",
              "type": "bool"
            },
            {
              "internalType": "bool",
              "name": "paymentManager",
              "type": "bool"
            }
          ],
          "internalType": "struct ERC20Roles.RolesERC20",
          "name": "",
          "type": "tuple"
        }
      ],
      "stateMutability": "view",
      "type": "function"
    },
    {
      "inputs": [
        {
          "internalType": "uint256",
          "name": "blocknum",
          "type": "uint256"
        },
        {
          "internalType": "address",
          "name": "predictoor",
          "type": "address"
        }
      ],
      "name": "getPrediction",
      "outputs": [
        {
          "components": [
            {
              "internalType": "bool",
              "name": "predictedValue",
              "type": "bool"
            },
            {
              "internalType": "uint256",
              "name": "stake",
              "type": "uint256"
            },
            {
              "internalType": "address",
              "name": "predictoor",
              "type": "address"
            },
            {
              "internalType": "bool",
              "name": "paid",
              "type": "bool"
            }
          ],
          "internalType": "struct ERC20Template3.Prediction",
          "name": "prediction",
          "type": "tuple"
        }
      ],
      "stateMutability": "view",
      "type": "function"
    },
    {
      "inputs": [],
      "name": "getPublishingMarketFee",
      "outputs": [
        {
          "internalType": "address",
          "name": "",
          "type": "address"
        },
        {
          "internalType": "address",
          "name": "",
          "type": "address"
        },
        {
          "internalType": "uint256",
          "name": "",
          "type": "uint256"
        }
      ],
      "stateMutability": "view",
      "type": "function"
    },
    {
      "inputs": [
        {
          "internalType": "uint256",
          "name": "blocknum",
          "type": "uint256"
        }
      ],
      "name": "getSubscriptionRevenueAtBlock",
      "outputs": [
        {
          "internalType": "uint256",
          "name": "",
          "type": "uint256"
        }
      ],
      "stateMutability": "view",
      "type": "function"
    },
    {
      "inputs": [
        {
          "internalType": "address",
          "name": "spender",
          "type": "address"
        },
        {
          "internalType": "uint256",
          "name": "addedValue",
          "type": "uint256"
        }
      ],
      "name": "increaseAllowance",
      "outputs": [
        {
          "internalType": "bool",
          "name": "",
          "type": "bool"
        }
      ],
      "stateMutability": "nonpayable",
      "type": "function"
    },
    {
      "inputs": [
        {
          "internalType": "string[]",
          "name": "strings_",
          "type": "string[]"
        },
        {
          "internalType": "address[]",
          "name": "addresses_",
          "type": "address[]"
        },
        {
          "internalType": "address[]",
          "name": "factoryAddresses_",
          "type": "address[]"
        },
        {
          "internalType": "uint256[]",
          "name": "uints_",
          "type": "uint256[]"
        },
        {
          "internalType": "bytes[]",
          "name": "bytes_",
          "type": "bytes[]"
        }
      ],
      "name": "initialize",
      "outputs": [
        {
          "internalType": "bool",
          "name": "",
          "type": "bool"
        }
      ],
      "stateMutability": "nonpayable",
      "type": "function"
    },
    {
      "inputs": [
        {
          "internalType": "address",
          "name": "user",
          "type": "address"
        }
      ],
      "name": "isERC20Deployer",
      "outputs": [
        {
          "internalType": "bool",
          "name": "",
          "type": "bool"
        }
      ],
      "stateMutability": "view",
      "type": "function"
    },
    {
      "inputs": [],
      "name": "isInitialized",
      "outputs": [
        {
          "internalType": "bool",
          "name": "",
          "type": "bool"
        }
      ],
      "stateMutability": "view",
      "type": "function"
    },
    {
      "inputs": [
        {
          "internalType": "address",
          "name": "account",
          "type": "address"
        }
      ],
      "name": "isMinter",
      "outputs": [
        {
          "internalType": "bool",
          "name": "",
          "type": "bool"
        }
      ],
      "stateMutability": "view",
      "type": "function"
    },
    {
      "inputs": [
        {
          "internalType": "address",
          "name": "user",
          "type": "address"
        }
      ],
      "name": "isValidSubscription",
      "outputs": [
        {
          "internalType": "bool",
          "name": "",
          "type": "bool"
        }
      ],
      "stateMutability": "view",
      "type": "function"
    },
    {
      "inputs": [
        {
          "internalType": "address",
          "name": "account",
          "type": "address"
        },
        {
          "internalType": "uint256",
          "name": "value",
          "type": "uint256"
        }
      ],
      "name": "mint",
      "outputs": [],
      "stateMutability": "nonpayable",
      "type": "function"
    },
    {
      "inputs": [],
      "name": "name",
      "outputs": [
        {
          "internalType": "string",
          "name": "",
          "type": "string"
        }
      ],
      "stateMutability": "view",
      "type": "function"
    },
    {
      "inputs": [
        {
          "internalType": "address",
          "name": "",
          "type": "address"
        }
      ],
      "name": "nonces",
      "outputs": [
        {
          "internalType": "uint256",
          "name": "",
          "type": "uint256"
        }
      ],
      "stateMutability": "view",
      "type": "function"
    },
    {
      "inputs": [],
      "name": "pausePredictions",
      "outputs": [],
      "stateMutability": "nonpayable",
      "type": "function"
    },
    {
      "inputs": [],
      "name": "paused",
      "outputs": [
        {
          "internalType": "bool",
          "name": "",
          "type": "bool"
        }
      ],
      "stateMutability": "view",
      "type": "function"
    },
    {
      "inputs": [
        {
          "internalType": "uint256",
          "name": "blocknum",
          "type": "uint256"
        },
        {
          "internalType": "address",
          "name": "predictoor_addr",
          "type": "address"
        }
      ],
      "name": "payout",
      "outputs": [],
      "stateMutability": "nonpayable",
      "type": "function"
    },
    {
      "inputs": [
        {
          "internalType": "uint256[]",
          "name": "blocknums",
          "type": "uint256[]"
        },
        {
          "internalType": "address",
          "name": "predictoor_addr",
          "type": "address"
        }
      ],
      "name": "payoutMultiple",
      "outputs": [],
      "stateMutability": "nonpayable",
      "type": "function"
    },
    {
      "inputs": [
        {
          "internalType": "address",
          "name": "",
          "type": "address"
        }
      ],
      "name": "permissions",
      "outputs": [
        {
          "internalType": "bool",
          "name": "minter",
          "type": "bool"
        },
        {
          "internalType": "bool",
          "name": "paymentManager",
          "type": "bool"
        }
      ],
      "stateMutability": "view",
      "type": "function"
    },
    {
      "inputs": [
        {
          "internalType": "uint256",
          "name": "blocknum",
          "type": "uint256"
        }
      ],
      "name": "railBlocknumToSlot",
      "outputs": [
        {
          "internalType": "uint256",
          "name": "",
          "type": "uint256"
        }
      ],
      "stateMutability": "view",
      "type": "function"
    },
    {
      "inputs": [
        {
          "internalType": "uint256",
          "name": "blocknum",
          "type": "uint256"
        }
      ],
      "name": "redeemUnusedSlotRevenue",
      "outputs": [],
      "stateMutability": "nonpayable",
      "type": "function"
    },
    {
      "inputs": [
        {
          "internalType": "address",
          "name": "_minter",
          "type": "address"
        }
      ],
      "name": "removeMinter",
      "outputs": [],
      "stateMutability": "nonpayable",
      "type": "function"
    },
    {
      "inputs": [],
      "name": "router",
      "outputs": [
        {
          "internalType": "address",
          "name": "",
          "type": "address"
        }
      ],
      "stateMutability": "view",
      "type": "function"
    },
    {
      "inputs": [
        {
          "internalType": "bytes",
          "name": "_value",
          "type": "bytes"
        }
      ],
      "name": "setData",
      "outputs": [],
      "stateMutability": "nonpayable",
      "type": "function"
    },
    {
      "inputs": [
        {
          "internalType": "address",
          "name": "_newPaymentCollector",
          "type": "address"
        }
      ],
      "name": "setPaymentCollector",
      "outputs": [],
      "stateMutability": "nonpayable",
      "type": "function"
    },
    {
      "inputs": [
        {
          "internalType": "address",
          "name": "_publishMarketFeeAddress",
          "type": "address"
        },
        {
          "internalType": "address",
          "name": "_publishMarketFeeToken",
          "type": "address"
        },
        {
          "internalType": "uint256",
          "name": "_publishMarketFeeAmount",
          "type": "uint256"
        }
      ],
      "name": "setPublishingMarketFee",
      "outputs": [],
      "stateMutability": "nonpayable",
      "type": "function"
    },
    {
      "inputs": [
        {
          "internalType": "uint256",
          "name": "prediction_block",
          "type": "uint256"
        }
      ],
      "name": "soonestBlockToPredict",
      "outputs": [
        {
          "internalType": "uint256",
          "name": "",
          "type": "uint256"
        }
      ],
      "stateMutability": "view",
      "type": "function"
    },
    {
      "inputs": [],
      "name": "stakeToken",
      "outputs": [
        {
          "internalType": "address",
          "name": "",
          "type": "address"
        }
      ],
      "stateMutability": "view",
      "type": "function"
    },
    {
      "inputs": [
        {
          "internalType": "address",
          "name": "consumer",
          "type": "address"
        },
        {
          "internalType": "uint256",
          "name": "serviceIndex",
          "type": "uint256"
        },
        {
          "components": [
            {
              "internalType": "address",
              "name": "providerFeeAddress",
              "type": "address"
            },
            {
              "internalType": "address",
              "name": "providerFeeToken",
              "type": "address"
            },
            {
              "internalType": "uint256",
              "name": "providerFeeAmount",
              "type": "uint256"
            },
            {
              "internalType": "uint8",
              "name": "v",
              "type": "uint8"
            },
            {
              "internalType": "bytes32",
              "name": "r",
              "type": "bytes32"
            },
            {
              "internalType": "bytes32",
              "name": "s",
              "type": "bytes32"
            },
            {
              "internalType": "uint256",
              "name": "validUntil",
              "type": "uint256"
            },
            {
              "internalType": "bytes",
              "name": "providerData",
              "type": "bytes"
            }
          ],
          "internalType": "struct ERC20Template3.providerFee",
          "name": "_providerFee",
          "type": "tuple"
        },
        {
          "components": [
            {
              "internalType": "address",
              "name": "consumeMarketFeeAddress",
              "type": "address"
            },
            {
              "internalType": "address",
              "name": "consumeMarketFeeToken",
              "type": "address"
            },
            {
              "internalType": "uint256",
              "name": "consumeMarketFeeAmount",
              "type": "uint256"
            }
          ],
          "internalType": "struct ERC20Template3.consumeMarketFee",
          "name": "_consumeMarketFee",
          "type": "tuple"
        }
      ],
      "name": "startOrder",
      "outputs": [],
      "stateMutability": "nonpayable",
      "type": "function"
    },
    {
      "inputs": [
        {
          "internalType": "bool",
          "name": "predictedValue",
          "type": "bool"
        },
        {
          "internalType": "uint256",
          "name": "stake",
          "type": "uint256"
        },
        {
          "internalType": "uint256",
          "name": "blocknum",
          "type": "uint256"
        }
      ],
      "name": "submitPredval",
      "outputs": [],
      "stateMutability": "nonpayable",
      "type": "function"
    },
    {
      "inputs": [
        {
          "internalType": "uint256",
          "name": "blocknum",
          "type": "uint256"
        },
        {
          "internalType": "bool",
          "name": "trueValue",
          "type": "bool"
        }
      ],
      "name": "submitTrueVal",
      "outputs": [],
      "stateMutability": "nonpayable",
      "type": "function"
    },
    {
      "inputs": [
        {
          "internalType": "uint256",
          "name": "blocknum",
          "type": "uint256"
        },
        {
          "internalType": "address",
          "name": "predictoor",
          "type": "address"
        }
      ],
      "name": "submittedPredval",
      "outputs": [
        {
          "internalType": "bool",
          "name": "",
          "type": "bool"
        }
      ],
      "stateMutability": "view",
      "type": "function"
    },
    {
      "inputs": [
        {
          "internalType": "address",
          "name": "",
          "type": "address"
        }
      ],
      "name": "subscriptions",
      "outputs": [
        {
          "internalType": "address",
          "name": "user",
          "type": "address"
        },
        {
          "internalType": "uint256",
          "name": "expires",
          "type": "uint256"
        }
      ],
      "stateMutability": "view",
      "type": "function"
    },
    {
      "inputs": [],
      "name": "symbol",
      "outputs": [
        {
          "internalType": "string",
          "name": "",
          "type": "string"
        }
      ],
      "stateMutability": "view",
      "type": "function"
    },
    {
      "inputs": [],
      "name": "totalSupply",
      "outputs": [
        {
          "internalType": "uint256",
          "name": "",
          "type": "uint256"
        }
      ],
      "stateMutability": "view",
      "type": "function"
    },
    {
      "inputs": [
        {
          "internalType": "address",
          "name": "to",
          "type": "address"
        },
        {
          "internalType": "uint256",
          "name": "amount",
          "type": "uint256"
        }
      ],
      "name": "transfer",
      "outputs": [
        {
          "internalType": "bool",
          "name": "",
          "type": "bool"
        }
      ],
      "stateMutability": "nonpayable",
      "type": "function"
    },
    {
      "inputs": [
        {
          "internalType": "address",
          "name": "from",
          "type": "address"
        },
        {
          "internalType": "address",
          "name": "to",
          "type": "address"
        },
        {
          "internalType": "uint256",
          "name": "amount",
          "type": "uint256"
        }
      ],
      "name": "transferFrom",
      "outputs": [
        {
          "internalType": "bool",
          "name": "",
          "type": "bool"
        }
      ],
      "stateMutability": "nonpayable",
      "type": "function"
    },
    {
      "inputs": [],
      "name": "trueValSubmitTimeoutBlock",
      "outputs": [
        {
          "internalType": "uint256",
          "name": "",
          "type": "uint256"
        }
      ],
      "stateMutability": "view",
      "type": "function"
    },
    {
      "inputs": [
        {
          "internalType": "uint256",
          "name": "",
          "type": "uint256"
        }
      ],
      "name": "trueValues",
      "outputs": [
        {
          "internalType": "bool",
          "name": "",
          "type": "bool"
        }
      ],
      "stateMutability": "view",
      "type": "function"
    },
    {
      "inputs": [
        {
          "internalType": "uint256",
          "name": "s_per_block",
          "type": "uint256"
        },
        {
          "internalType": "uint256",
          "name": "s_per_subscription",
          "type": "uint256"
        },
        {
          "internalType": "uint256",
          "name": "_truval_submit_timeout",
          "type": "uint256"
        }
      ],
      "name": "updateSeconds",
      "outputs": [],
      "stateMutability": "nonpayable",
      "type": "function"
    },
    {
      "inputs": [],
      "name": "withdrawETH",
      "outputs": [],
      "stateMutability": "payable",
      "type": "function"
    },
    {
      "stateMutability": "payable",
      "type": "receive"
    }
  ],
  "bytecode": "0x6080604052600b805460ff199081169091556000601055601c805490911690553480156200002c57600080fd5b5060408051808201825260048152631d195cdd60e21b60208083019182528351808501909452600a8452691d195cdd14de5b589bdb60b21b9084015281519192916200007b916003916200009f565b508051620000919060049060208401906200009f565b505060016007555062000182565b828054620000ad9062000145565b90600052602060002090601f016020900481019282620000d157600085556200011c565b82601f10620000ec57805160ff19168380011785556200011c565b828001600101855582156200011c579182015b828111156200011c578251825591602001919060010190620000ff565b506200012a9291506200012e565b5090565b5b808211156200012a57600081556001016200012f565b600181811c908216806200015a57607f821691505b602082108114156200017c57634e487b7160e01b600052602260045260246000fd5b50919050565b615aeb80620001926000396000f3fe6080604052600436106103c25760003560e01c80637dda231e116101f0578063b664fac81161010c578063ec342ad0116100a5578063f766feb611610077578063f766feb614610cdf578063f778f83414610cff578063f887ea4014610d1f578063f9aa6e0f14610d3f578063fc913bed14610d7c57005b8063ec342ad014610c2e578063ef867ff414610c4a578063f046395a14610c6a578063f068205414610cc957005b8063d8887315116100de578063d888731514610bde578063dd62ed3e14610bf3578063e086e5ec14610c13578063e487c2e814610c1b57005b8063b664fac814610b63578063b6f421b614610b78578063bccd741314610ba8578063be95e01a14610bbe57005b8063a796344311610189578063aa6920e31161015b578063aa6920e314610aae578063ab62f0e114610ae3578063ad5f190314610b03578063b0cb3eab14610b23578063b3998be014610b4357005b8063a796344314610a1f578063a8c09b0b14610a35578063a9059cbb14610a55578063aa271e1a14610a7557005b806395d89b41116101c257806395d89b411461096a57806396fb3eaf1461097f5780639bd0f27a1461099f578063a457c2d7146109ff57005b80637dda231e146108e65780637ecebe001461090857806382c03da5146109355780638b96412b1461094a57005b806339509351116102df5780635487c577116102785780635d1ca6311161024a5780635d1ca6311461083c57806363ed17fe1461085057806370a082311461087057806379cc6790146108a657806379d9d7f3146108c657005b80635487c577146107c457806357a3a31b146107e457806357ad5ff6146108025780635c975abb1461082257005b80634598d780116102b15780634598d7801461074d57806347ac7d551461076d5780634f189cb21461078f57806351ed6a30146107a457005b806339509351146106b1578063397b3743146106d157806340c10f191461070d57806342966c681461072d57005b806323b872dd1161035c57806330adf81f1161032e57806330adf81f14610618578063313ce5671461064c578063355274ea1461066e5780633644e51514610683578063392e53cd1461069957005b806323b872dd1461059857806324e7fdda146105b857806327e62483146105d85780633092afd5146105f857005b80630b83c417116103955780630b83c417146104a95780630f58ff95146104d7578063160a7925146104f757806318160ddd1461058357005b80627ffb78146103cb57806301e882081461040757806306fdde0314610457578063095ea7b31461047957005b366103c957005b005b3480156103d757600080fd5b50600b5461010090046001600160a01b03165b6040516001600160a01b0390911681526020015b60405180910390f35b34801561041357600080fd5b50610440610422366004614db8565b60056020526000908152604090205460ff8082169161010090041682565b6040805192151583529015156020830152016103fe565b34801561046357600080fd5b5061046c610d9c565b6040516103fe9190614e01565b34801561048557600080fd5b50610499610494366004614e34565b610e2e565b60405190151581526020016103fe565b3480156104b557600080fd5b506104c96104c4366004614e60565b610e48565b6040519081526020016103fe565b3480156104e357600080fd5b506103c96104f2366004614ec4565b610e6a565b34801561050357600080fd5b50610564610512366004614db8565b6040805180820190915260008082526020820152506001600160a01b031660009081526005602090815260409182902082518084019093525460ff808216151584526101009091041615159082015290565b60408051825115158152602092830151151592810192909252016103fe565b34801561058f57600080fd5b506002546104c9565b3480156105a457600080fd5b506104996105b3366004614f1a565b610eaf565b3480156105c457600080fd5b506104996105d3366004614f5b565b610ed5565b3480156105e457600080fd5b506103c96105f3366004614e60565b610f14565b34801561060457600080fd5b506103c9610613366004614db8565b611090565b34801561062457600080fd5b506104c97f6e71edae12b1b97f4d1f60370fef10105fa2faae0126114a169c64845d6126c981565b34801561065857600080fd5b5060125b60405160ff90911681526020016103fe565b34801561067a57600080fd5b50600a546104c9565b34801561068f57600080fd5b506104c9601d5481565b3480156106a557600080fd5b50600b5460ff16610499565b3480156106bd57600080fd5b506104996106cc366004614e34565b6111ac565b3480156106dd57600080fd5b50600d54600e54600f54604080516001600160a01b039485168152939092166020840152908201526060016103fe565b34801561071957600080fd5b506103c9610728366004614e34565b6111ce565b34801561073957600080fd5b506103c9610748366004614e60565b61129b565b34801561075957600080fd5b506104c9610768366004614e60565b6112a5565b34801561077957600080fd5b506107826112c9565b6040516103fe9190614fcf565b34801561079b57600080fd5b506103c961132a565b3480156107b057600080fd5b506019546103ea906001600160a01b031681565b3480156107d057600080fd5b506104c96107df366004614e60565b611405565b3480156107f057600080fd5b506103c96107ff366004614db8565b50565b34801561080e57600080fd5b506103c961081d366004614f1a565b611415565b34801561082e57600080fd5b50601c546104999060ff1681565b34801561084857600080fd5b50600361065c565b34801561085c57600080fd5b506103c961086b366004614fe2565b6115ce565b34801561087c57600080fd5b506104c961088b366004614db8565b6001600160a01b031660009081526020819052604090205490565b3480156108b257600080fd5b506103c96108c1366004614e34565b6116f3565b3480156108d257600080fd5b506103c96108e136600461500e565b611708565b3480156108f257600080fd5b506108fb611bbb565b6040516103fe9190615087565b34801561091457600080fd5b506104c9610923366004614db8565b601e6020526000908152604090205481565b34801561094157600080fd5b506103c9611c30565b34801561095657600080fd5b506104c96109653660046151b3565b611c8f565b34801561097657600080fd5b5061046c612085565b34801561098b57600080fd5b5061049961099a366004614db8565b612094565b3480156109ab57600080fd5b506109bf6109ba366004614f5b565b612112565b6040516103fe9190815115158152602080830151908201526040808301516001600160a01b03169082015260609182015115159181019190915260800190565b348015610a0b57600080fd5b50610499610a1a366004614e34565b612205565b348015610a2b57600080fd5b506104c9601a5481565b348015610a4157600080fd5b506103c9610a50366004615288565b61228b565b348015610a6157600080fd5b50610499610a70366004614e34565b6122e4565b348015610a8157600080fd5b50610499610a90366004614db8565b6001600160a01b031660009081526005602052604090205460ff1690565b348015610aba57600080fd5b50610ace610ac9366004614e60565b6122f2565b604080519283526020830191909152016103fe565b348015610aef57600080fd5b506103c9610afe3660046152e6565b61236d565b348015610b0f57600080fd5b50610499610b1e366004614e60565b612528565b348015610b2f57600080fd5b506104c9610b3e366004614e60565b61253b565b348015610b4f57600080fd5b50610499610b5e366004615357565b61255c565b348015610b6f57600080fd5b506103c961268f565b348015610b8457600080fd5b50610499610b93366004614e60565b60146020526000908152604090205460ff1681565b348015610bb457600080fd5b506104c9601b5481565b348015610bca57600080fd5b506103c9610bd9366004614f5b565b6127b6565b348015610bea57600080fd5b506104c9612b03565b348015610bff57600080fd5b506104c9610c0e366004615447565b612b13565b6103c9612b3e565b348015610c2757600080fd5b50306103ea565b348015610c3a57600080fd5b506104c9670de0b6b3a764000081565b348015610c5657600080fd5b506103ea610c65366004614e60565b612b6a565b348015610c7657600080fd5b50610caa610c85366004614db8565b601760205260009081526040902080546001909101546001600160a01b039091169082565b604080516001600160a01b0390931683526020830191909152016103fe565b348015610cd557600080fd5b506104c960185481565b348015610ceb57600080fd5b506103c9610cfa366004615483565b612b94565b348015610d0b57600080fd5b50610499610d1a366004614db8565b612e42565b348015610d2b57600080fd5b50601f546103ea906001600160a01b031681565b348015610d4b57600080fd5b50610d6f610d5a366004614e60565b60156020526000908152604090205460ff1681565b6040516103fe91906154e0565b348015610d8857600080fd5b506103c9610d973660046154ee565b612e74565b606060088054610dab90615523565b80601f0160208091040260200160405190810160405280929190818152602001828054610dd790615523565b8015610e245780601f10610df957610100808354040283529160200191610e24565b820191906000526020600020905b815481529060010190602001808311610e0757829003601f168201915b5050505050905090565b600033610e3c81858561308b565b60019150505b92915050565b600080610e548361253b565b6000908152601660205260409020549392505050565b60005b82811015610ea957610e97848483818110610e8a57610e8a61555e565b90506020020135836127b6565b80610ea18161558a565b915050610e6d565b50505050565b600033610ebd8582856131af565b610ec8858585613223565b60019150505b9392505050565b600080610ee18461253b565b60009081526011602090815260408083206001600160a01b03878116855292529091206002015416151591505092915050565b600b5460405163160a792560e01b81523360048201526101009091046001600160a01b03169063160a792590602401608060405180830381865afa158015610f60573d6000803e3d6000fd5b505050506040513d601f19601f82011682018060405250810190610f8491906155a5565b602001518061100b5750600b546040516331a9108f60e11b815260016004820152339161010090046001600160a01b031690636352211e90602401602060405180830381865afa158015610fdc573d6000803e3d6000fd5b505050506040513d601f19601f820116820180604052508101906110009190615629565b6001600160a01b0316145b6110305760405162461bcd60e51b815260040161102790615646565b60405180910390fd5b80431161103c57600080fd5b60006110478261253b565b6000818152601360205260409020549091501561106357600080fd5b60008181526016602052604090205460195461108c916001600160a01b039091169033906133c7565b5050565b600b5460405163160a792560e01b81523360048201526101009091046001600160a01b03169063160a792590602401608060405180830381865afa1580156110dc573d6000803e3d6000fd5b505050506040513d601f19601f8201168201806040525081019061110091906155a5565b60200151806111875750600b546040516331a9108f60e11b815260016004820152339161010090046001600160a01b031690636352211e90602401602060405180830381865afa158015611158573d6000803e3d6000fd5b505050506040513d601f19601f8201168201806040525081019061117c9190615629565b6001600160a01b0316145b6111a35760405162461bcd60e51b815260040161102790615646565b6107ff8161342a565b600033610e3c8185856111bf8383612b13565b6111c9919061567b565b61308b565b3360009081526005602052604090205460ff1661122d5760405162461bcd60e51b815260206004820152601960248201527f455243323054656d706c6174653a204e4f54204d494e544552000000000000006044820152606401611027565b600a546112438261123d60025490565b9061349b565b11156112915760405162461bcd60e51b815260206004820152601f60248201527f44617461746f6b656e54656d706c6174653a20636170206578636565646564006044820152606401611027565b61108c82826134a7565b6107ff3382613566565b600060185460026112b69190615693565b6112bf8361253b565b610e42919061567b565b60606021805480602002602001604051908101604052809291908181526020018280548015610e2457602002820191906000526020600020905b81546001600160a01b03168152600190910190602001808311611303575050505050905090565b600b546040516331a9108f60e11b8152600160048201526101009091046001600160a01b031690636352211e90602401602060405180830381865afa158015611377573d6000803e3d6000fd5b505050506040513d601f19601f8201168201806040525081019061139b9190615629565b6001600160a01b0316336001600160a01b0316146113fb5760405162461bcd60e51b815260206004820152601b60248201527f455243323054656d706c6174653a206e6f74204e46544f776e657200000000006044820152606401611027565b611403613698565b565b600060185482610e4291906156c8565b600d546001600160a01b031633146114825760405162461bcd60e51b815260206004820152602a60248201527f455243323054656d706c6174653a206e6f74207075626c6973684d61726b65746044820152694665654164647265737360b01b6064820152608401611027565b6001600160a01b0383166114e95760405162461bcd60e51b815260206004820152602860248201527f496e76616c6964205f7075626c6973684d61726b657446656541646472657373604482015267206164647265737360c01b6064820152608401611027565b6001600160a01b03821661154e5760405162461bcd60e51b815260206004820152602660248201527f496e76616c6964205f7075626c6973684d61726b6574466565546f6b656e206160448201526564647265737360d01b6064820152608401611027565b600d80546001600160a01b038581166001600160a01b03199283168117909355600e8054918616919092168117909155600f839055604080513381526020810193909352820152606081018290527f02ab4b3fc023109c2d0da394bda239166c833f63c42b71b67ed4b836dca0ddfe9060800160405180910390a1505050565b600b5460405163160a792560e01b81523360048201526101009091046001600160a01b03169063160a792590602401608060405180830381865afa15801561161a573d6000803e3d6000fd5b505050506040513d601f19601f8201168201806040525081019061163e91906155a5565b60200151806116c55750600b546040516331a9108f60e11b815260016004820152339161010090046001600160a01b031690636352211e90602401602060405180830381865afa158015611696573d6000803e3d6000fd5b505050506040513d601f19601f820116820180604052508101906116ba9190615629565b6001600160a01b0316145b6116e15760405162461bcd60e51b815260040161102790615646565b6116ee8360008484613a2e565b505050565b6116fe8233836131af565b61108c8282613566565b611710613b37565b33600090815260208190526040902054670de0b6b3a7640000908111156117855760405162461bcd60e51b8152602060048201526024808201527f4e6f7420656e6f7567682064617461746f6b656e7320746f207374617274204f604482015263393232b960e11b6064820152608401611027565b600d5460408051338152602081018490529081018690524260608201524360808201526001600160a01b03918216918716907fe1c4fa794edfa8f619b8257a077398950357b9c6398528f94480307352f9afcc9060a00160405180910390a36000600f541180156118005750600e546001600160a01b031615155b80156118165750600d546001600160a01b031615155b1561188b57600e54600d54600f5461183e926001600160a01b03908116923392911690613b91565b600e54600d54600f546040519081526001600160a01b0392831692909116907f4049a448ac6f0284a98d2cb9199e73605944ea5bec901a037f88c84703de82b29060200160405180910390a35b600082604001351180156118b8575060006118ac6040840160208501614db8565b6001600160a01b031614155b80156118da575060006118ce6020840184614db8565b6001600160a01b031614155b156119775761190a6118f26040840160208501614db8565b336119006020860186614db8565b8560400135613b91565b61191a6040830160208401614db8565b6001600160a01b03166119306020840184614db8565b6001600160a01b03167f6d11837f46cc09b011cf4aae09fcade046c020aac088090ae4f77ff67b707972846040013560405161196e91815260200190565b60405180910390a35b60205415611ae757600060206000815481106119955761199561555e565b6000918252602080832060029092029091015481546001600160a01b0390911693508391634c87087d9184906119cd576119cd61555e565b9060005260206000209060020201600101546040518263ffffffff1660e01b81526004016119fd91815260200190565b61018060405180830381865afa158015611a1b573d6000803e3d6000fd5b505050506040513d601f19601f82011682018060405250810190611a3f91906156dc565b509a50505050505050505050506000811115611ae457816001600160a01b031663f32f94766020600081548110611a7857611a7861555e565b906000526020600020906002020160010154836040518363ffffffff1660e01b8152600401611ab1929190918252602082015260400190565b600060405180830381600087803b158015611acb57600080fd5b505af1158015611adf573d6000803e3d6000fd5b505050505b50505b60006040518060400160405280876001600160a01b03168152602001601a5443611b11919061567b565b90526001600160a01b038781166000818152601760209081526040909120845181546001600160a01b0319169416939093178355830151600190920191909155601a54919250907f498f6fbe01bd9d9e4dd7aed2b61275cee780377081cbcc813dabf749f933dd4990611b84904361567b565b604080519182524360208301520160405180910390a2611ba643601054613cdf565b611baf8261129b565b5050610ea96001600755565b60606020805480602002602001604051908101604052809291908181526020016000905b82821015611c27576000848152602090819020604080518082019091526002850290910180546001600160a01b03168252600190810154828401529083529092019101611bdf565b50505050905090565b600b5461010090046001600160a01b031633146113fb5760405162461bcd60e51b815260206004820152601f60248201527f455243323054656d706c6174653a204e4f542037323120436f6e7472616374006044820152606401611027565b600b5460405163160a792560e01b815233600482015260009161010090046001600160a01b03169063160a792590602401608060405180830381865afa158015611cdd573d6000803e3d6000fd5b505050506040513d601f19601f82011682018060405250810190611d0191906155a5565b6020015180611d885750600b546040516331a9108f60e11b815260016004820152339161010090046001600160a01b031690636352211e90602401602060405180830381865afa158015611d59573d6000803e3d6000fd5b505050506040513d601f19601f82011682018060405250810190611d7d9190615629565b6001600160a01b0316145b611da45760405162461bcd60e51b815260040161102790615646565b611dac613b37565b60205415611dfc5760405162461bcd60e51b815260206004820152601a60248201527f4669786564207261746520616c72656164792070726573656e740000000000006044820152606401611027565b82600081518110611e0f57611e0f61555e565b60209081029190910101516019546001600160a01b03908116911614611e8c5760405162461bcd60e51b815260206004820152602c60248201527f43616e6e6f74206372656174652046524520776974682062617365546f6b656e60448201526b109eb9ba30b5b2aa37b5b2b760a11b6064820152608401611027565b600082600481518110611ea157611ea161555e565b60200260200101511115611eb857611eb884613dd7565b601f54604051638244937560e01b81526001600160a01b0390911690638244937590611eec90879087908790600401615799565b6020604051808303816000875af1158015611f0b573d6000803e3d6000fd5b505050506040513d601f19601f82011682018060405250810190611f2f91906157ff565b905082600081518110611f4457611f4461555e565b60200260200101516001600160a01b031683600181518110611f6857611f6861555e565b60200260200101516001600160a01b03167fb3fac3ae95956dbac74e63ba8dac94081832395c8788e3049c900a7732f348058387604051611fbc9291909182526001600160a01b0316602082015260400190565b60405180910390a3604080518082019091526001600160a01b0385811682526020808301848152815460018101835560009290925292517fc97bfaf2f8ee708c303a06d134f5ecd8389ae0432af62dc132a24118292866bb600292830290810180546001600160a01b031916929094169190911790925591517fc97bfaf2f8ee708c303a06d134f5ecd8389ae0432af62dc132a24118292866bc909101558251839190811061206d5761206d61555e565b6020026020010151601081905550610ece6001600755565b606060098054610dab90615523565b600b5460405163160a792560e01b81526001600160a01b0383811660048301526000926101009004169063160a792590602401608060405180830381865afa1580156120e4573d6000803e3d6000fd5b505050506040513d601f19601f8201168201806040525081019061210891906155a5565b6020015192915050565b604080516080810182526000808252602082018190529181018290526060810191909152336001600160a01b038316148061214c57504383105b61218d5760405162461bcd60e51b8152602060048201526012602482015271796f75207368616c6c206e6f74207061737360701b6044820152606401611027565b60006121988461253b565b60009081526011602090815260408083206001600160a01b0396871684528252918290208251608081018452815460ff9081161515825260018301549382019390935260029091015495861692810192909252600160a01b90940490931615156060840152509092915050565b600033816122138286612b13565b9050838110156122735760405162461bcd60e51b815260206004820152602560248201527f45524332303a2064656372656173656420616c6c6f77616e63652062656c6f77604482015264207a65726f60d81b6064820152608401611027565b612280828686840361308b565b506001949350505050565b612293613b37565b61229c81613ead565b6122af3033670de0b6b3a7640000613223565b6122da6122bf6020840184614db8565b60208401356122d16040860186615818565b85606001611708565b61108c6001600755565b600033610e3c818585613223565b6000806122fe33612e42565b61233c5760405162461bcd60e51b815260206004820152600f60248201526e27379039bab139b1b934b83a34b7b760891b6044820152606401611027565b60006123478461253b565b600090815260126020908152604080832054601390925290912054909590945092505050565b600b5460405163160a792560e01b81523360048201526101009091046001600160a01b03169063160a792590602401608060405180830381865afa1580156123b9573d6000803e3d6000fd5b505050506040513d601f19601f820116820180604052508101906123dd91906155a5565b60200151806124645750600b546040516331a9108f60e11b815260016004820152339161010090046001600160a01b031690636352211e90602401602060405180830381865afa158015612435573d6000803e3d6000fd5b505050506040513d601f19601f820116820180604052508101906124599190615629565b6001600160a01b0316145b6124805760405162461bcd60e51b815260040161102790615646565b6040516bffffffffffffffffffffffff193060601b16602082015260009060340160408051808303601f19018152908290528051602090910120600b546301caf8fd60e31b835290925061010090046001600160a01b031690630e57c7e8906124f190849087908790600401615838565b600060405180830381600087803b15801561250b57600080fd5b505af115801561251f573d6000803e3d6000fd5b50505050505050565b60006125338261253b565b909114919050565b6000806018548361254c91906156c8565b905060185481610ece9190615693565b600b5460009060ff16156125cc5760405162461bcd60e51b815260206004820152603160248201527f455243323054656d706c6174653a20746f6b656e20696e7374616e636520616c6044820152701c9958591e481a5b9a5d1a585b1a5e9959607a1b6064820152608401611027565b6126806125d98b8d6158c5565b8a8a8080602002602001604051908101604052809392919081815260200183836020028082843760009201919091525050604080516020808e0282810182019093528d82529093508d92508c91829185019084908082843760009201919091525050604080516020808d0282810182019093528c82529093508c92508b91829185019084908082843760009201919091525061267b92508991508a905061594c565b6142cd565b9b9a5050505050505050505050565b600b5460405163160a792560e01b81523360048201526101009091046001600160a01b03169063160a792590602401608060405180830381865afa1580156126db573d6000803e3d6000fd5b505050506040513d601f19601f820116820180604052508101906126ff91906155a5565b60200151806127865750600b546040516331a9108f60e11b815260016004820152339161010090046001600160a01b031690636352211e90602401602060405180830381865afa158015612757573d6000803e3d6000fd5b505050506040513d601f19601f8201168201806040525081019061277b9190615629565b6001600160a01b0316145b6127a25760405162461bcd60e51b815260040161102790615646565b601c805460ff19811660ff90911615179055565b6127be613b37565b6127c88282610ed5565b6128045760405162461bcd60e51b815260206004820152600d60248201526c1b9bdd081cdd589b5a5d1d1959609a1b6044820152606401611027565b600061280f8361253b565b60008181526011602090815260408083206001600160a01b038088168552908352928190208151608081018352815460ff9081161515825260018301549482019490945260029091015493841691810191909152600160a01b909204161580156060830152919250906128835750506122da565b601b54612890908361567b565b431180156128be575060008281526015602052604081205460ff1660028111156128bc576128bc6154a8565b145b156128dd576000828152601560205260409020805460ff191660021790555b60008281526015602052604081205460ff166002811115612900576129006154a8565b141561290d5750506122da565b60008281526011602090815260408083206001600160a01b038716845290915281206002908101805460ff60a01b1916600160a01b17905560008481526015602052604090205460ff166002811115612968576129686154a8565b141561297957506020810151612a39565b815160008481526014602052604090205460ff1615159015151415612a395760008381526014602052604081205460ff166129d8576000848152601260209081526040808320546013909252909120546129d391906159c7565b6129e8565b6000848152601260205260409020545b90508015612a375760006129fb85610e48565b6000868152601360205260409020549091508290612a1a90839061567b565b8560200151612a299190615693565b612a3391906156c8565b9250505b505b60208083015183516000868152601484526040808220546013865281832054601290965291205487946001600160a01b038a16947f095487dd6dbd377778c598664198287a051bce23f419565bd4ce4a2b37c63c809490938893919260ff90911691612aa591906156c8565b60008b81526015602052604090819020549051612aca96959493929160ff16906159de565b60405180910390a38015612af6576040820151601954612af6916001600160a01b0390911690836133c7565b50505061108c6001600755565b6000612b0e43611405565b905090565b6001600160a01b03918216600090815260016020908152604080832093909416825291909152205490565b60405130904780156108fc02916000818181858888f193505050501580156107ff573d6000803e3d6000fd5b60068181548110612b7a57600080fd5b6000918252602090912001546001600160a01b0316905081565b600b5460405163160a792560e01b81523360048201526101009091046001600160a01b03169063160a792590602401608060405180830381865afa158015612be0573d6000803e3d6000fd5b505050506040513d601f19601f82011682018060405250810190612c0491906155a5565b6020015180612c8b5750600b546040516331a9108f60e11b815260016004820152339161010090046001600160a01b031690636352211e90602401602060405180830381865afa158015612c5c573d6000803e3d6000fd5b505050506040513d601f19601f82011682018060405250810190612c809190615629565b6001600160a01b0316145b612ca75760405162461bcd60e51b815260040161102790615646565b438210612cec5760405162461bcd60e51b81526020600482015260136024820152721d1bdbc819585c9b1e481d1bc81cdd589b5a5d606a1b6044820152606401611027565b6000612cf78361253b565b90506000808281526015602052604090205460ff166002811115612d1d57612d1d6154a8565b14612d5c5760405162461bcd60e51b815260206004820152600f60248201526e185b1c9958591e481cd95d1d1b1959608a1b6044820152606401611027565b601b54612d69908261567b565b43118015612d97575060008181526015602052604081205460ff166002811115612d9557612d956154a8565b145b15612dba576000818152601560205260409020805460ff19166002179055612ded565b6000818152601460209081526040808320805460ff19908116871515179091556015909252909120805490911660011790555b6000818152601560205260409081902054905182917f2346e2e67c3a50f617751cad38a14f3b079c2bfc50db053f7d7e63fff6ee7bbd91612e3591869160ff90911690615a10565b60405180910390a2505050565b6001600160a01b038116600090815260176020526040812060010154431015612e6c576001610e42565b600092915050565b601c5460ff1615612eb05760405162461bcd60e51b81526020600482015260066024820152651c185d5cd95960d21b6044820152606401611027565b6000612ebb8261253b565b9050612ec6436112a5565b811015612f0a5760405162461bcd60e51b81526020600482015260126024820152711d1bdbc81b185d19481d1bc81cdd589b5a5d60721b6044820152606401611027565b612f148133610ed5565b15612f555760405162461bcd60e51b8152602060048201526011602482015270185b1c9958591e481cdd589b5a5d1d1959607a1b6044820152606401611027565b6040805160808101825285151581526020808201868152338385018181526000606086018181528882526011865287822093825292909452949092209251835460ff191690151517835551600183015591516002909101805492516001600160a01b039092166001600160a81b031990931692909217600160a01b9115159190910217905583612fe6576000612fe9565b60015b612ff69060ff1684615693565b6000828152601260205260408120805490919061301490849061567b565b90915550506000818152601360205260408120805485929061303790849061567b565b9091555050604051838152819033907f1adf2f5dd35a2da881dc68ca4d293ab5f8c12b143741836d06e273a5dbf58c539060200160405180910390a3601954610ea9906001600160a01b03163330866146f3565b6001600160a01b0383166130ed5760405162461bcd60e51b8152602060048201526024808201527f45524332303a20617070726f76652066726f6d20746865207a65726f206164646044820152637265737360e01b6064820152608401611027565b6001600160a01b03821661314e5760405162461bcd60e51b815260206004820152602260248201527f45524332303a20617070726f766520746f20746865207a65726f206164647265604482015261737360f01b6064820152608401611027565b6001600160a01b0383811660008181526001602090815260408083209487168084529482529182902085905590518481527f8c5be1e5ebec7d5bd14f71427d1e84f3dd0314c0f7b2291e5b200ac8c7c3b925910160405180910390a3505050565b60006131bb8484612b13565b90506000198114610ea957818110156132165760405162461bcd60e51b815260206004820152601d60248201527f45524332303a20696e73756666696369656e7420616c6c6f77616e63650000006044820152606401611027565b610ea9848484840361308b565b6001600160a01b0383166132875760405162461bcd60e51b815260206004820152602560248201527f45524332303a207472616e736665722066726f6d20746865207a65726f206164604482015264647265737360d81b6064820152608401611027565b6001600160a01b0382166132e95760405162461bcd60e51b815260206004820152602360248201527f45524332303a207472616e7366657220746f20746865207a65726f206164647260448201526265737360e81b6064820152608401611027565b6001600160a01b038316600090815260208190526040902054818110156133615760405162461bcd60e51b815260206004820152602660248201527f45524332303a207472616e7366657220616d6f756e7420657863656564732062604482015265616c616e636560d01b6064820152608401611027565b6001600160a01b03848116600081815260208181526040808320878703905593871680835291849020805487019055925185815290927fddf252ad1be2c89b69c2b068fc378daa952ba7f163c4a11628f55a4df523b3ef910160405180910390a3610ea9565b6040516001600160a01b0383166024820152604481018290526116ee90849063a9059cbb60e01b906064015b60408051601f198184030181529190526020810180516001600160e01b03166001600160e01b03199093169290921790915261472b565b6001600160a01b03811660008181526005602052604090819020805460ff191681559051909133917fefa2735987005aaa89c050c0ff8cc9ae7d9079d19382081c429130f98c52d4809061348a9042904390918252602082015260400190565b60405180910390a361108c826147fd565b6000610ece828461567b565b6001600160a01b0382166134fd5760405162461bcd60e51b815260206004820152601f60248201527f45524332303a206d696e7420746f20746865207a65726f2061646472657373006044820152606401611027565b806002600082825461350f919061567b565b90915550506001600160a01b038216600081815260208181526040808320805486019055518481527fddf252ad1be2c89b69c2b068fc378daa952ba7f163c4a11628f55a4df523b3ef910160405180910390a35050565b6001600160a01b0382166135c65760405162461bcd60e51b815260206004820152602160248201527f45524332303a206275726e2066726f6d20746865207a65726f206164647265736044820152607360f81b6064820152608401611027565b6001600160a01b0382166000908152602081905260409020548181101561363a5760405162461bcd60e51b815260206004820152602260248201527f45524332303a206275726e20616d6f756e7420657863656564732062616c616e604482015261636560f01b6064820152608401611027565b6001600160a01b0383166000818152602081815260408083208686039055600280548790039055518581529192917fddf252ad1be2c89b69c2b068fc378daa952ba7f163c4a11628f55a4df523b3ef910160405180910390a3505050565b6021546020546000916136aa9161567b565b9050600080826001600160401b038111156136c7576136c76150df565b6040519080825280602002602001820160405280156136f0578160200160208202803683370190505b50905060005b6020548110156139d6576000602082815481106137155761371561555e565b6000918252602080832060029092029091015481546001600160a01b039091169350829182918591634c87087d91889081106137535761375361555e565b9060005260206000209060020201600101546040518263ffffffff1660e01b815260040161378391815260200190565b61018060405180830381865afa1580156137a1573d6000803e3d6000fd5b505050506040513d601f19601f820116820180604052508101906137c591906156dc565b9b509b509b50505050505050505050600082111561386b57836001600160a01b031663f32f9476602087815481106137ff576137ff61555e565b906000526020600020906002020160010154846040518363ffffffff1660e01b8152600401613838929190918252602082015260400190565b600060405180830381600087803b15801561385257600080fd5b505af1158015613866573d6000803e3d6000fd5b505050505b82156138ff57836001600160a01b031663c612e48a602087815481106138935761389361555e565b906000526020600020906002020160010154856040518363ffffffff1660e01b81526004016138cc929190918252602082015260400190565b600060405180830381600087803b1580156138e657600080fd5b505af11580156138fa573d6000803e3d6000fd5b505050505b613942602086815481106139155761391561555e565b600091825260208083206002909202909101546001600160a01b0316825260059052604090205460ff1690565b801561395057506001811515145b156139bf57602085815481106139685761396861555e565b600091825260209091206002909102015486516001600160a01b03909116908790899081106139995761399961555e565b6001600160a01b0390921660209283029190910190910152866139bb8161558a565b9750505b5050505080806139ce9061558a565b9150506136f6565b6139de61494b565b50600c80546001600160a01b031916905560005b82811015610ea957613a1c828281518110613a0f57613a0f61555e565b6020026020010151613dd7565b80613a268161558a565b9150506139f2565b613a388483615a26565b15613a695760405162461bcd60e51b81526020600482015260016024820152602560f81b6044820152606401611027565b613a738484615a26565b15613aa45760405162461bcd60e51b81526020600482015260016024820152602560f81b6044820152606401611027565b601854613ab957613ab584846156c8565b6018555b613ac384836156c8565b601a55613ad084826156c8565b601b819055601854601a54601954604080519384526020840192909252908201929092526001600160a01b0390911660608201527fc4526e958dc74330dcd6698fa6f869171a8c97b4036026118c263688264099d59060800160405180910390a150505050565b60026007541415613b8a5760405162461bcd60e51b815260206004820152601f60248201527f5265656e7472616e637947756172643a207265656e7472616e742063616c6c006044820152606401611027565b6002600755565b6040516370a0823160e01b81526001600160a01b038381166004830152600091908616906370a0823190602401602060405180830381865afa158015613bdb573d6000803e3d6000fd5b505050506040513d601f19601f82011682018060405250810190613bff91906157ff565b9050613c166001600160a01b0386168585856146f3565b613c20818361349b565b6040516370a0823160e01b81526001600160a01b0385811660048301528716906370a0823190602401602060405180830381865afa158015613c66573d6000803e3d6000fd5b505050506040513d601f19601f82011682018060405250810190613c8a91906157ff565b1015613cd85760405162461bcd60e51b815260206004820152601a60248201527f5472616e7366657220616d6f756e7420697320746f6f206c6f770000000000006044820152606401611027565b5050505050565b801561108c576000613cf08361253b565b90506000601854601a54613d0491906156c8565b90506001811015613d13575060015b6000613d1f82856156c8565b905060005b82811015613d7e57816016600083601854613d3f9190615693565b613d49908861567b565b81526020019081526020016000206000828254613d66919061567b565b90915550819050613d768161558a565b915050613d24565b506018546040805186815260208101869052808201849052606081018590526080810192909252517f12246f3e621dc7f930e714f57b7328c069007c690cbe9f328090bd161e7ff3b69181900360a00190a15050505050565b6001600160a01b038116156107ff576001600160a01b0381166000908152600560205260409020805460ff1615613e505760405162461bcd60e51b815260206004820152601d60248201527f4552433230526f6c65733a2020414c52454144592041204d494e5445520000006044820152606401611027565b805460ff19166001178155613e64826149fa565b6040805142815243602082015233916001600160a01b038516917f4f7e100eb1ee13e903798bd0d6aa854152e07eb05544f392b9409c12935c8095910160405180910390a35050565b6000613ebc6020830183614db8565b604051634c87087d60e01b81526020840135600482015290915060009081906001600160a01b03841690634c87087d9060240161018060405180830381865afa158015613f0d573d6000803e3d6000fd5b505050506040513d601f19601f82011682018060405250810190613f3191906156dc565b5050505050505050935050925050306001600160a01b0316826001600160a01b031614613fb05760405162461bcd60e51b815260206004820152602760248201527f5468697320466978656452617465206973206e6f742070726f766964696e67206044820152661d1a1a5cc8111560ca1b6064820152608401611027565b604051636e8de4b560e11b815260208501356004820152670de0b6b3a76400006024820152606085013560448201526000906001600160a01b0385169063dd1bc96a90606401608060405180830381865afa158015614013573d6000803e3d6000fd5b505050506040513d601f19601f820116820180604052508101906140379190615a3a565b505050905084604001358111156140a05760405162461bcd60e51b815260206004820152602760248201527f46697865645261746545786368616e67653a20546f6f206d616e79206261736560448201526620746f6b656e7360c81b6064820152608401611027565b6140ac82333084613b91565b6140cd6140bc6020870187614db8565b6001600160a01b0384169083614ab1565b6001600160a01b0384166368c4b7e96020870135670de0b6b3a7640000846140fb60a08b0160808c01614db8565b6040516001600160e01b031960e087901b1681526004810194909452602484019290925260448301526001600160a01b031660648201526060880135608482015260a401600060405180830381600087803b15801561415957600080fd5b505af115801561416d573d6000803e3d6000fd5b505030600090815260208190526040902054670de0b6b3a76400009250905010156141da5760405162461bcd60e51b815260206004820152601f60248201527f556e61626c6520746f206275792044542066726f6d20466978656452617465006044820152606401611027565b604051634c87087d60e01b8152602086013560048201526000906001600160a01b03861690634c87087d9060240161018060405180830381865afa158015614226573d6000803e3d6000fd5b505050506040513d601f19601f8201168201806040525081019061424a91906156dc565b509a505050505050505050505060008111156142c557604051637997ca3b60e11b815260208701356004820152602481018290526001600160a01b0386169063f32f947690604401600060405180830381600087803b1580156142ac57600080fd5b505af11580156142c0573d6000803e3d6000fd5b505050505b505050505050565b600080846000815181106142e3576142e361555e565b60200260200101519050846001815181106143005761430061555e565b6020908102919091010151601f80546001600160a01b0319166001600160a01b03928316179055811661438a5760405162461bcd60e51b815260206004820152602c60248201527f455243323054656d706c6174653a20496e76616c6964206d696e7465722c202060448201526b7a65726f206164647265737360a01b6064820152608401611027565b601f546001600160a01b03166143f65760405162461bcd60e51b815260206004820152602b60248201527f455243323054656d706c6174653a20496e76616c696420726f757465722c207a60448201526a65726f206164647265737360a81b6064820152608401611027565b836000815181106144095761440961555e565b60200260200101516000141561446d5760405162461bcd60e51b8152602060048201526024808201527f44617461746f6b656e54656d706c6174653a20496e76616c6964206361702076604482015263616c756560e01b6064820152608401611027565b836000815181106144805761448061555e565b6020026020010151600a81905550866000815181106144a1576144a161555e565b6020026020010151600890805190602001906144be929190614cf0565b50866001815181106144d2576144d261555e565b6020026020010151600990805190602001906144ef929190614cf0565b50600b805460016001600160a81b03199091166101006001600160a01b0385160260ff191617179055600c80546001600160a01b031916301790558560028151811061453d5761453d61555e565b6020026020010151600d60006101000a8154816001600160a01b0302191690836001600160a01b031602179055508560038151811061457e5761457e61555e565b6020026020010151600e60006101000a8154816001600160a01b0302191690836001600160a01b03160217905550836001815181106145bf576145bf61555e565b602090810291909101810151600f819055600d54600e54604080513381526001600160a01b039384169581019590955291169083015260608201527f02ab4b3fc023109c2d0da394bda239166c833f63c42b71b67ed4b836dca0ddfe9060800160405180910390a160004690508660048151811061463f5761463f61555e565b6020026020010151601960006101000a8154816001600160a01b0302191690836001600160a01b031602179055506146e1856002815181106146835761468361555e565b60200260200101518660038151811061469e5761469e61555e565b6020026020010151876004815181106146b9576146b961555e565b6020026020010151886005815181106146d4576146d461555e565b6020026020010151613a2e565b5050600b5460ff169695505050505050565b6040516001600160a01b0380851660248301528316604482015260648101829052610ea99085906323b872dd60e01b906084016133f3565b6000614780826040518060400160405280602081526020017f5361666545524332303a206c6f772d6c6576656c2063616c6c206661696c6564815250856001600160a01b0316614b639092919063ffffffff16565b8051909150156116ee578080602001905181019061479e9190615a70565b6116ee5760405162461bcd60e51b815260206004820152602a60248201527f5361666545524332303a204552433230206f7065726174696f6e20646964206e6044820152691bdd081cdd58d8d9595960b21b6064820152608401611027565b6001600160a01b0381166000908152600560205260409020805460ff1615801561482e57508054610100900460ff16155b1561108c5760005b60065481101561488f57826001600160a01b03166006828154811061485d5761485d61555e565b6000918252602090912001546001600160a01b0316141561487d5761488f565b806148878161558a565b915050614836565b6006548110156116ee57600680546148a9906001906159c7565b815481106148b9576148b961555e565b600091825260209091200154600680546001600160a01b0390921691839081106148e5576148e561555e565b9060005260206000200160006101000a8154816001600160a01b0302191690836001600160a01b03160217905550600680548061492457614924615a8d565b600082815260209020810160001990810180546001600160a01b0319169055019055505050565b60005b6006548110156149b157600060056000600684815481106149715761497161555e565b60009182526020808320909101546001600160a01b031683528201929092526040019020805461ffff1916905550806149a98161558a565b91505061494e565b506149be60066000614d74565b6040805142815243602082015233917f712bc71db81927a76b8bf1ea346247bb0ad58f18e4e5c1bd4aa0ec6573e02a2b910160405180910390a2565b60005b600654811015614a5657816001600160a01b031660068281548110614a2457614a2461555e565b6000918252602090912001546001600160a01b03161415614a4457614a56565b80614a4e8161558a565b9150506149fd565b60065481141561108c57600680546001810182556000919091527ff652222313e28459528d920b65115c16c04f3efc82aaedc97be59f3f377c0d3f0180546001600160a01b0384166001600160a01b03199091161790555050565b604051636eb1769f60e11b81523060048201526001600160a01b038381166024830152600091839186169063dd62ed3e90604401602060405180830381865afa158015614b02573d6000803e3d6000fd5b505050506040513d601f19601f82011682018060405250810190614b2691906157ff565b614b30919061567b565b6040516001600160a01b038516602482015260448101829052909150610ea990859063095ea7b360e01b906064016133f3565b6060614b728484600085614b7a565b949350505050565b606082471015614bdb5760405162461bcd60e51b815260206004820152602660248201527f416464726573733a20696e73756666696369656e742062616c616e636520666f6044820152651c8818d85b1b60d21b6064820152608401611027565b600080866001600160a01b03168587604051614bf79190615aa3565b60006040518083038185875af1925050503d8060008114614c34576040519150601f19603f3d011682016040523d82523d6000602084013e614c39565b606091505b5091509150614c4a87838387614c55565b979650505050505050565b60608315614cc1578251614cba576001600160a01b0385163b614cba5760405162461bcd60e51b815260206004820152601d60248201527f416464726573733a2063616c6c20746f206e6f6e2d636f6e74726163740000006044820152606401611027565b5081614b72565b614b728383815115614cd65781518083602001fd5b8060405162461bcd60e51b81526004016110279190614e01565b828054614cfc90615523565b90600052602060002090601f016020900481019282614d1e5760008555614d64565b82601f10614d3757805160ff1916838001178555614d64565b82800160010185558215614d64579182015b82811115614d64578251825591602001919060010190614d49565b50614d70929150614d8e565b5090565b50805460008255906000526020600020908101906107ff91905b5b80821115614d705760008155600101614d8f565b6001600160a01b03811681146107ff57600080fd5b600060208284031215614dca57600080fd5b8135610ece81614da3565b60005b83811015614df0578181015183820152602001614dd8565b83811115610ea95750506000910152565b6020815260008251806020840152614e20816040850160208701614dd5565b601f01601f19169190910160400192915050565b60008060408385031215614e4757600080fd5b8235614e5281614da3565b946020939093013593505050565b600060208284031215614e7257600080fd5b5035919050565b60008083601f840112614e8b57600080fd5b5081356001600160401b03811115614ea257600080fd5b6020830191508360208260051b8501011115614ebd57600080fd5b9250929050565b600080600060408486031215614ed957600080fd5b83356001600160401b03811115614eef57600080fd5b614efb86828701614e79565b9094509250506020840135614f0f81614da3565b809150509250925092565b600080600060608486031215614f2f57600080fd5b8335614f3a81614da3565b92506020840135614f4a81614da3565b929592945050506040919091013590565b60008060408385031215614f6e57600080fd5b823591506020830135614f8081614da3565b809150509250929050565b600081518084526020808501945080840160005b83811015614fc45781516001600160a01b031687529582019590820190600101614f9f565b509495945050505050565b602081526000610ece6020830184614f8b565b600080600060608486031215614ff757600080fd5b505081359360208301359350604090920135919050565b60008060008084860360c081121561502557600080fd5b853561503081614da3565b94506020860135935060408601356001600160401b0381111561505257600080fd5b8601610100818903121561506557600080fd5b92506060605f198201121561507957600080fd5b509295919450926060019150565b602080825282518282018190526000919060409081850190868401855b828110156150d257815180516001600160a01b031685528601518685015292840192908501906001016150a4565b5091979650505050505050565b634e487b7160e01b600052604160045260246000fd5b604051601f8201601f191681016001600160401b038111828210171561511d5761511d6150df565b604052919050565b60006001600160401b0382111561513e5761513e6150df565b5060051b60200190565b600082601f83011261515957600080fd5b8135602061516e61516983615125565b6150f5565b82815260059290921b8401810191818101908684111561518d57600080fd5b8286015b848110156151a85780358352918301918301615191565b509695505050505050565b6000806000606084860312156151c857600080fd5b83356151d381614da3565b92506020848101356001600160401b03808211156151f057600080fd5b818701915087601f83011261520457600080fd5b813561521261516982615125565b81815260059190911b8301840190848101908a83111561523157600080fd5b938501935b8285101561525857843561524981614da3565b82529385019390850190615236565b96505050604087013592508083111561527057600080fd5b505061527e86828701615148565b9150509250925092565b60008082840360c081121561529c57600080fd5b83356001600160401b038111156152b257600080fd5b840160c081870312156152c457600080fd5b925060a0601f19820112156152d857600080fd5b506020830190509250929050565b600080602083850312156152f957600080fd5b82356001600160401b038082111561531057600080fd5b818501915085601f83011261532457600080fd5b81358181111561533357600080fd5b86602082850101111561534557600080fd5b60209290920196919550909350505050565b60008060008060008060008060008060a08b8d03121561537657600080fd5b8a356001600160401b038082111561538d57600080fd5b6153998e838f01614e79565b909c509a5060208d01359150808211156153b257600080fd5b6153be8e838f01614e79565b909a50985060408d01359150808211156153d757600080fd5b6153e38e838f01614e79565b909850965060608d01359150808211156153fc57600080fd5b6154088e838f01614e79565b909650945060808d013591508082111561542157600080fd5b5061542e8d828e01614e79565b915080935050809150509295989b9194979a5092959850565b6000806040838503121561545a57600080fd5b823561546581614da3565b91506020830135614f8081614da3565b80151581146107ff57600080fd5b6000806040838503121561549657600080fd5b823591506020830135614f8081615475565b634e487b7160e01b600052602160045260246000fd5b600381106154dc57634e487b7160e01b600052602160045260246000fd5b9052565b60208101610e4282846154be565b60008060006060848603121561550357600080fd5b833561550e81615475565b95602085013595506040909401359392505050565b600181811c9082168061553757607f821691505b6020821081141561555857634e487b7160e01b600052602260045260246000fd5b50919050565b634e487b7160e01b600052603260045260246000fd5b634e487b7160e01b600052601160045260246000fd5b600060001982141561559e5761559e615574565b5060010190565b6000608082840312156155b757600080fd5b604051608081018181106001600160401b03821117156155d9576155d96150df565b60405282516155e781615475565b815260208301516155f781615475565b6020820152604083015161560a81615475565b6040820152606083015161561d81615475565b60608201529392505050565b60006020828403121561563b57600080fd5b8151610ece81614da3565b6020808252818101527f455243323054656d706c6174653a204e4f54204445504c4f59455220524f4c45604082015260600190565b6000821982111561568e5761568e615574565b500190565b60008160001904831182151516156156ad576156ad615574565b500290565b634e487b7160e01b600052601260045260246000fd5b6000826156d7576156d76156b2565b500490565b6000806000806000806000806000806000806101808d8f0312156156ff57600080fd5b8c5161570a81614da3565b60208e0151909c5061571b81614da3565b60408e015160608f0151919c509a5061573381614da3565b8099505060808d0151975060a08d0151965060c08d015161575381615475565b8096505060e08d015194506101008d015193506101208d015192506101408d015191506101608d015161578581615475565b809150509295989b509295989b509295989b565b6001600160a01b0384168152606060208083018290526000916157be90840186614f8b565b838103604085015284518082528286019183019060005b818110156157f1578351835292840192918401916001016157d5565b509098975050505050505050565b60006020828403121561581157600080fd5b5051919050565b6000823560fe1983360301811261582e57600080fd5b9190910192915050565b83815260406020820152816040820152818360608301376000818301606090810191909152601f909201601f1916010192915050565b60006001600160401b03831115615887576158876150df565b61589a601f8401601f19166020016150f5565b90508281528383830111156158ae57600080fd5b828260208301376000602084830101529392505050565b60006158d361516984615125565b80848252602080830192508560051b8501368111156158f157600080fd5b855b818110156159405780356001600160401b038111156159125760008081fd5b870136601f8201126159245760008081fd5b61593236823586840161586e565b8652509382019382016158f3565b50919695505050505050565b600061595a61516984615125565b80848252602080830192508560051b85013681111561597857600080fd5b855b818110156159405780356001600160401b038111156159995760008081fd5b870136601f8201126159ab5760008081fd5b6159b936823586840161586e565b86525093820193820161597a565b6000828210156159d9576159d9615574565b500390565b86815260208101869052841515604082015283151560608201526080810183905260c08101614c4a60a08301846154be565b821515815260408101610ece60208301846154be565b600082615a3557615a356156b2565b500690565b60008060008060808587031215615a5057600080fd5b505082516020840151604085015160609095015191969095509092509050565b600060208284031215615a8257600080fd5b8151610ece81615475565b634e487b7160e01b600052603160045260246000fd5b6000825161582e818460208701614dd556fea26469706673582212209a9e438cf9300fe6b8d038b51b957bcc1263edfa9bd5d0bd805d1febd0658f8a64736f6c634300080c0033",
  "linkReferences": {},
  "deployedLinkReferences": {}
}