{
  "_format": "hh-sol-artifact-1",
  "contractName": "ERC20Template3",
  "sourceName": "contracts/templates/ERC20Template3.sol",
  "abi": [
    {
      "anonymous": false,
      "inputs": [
        {
          "indexed": true,
          "internalType": "address",
          "name": "user",
          "type": "address"
        },
        {
          "indexed": true,
          "internalType": "address",
          "name": "signer",
          "type": "address"
        },
        {
          "indexed": false,
          "internalType": "uint256",
          "name": "timestamp",
          "type": "uint256"
        },
        {
          "indexed": false,
          "internalType": "uint256",
          "name": "blockNumber",
          "type": "uint256"
        }
      ],
      "name": "AddedMinter",
      "type": "event"
    },
    {
      "anonymous": false,
      "inputs": [
        {
          "indexed": true,
          "internalType": "address",
          "name": "user",
          "type": "address"
        },
        {
          "indexed": true,
          "internalType": "address",
          "name": "signer",
          "type": "address"
        },
        {
          "indexed": false,
          "internalType": "uint256",
          "name": "timestamp",
          "type": "uint256"
        },
        {
          "indexed": false,
          "internalType": "uint256",
          "name": "blockNumber",
          "type": "uint256"
        }
      ],
      "name": "AddedPaymentManager",
      "type": "event"
    },
    {
      "anonymous": false,
      "inputs": [
        {
          "indexed": true,
          "internalType": "address",
          "name": "owner",
          "type": "address"
        },
        {
          "indexed": true,
          "internalType": "address",
          "name": "spender",
          "type": "address"
        },
        {
          "indexed": false,
          "internalType": "uint256",
          "name": "value",
          "type": "uint256"
        }
      ],
      "name": "Approval",
      "type": "event"
    },
    {
      "anonymous": false,
      "inputs": [
        {
          "indexed": true,
          "internalType": "address",
          "name": "signer",
          "type": "address"
        },
        {
          "indexed": false,
          "internalType": "uint256",
          "name": "timestamp",
          "type": "uint256"
        },
        {
          "indexed": false,
          "internalType": "uint256",
          "name": "blockNumber",
          "type": "uint256"
        }
      ],
      "name": "CleanedPermissions",
      "type": "event"
    },
    {
      "anonymous": false,
      "inputs": [
        {
          "indexed": true,
          "internalType": "address",
          "name": "consumeMarketFeeAddress",
          "type": "address"
        },
        {
          "indexed": true,
          "internalType": "address",
          "name": "consumeMarketFeeToken",
          "type": "address"
        },
        {
          "indexed": false,
          "internalType": "uint256",
          "name": "consumeMarketFeeAmount",
          "type": "uint256"
        }
      ],
      "name": "ConsumeMarketFee",
      "type": "event"
    },
    {
      "anonymous": false,
      "inputs": [
        {
          "indexed": false,
          "internalType": "address",
          "name": "currentMinter",
          "type": "address"
        },
        {
          "indexed": false,
          "internalType": "address",
          "name": "newMinter",
          "type": "address"
        }
      ],
      "name": "MinterApproved",
      "type": "event"
    },
    {
      "anonymous": false,
      "inputs": [
        {
          "indexed": false,
          "internalType": "address",
          "name": "currentMinter",
          "type": "address"
        },
        {
          "indexed": false,
          "internalType": "address",
          "name": "newMinter",
          "type": "address"
        }
      ],
      "name": "MinterProposed",
      "type": "event"
    },
    {
      "anonymous": false,
      "inputs": [
        {
          "indexed": false,
          "internalType": "bytes32",
          "name": "exchangeId",
          "type": "bytes32"
        },
        {
          "indexed": true,
          "internalType": "address",
          "name": "owner",
          "type": "address"
        },
        {
          "indexed": false,
          "internalType": "address",
          "name": "exchangeContract",
          "type": "address"
        },
        {
          "indexed": true,
          "internalType": "address",
          "name": "baseToken",
          "type": "address"
        }
      ],
      "name": "NewFixedRate",
      "type": "event"
    },
    {
      "anonymous": false,
      "inputs": [
        {
          "indexed": true,
          "internalType": "address",
          "name": "caller",
          "type": "address"
        },
        {
          "indexed": true,
          "internalType": "address",
          "name": "_newPaymentCollector",
          "type": "address"
        },
        {
          "indexed": false,
          "internalType": "uint256",
          "name": "timestamp",
          "type": "uint256"
        },
        {
          "indexed": false,
          "internalType": "uint256",
          "name": "blockNumber",
          "type": "uint256"
        }
      ],
      "name": "NewPaymentCollector",
      "type": "event"
    },
    {
      "anonymous": false,
      "inputs": [
        {
          "indexed": true,
          "internalType": "address",
          "name": "user",
          "type": "address"
        },
        {
          "indexed": false,
          "internalType": "uint256",
          "name": "expires",
          "type": "uint256"
        },
        {
          "indexed": false,
          "internalType": "uint256",
          "name": "epoch",
          "type": "uint256"
        }
      ],
      "name": "NewSubscription",
      "type": "event"
    },
    {
      "anonymous": false,
      "inputs": [
        {
          "indexed": true,
          "internalType": "address",
          "name": "consumer",
          "type": "address"
        },
        {
          "indexed": false,
          "internalType": "address",
          "name": "payer",
          "type": "address"
        },
        {
          "indexed": false,
          "internalType": "uint256",
          "name": "amount",
          "type": "uint256"
        },
        {
          "indexed": false,
          "internalType": "uint256",
          "name": "serviceIndex",
          "type": "uint256"
        },
        {
          "indexed": false,
          "internalType": "uint256",
          "name": "timestamp",
          "type": "uint256"
        },
        {
          "indexed": true,
          "internalType": "address",
          "name": "publishMarketAddress",
          "type": "address"
        },
        {
          "indexed": false,
          "internalType": "uint256",
          "name": "blockNumber",
          "type": "uint256"
        }
      ],
      "name": "OrderStarted",
      "type": "event"
    },
    {
      "anonymous": false,
      "inputs": [
        {
          "indexed": true,
          "internalType": "address",
          "name": "predictoor",
          "type": "address"
        },
        {
          "indexed": true,
          "internalType": "uint256",
          "name": "slot",
          "type": "uint256"
        },
        {
          "indexed": false,
          "internalType": "uint256",
          "name": "stake",
          "type": "uint256"
        },
        {
          "indexed": false,
          "internalType": "uint256",
          "name": "payout",
          "type": "uint256"
        },
        {
          "indexed": false,
          "internalType": "bool",
          "name": "predictedValue",
          "type": "bool"
        },
        {
          "indexed": false,
          "internalType": "bool",
          "name": "trueValue",
          "type": "bool"
        },
        {
          "indexed": false,
          "internalType": "uint256",
          "name": "aggregatedPredictedValue",
          "type": "uint256"
        },
        {
          "indexed": false,
          "internalType": "enum ERC20Template3.Status",
          "name": "status",
          "type": "uint8"
        }
      ],
      "name": "PredictionPayout",
      "type": "event"
    },
    {
      "anonymous": false,
      "inputs": [
        {
          "indexed": true,
          "internalType": "address",
          "name": "predictoor",
          "type": "address"
        },
        {
          "indexed": true,
          "internalType": "uint256",
          "name": "slot",
          "type": "uint256"
        },
        {
          "indexed": false,
          "internalType": "uint256",
          "name": "stake",
          "type": "uint256"
        }
      ],
      "name": "PredictionSubmitted",
      "type": "event"
    },
    {
      "anonymous": false,
      "inputs": [
        {
          "indexed": true,
          "internalType": "address",
          "name": "PublishMarketFeeAddress",
          "type": "address"
        },
        {
          "indexed": true,
          "internalType": "address",
          "name": "PublishMarketFeeToken",
          "type": "address"
        },
        {
          "indexed": false,
          "internalType": "uint256",
          "name": "PublishMarketFeeAmount",
          "type": "uint256"
        }
      ],
      "name": "PublishMarketFee",
      "type": "event"
    },
    {
      "anonymous": false,
      "inputs": [
        {
          "indexed": false,
          "internalType": "address",
          "name": "caller",
          "type": "address"
        },
        {
          "indexed": false,
          "internalType": "address",
          "name": "PublishMarketFeeAddress",
          "type": "address"
        },
        {
          "indexed": false,
          "internalType": "address",
          "name": "PublishMarketFeeToken",
          "type": "address"
        },
        {
          "indexed": false,
          "internalType": "uint256",
          "name": "PublishMarketFeeAmount",
          "type": "uint256"
        }
      ],
      "name": "PublishMarketFeeChanged",
      "type": "event"
    },
    {
      "anonymous": false,
      "inputs": [
        {
          "indexed": true,
          "internalType": "address",
          "name": "user",
          "type": "address"
        },
        {
          "indexed": true,
          "internalType": "address",
          "name": "signer",
          "type": "address"
        },
        {
          "indexed": false,
          "internalType": "uint256",
          "name": "timestamp",
          "type": "uint256"
        },
        {
          "indexed": false,
          "internalType": "uint256",
          "name": "blockNumber",
          "type": "uint256"
        }
      ],
      "name": "RemovedMinter",
      "type": "event"
    },
    {
      "anonymous": false,
      "inputs": [
        {
          "indexed": true,
          "internalType": "address",
          "name": "user",
          "type": "address"
        },
        {
          "indexed": true,
          "internalType": "address",
          "name": "signer",
          "type": "address"
        },
        {
          "indexed": false,
          "internalType": "uint256",
          "name": "timestamp",
          "type": "uint256"
        },
        {
          "indexed": false,
          "internalType": "uint256",
          "name": "blockNumber",
          "type": "uint256"
        }
      ],
      "name": "RemovedPaymentManager",
      "type": "event"
    },
    {
      "anonymous": false,
      "inputs": [
        {
          "indexed": false,
          "internalType": "uint256",
          "name": "totalAmount",
          "type": "uint256"
        },
        {
          "indexed": false,
          "internalType": "uint256",
          "name": "slot",
          "type": "uint256"
        },
        {
          "indexed": false,
          "internalType": "uint256",
          "name": "amountPerEpoch",
          "type": "uint256"
        },
        {
          "indexed": false,
          "internalType": "uint256",
          "name": "numEpochs",
          "type": "uint256"
        },
        {
          "indexed": false,
          "internalType": "uint256",
          "name": "secondsPerEpoch",
          "type": "uint256"
        }
      ],
      "name": "RevenueAdded",
      "type": "event"
    },
    {
      "anonymous": false,
      "inputs": [
        {
          "indexed": false,
          "internalType": "uint256",
          "name": "secondsPerEpoch",
          "type": "uint256"
        },
        {
          "indexed": false,
          "internalType": "uint256",
          "name": "secondsPerSubscription",
          "type": "uint256"
        },
        {
          "indexed": false,
          "internalType": "uint256",
          "name": "trueValueSubmitTimeout",
          "type": "uint256"
        },
        {
          "indexed": false,
          "internalType": "address",
          "name": "stakeToken",
          "type": "address"
        }
      ],
      "name": "SettingChanged",
      "type": "event"
    },
    {
      "anonymous": false,
      "inputs": [
        {
          "indexed": true,
          "internalType": "address",
          "name": "from",
          "type": "address"
        },
        {
          "indexed": true,
          "internalType": "address",
          "name": "to",
          "type": "address"
        },
        {
          "indexed": false,
          "internalType": "uint256",
          "name": "value",
          "type": "uint256"
        }
      ],
      "name": "Transfer",
      "type": "event"
    },
    {
      "anonymous": false,
      "inputs": [
        {
          "indexed": true,
          "internalType": "uint256",
          "name": "slot",
          "type": "uint256"
        },
        {
          "indexed": false,
          "internalType": "bool",
          "name": "trueValue",
          "type": "bool"
        },
        {
          "indexed": false,
          "internalType": "uint256",
          "name": "floatValue",
          "type": "uint256"
        },
        {
          "indexed": false,
          "internalType": "enum ERC20Template3.Status",
          "name": "status",
          "type": "uint8"
        }
      ],
      "name": "TruevalSubmitted",
      "type": "event"
    },
    {
      "stateMutability": "payable",
      "type": "fallback"
    },
    {
      "inputs": [],
      "name": "BASE",
      "outputs": [
        {
          "internalType": "uint256",
          "name": "",
          "type": "uint256"
        }
      ],
      "stateMutability": "view",
      "type": "function"
    },
    {
      "inputs": [],
      "name": "DOMAIN_SEPARATOR",
      "outputs": [
        {
          "internalType": "bytes32",
          "name": "",
          "type": "bytes32"
        }
      ],
      "stateMutability": "view",
      "type": "function"
    },
    {
      "inputs": [],
      "name": "PERMIT_TYPEHASH",
      "outputs": [
        {
          "internalType": "bytes32",
          "name": "",
          "type": "bytes32"
        }
      ],
      "stateMutability": "view",
      "type": "function"
    },
    {
      "inputs": [
        {
          "internalType": "address",
          "name": "owner",
          "type": "address"
        },
        {
          "internalType": "address",
          "name": "spender",
          "type": "address"
        }
      ],
      "name": "allowance",
      "outputs": [
        {
          "internalType": "uint256",
          "name": "",
          "type": "uint256"
        }
      ],
      "stateMutability": "view",
      "type": "function"
    },
    {
      "inputs": [
        {
          "internalType": "address",
          "name": "spender",
          "type": "address"
        },
        {
          "internalType": "uint256",
          "name": "amount",
          "type": "uint256"
        }
      ],
      "name": "approve",
      "outputs": [
        {
          "internalType": "bool",
          "name": "",
          "type": "bool"
        }
      ],
      "stateMutability": "nonpayable",
      "type": "function"
    },
    {
      "inputs": [
        {
          "internalType": "uint256",
          "name": "",
          "type": "uint256"
        }
      ],
      "name": "authERC20",
      "outputs": [
        {
          "internalType": "address",
          "name": "",
          "type": "address"
        }
      ],
      "stateMutability": "view",
      "type": "function"
    },
    {
      "inputs": [
        {
          "internalType": "address",
          "name": "account",
          "type": "address"
        }
      ],
      "name": "balanceOf",
      "outputs": [
        {
          "internalType": "uint256",
          "name": "",
          "type": "uint256"
        }
      ],
      "stateMutability": "view",
      "type": "function"
    },
    {
      "inputs": [
        {
          "internalType": "uint256",
          "name": "amount",
          "type": "uint256"
        }
      ],
      "name": "burn",
      "outputs": [],
      "stateMutability": "nonpayable",
      "type": "function"
    },
    {
      "inputs": [
        {
          "internalType": "address",
          "name": "account",
          "type": "address"
        },
        {
          "internalType": "uint256",
          "name": "amount",
          "type": "uint256"
        }
      ],
      "name": "burnFrom",
      "outputs": [],
      "stateMutability": "nonpayable",
      "type": "function"
    },
    {
      "inputs": [
        {
          "components": [
            {
              "internalType": "address",
              "name": "consumer",
              "type": "address"
            },
            {
              "internalType": "uint256",
              "name": "serviceIndex",
              "type": "uint256"
            },
            {
              "components": [
                {
                  "internalType": "address",
                  "name": "providerFeeAddress",
                  "type": "address"
                },
                {
                  "internalType": "address",
                  "name": "providerFeeToken",
                  "type": "address"
                },
                {
                  "internalType": "uint256",
                  "name": "providerFeeAmount",
                  "type": "uint256"
                },
                {
                  "internalType": "uint8",
                  "name": "v",
                  "type": "uint8"
                },
                {
                  "internalType": "bytes32",
                  "name": "r",
                  "type": "bytes32"
                },
                {
                  "internalType": "bytes32",
                  "name": "s",
                  "type": "bytes32"
                },
                {
                  "internalType": "uint256",
                  "name": "validUntil",
                  "type": "uint256"
                },
                {
                  "internalType": "bytes",
                  "name": "providerData",
                  "type": "bytes"
                }
              ],
              "internalType": "struct ERC20Template3.providerFee",
              "name": "_providerFee",
              "type": "tuple"
            },
            {
              "components": [
                {
                  "internalType": "address",
                  "name": "consumeMarketFeeAddress",
                  "type": "address"
                },
                {
                  "internalType": "address",
                  "name": "consumeMarketFeeToken",
                  "type": "address"
                },
                {
                  "internalType": "uint256",
                  "name": "consumeMarketFeeAmount",
                  "type": "uint256"
                }
              ],
              "internalType": "struct ERC20Template3.consumeMarketFee",
              "name": "_consumeMarketFee",
              "type": "tuple"
            }
          ],
          "internalType": "struct ERC20Template3.OrderParams",
          "name": "_orderParams",
          "type": "tuple"
        },
        {
          "components": [
            {
              "internalType": "address",
              "name": "exchangeContract",
              "type": "address"
            },
            {
              "internalType": "bytes32",
              "name": "exchangeId",
              "type": "bytes32"
            },
            {
              "internalType": "uint256",
              "name": "maxBaseTokenAmount",
              "type": "uint256"
            },
            {
              "internalType": "uint256",
              "name": "swapMarketFee",
              "type": "uint256"
            },
            {
              "internalType": "address",
              "name": "marketFeeAddress",
              "type": "address"
            }
          ],
          "internalType": "struct ERC20Template3.FreParams",
          "name": "_freParams",
          "type": "tuple"
        }
      ],
      "name": "buyFromFreAndOrder",
      "outputs": [],
      "stateMutability": "nonpayable",
      "type": "function"
    },
    {
      "inputs": [],
      "name": "cap",
      "outputs": [
        {
          "internalType": "uint256",
          "name": "",
          "type": "uint256"
        }
      ],
      "stateMutability": "view",
      "type": "function"
    },
    {
      "inputs": [],
      "name": "cleanFrom721",
      "outputs": [],
      "stateMutability": "nonpayable",
      "type": "function"
    },
    {
      "inputs": [],
      "name": "cleanPermissions",
      "outputs": [],
      "stateMutability": "nonpayable",
      "type": "function"
    },
    {
      "inputs": [
        {
          "internalType": "address",
          "name": "fixedPriceAddress",
          "type": "address"
        },
        {
          "internalType": "address[]",
          "name": "addresses",
          "type": "address[]"
        },
        {
          "internalType": "uint256[]",
          "name": "uints",
          "type": "uint256[]"
        }
      ],
      "name": "createFixedRate",
      "outputs": [
        {
          "internalType": "bytes32",
          "name": "exchangeId",
          "type": "bytes32"
        }
      ],
      "stateMutability": "nonpayable",
      "type": "function"
    },
    {
      "inputs": [],
      "name": "curEpoch",
      "outputs": [
        {
          "internalType": "uint256",
          "name": "",
          "type": "uint256"
        }
      ],
      "stateMutability": "view",
      "type": "function"
    },
    {
      "inputs": [],
      "name": "decimals",
      "outputs": [
        {
          "internalType": "uint8",
          "name": "",
          "type": "uint8"
        }
      ],
      "stateMutability": "pure",
      "type": "function"
    },
    {
      "inputs": [
        {
          "internalType": "address",
          "name": "spender",
          "type": "address"
        },
        {
          "internalType": "uint256",
          "name": "subtractedValue",
          "type": "uint256"
        }
      ],
      "name": "decreaseAllowance",
      "outputs": [
        {
          "internalType": "bool",
          "name": "",
          "type": "bool"
        }
      ],
      "stateMutability": "nonpayable",
      "type": "function"
    },
    {
      "inputs": [
        {
          "internalType": "uint256",
          "name": "",
          "type": "uint256"
        }
      ],
      "name": "epochStatus",
      "outputs": [
        {
          "internalType": "enum ERC20Template3.Status",
          "name": "",
          "type": "uint8"
        }
      ],
      "stateMutability": "view",
      "type": "function"
    },
    {
      "inputs": [],
      "name": "feeCollector",
      "outputs": [
        {
          "internalType": "address",
          "name": "",
          "type": "address"
        }
      ],
      "stateMutability": "view",
      "type": "function"
    },
    {
      "inputs": [
        {
          "internalType": "uint256",
          "name": "epoch_start",
          "type": "uint256"
        },
        {
          "components": [
            {
              "internalType": "address",
              "name": "userAddress",
              "type": "address"
            },
            {
              "internalType": "uint8",
              "name": "v",
              "type": "uint8"
            },
            {
              "internalType": "bytes32",
              "name": "r",
              "type": "bytes32"
            },
            {
              "internalType": "bytes32",
              "name": "s",
              "type": "bytes32"
            },
            {
              "internalType": "uint256",
              "name": "validUntil",
              "type": "uint256"
            }
          ],
          "internalType": "struct ERC20Template3.userAuth",
          "name": "_userAuth",
          "type": "tuple"
        }
      ],
      "name": "getAggPredval",
      "outputs": [
        {
          "internalType": "uint256",
          "name": "",
          "type": "uint256"
        },
        {
          "internalType": "uint256",
          "name": "",
          "type": "uint256"
        }
      ],
      "stateMutability": "view",
      "type": "function"
    },
    {
      "inputs": [],
      "name": "getDispensers",
      "outputs": [
        {
          "internalType": "address[]",
          "name": "",
          "type": "address[]"
        }
      ],
      "stateMutability": "view",
      "type": "function"
    },
    {
      "inputs": [],
      "name": "getERC721Address",
      "outputs": [
        {
          "internalType": "address",
          "name": "",
          "type": "address"
        }
      ],
      "stateMutability": "view",
      "type": "function"
    },
    {
      "inputs": [],
      "name": "getFixedRates",
      "outputs": [
        {
          "components": [
            {
              "internalType": "address",
              "name": "contractAddress",
              "type": "address"
            },
            {
              "internalType": "bytes32",
              "name": "id",
              "type": "bytes32"
            }
          ],
          "internalType": "struct ERC20Template3.fixedRate[]",
          "name": "",
          "type": "tuple[]"
        }
      ],
      "stateMutability": "view",
      "type": "function"
    },
    {
      "inputs": [],
      "name": "getId",
      "outputs": [
        {
          "internalType": "uint8",
          "name": "",
          "type": "uint8"
        }
      ],
      "stateMutability": "pure",
      "type": "function"
    },
    {
      "inputs": [],
      "name": "getPaymentCollector",
      "outputs": [
        {
          "internalType": "address",
          "name": "",
          "type": "address"
        }
      ],
      "stateMutability": "view",
      "type": "function"
    },
    {
      "inputs": [
        {
          "internalType": "address",
          "name": "user",
          "type": "address"
        }
      ],
      "name": "getPermissions",
      "outputs": [
        {
          "components": [
            {
              "internalType": "bool",
              "name": "minter",
              "type": "bool"
            },
            {
              "internalType": "bool",
              "name": "paymentManager",
              "type": "bool"
            }
          ],
          "internalType": "struct ERC20Roles.RolesERC20",
          "name": "",
          "type": "tuple"
        }
      ],
      "stateMutability": "view",
      "type": "function"
    },
    {
      "inputs": [
        {
          "internalType": "uint256",
          "name": "epoch_start",
          "type": "uint256"
        },
        {
          "internalType": "address",
          "name": "predictoor",
          "type": "address"
        },
        {
          "components": [
            {
              "internalType": "address",
              "name": "userAddress",
              "type": "address"
            },
            {
              "internalType": "uint8",
              "name": "v",
              "type": "uint8"
            },
            {
              "internalType": "bytes32",
              "name": "r",
              "type": "bytes32"
            },
            {
              "internalType": "bytes32",
              "name": "s",
              "type": "bytes32"
            },
            {
              "internalType": "uint256",
              "name": "validUntil",
              "type": "uint256"
            }
          ],
          "internalType": "struct ERC20Template3.userAuth",
          "name": "_userAuth",
          "type": "tuple"
        }
      ],
      "name": "getPrediction",
      "outputs": [
        {
          "components": [
            {
              "internalType": "bool",
              "name": "predictedValue",
              "type": "bool"
            },
            {
              "internalType": "uint256",
              "name": "stake",
              "type": "uint256"
            },
            {
              "internalType": "address",
              "name": "predictoor",
              "type": "address"
            },
            {
              "internalType": "bool",
              "name": "paid",
              "type": "bool"
            }
          ],
          "internalType": "struct ERC20Template3.Prediction",
          "name": "prediction",
          "type": "tuple"
        }
      ],
      "stateMutability": "view",
      "type": "function"
    },
    {
      "inputs": [],
      "name": "getPublishingMarketFee",
      "outputs": [
        {
          "internalType": "address",
          "name": "",
          "type": "address"
        },
        {
          "internalType": "address",
          "name": "",
          "type": "address"
        },
        {
          "internalType": "uint256",
          "name": "",
          "type": "uint256"
        }
      ],
      "stateMutability": "view",
      "type": "function"
    },
    {
      "inputs": [
        {
          "internalType": "uint256",
          "name": "epoch_start",
          "type": "uint256"
        }
      ],
      "name": "getsubscriptionRevenueAtEpoch",
      "outputs": [
        {
          "internalType": "uint256",
          "name": "",
          "type": "uint256"
        }
      ],
      "stateMutability": "view",
      "type": "function"
    },
    {
      "inputs": [
        {
          "internalType": "address",
          "name": "spender",
          "type": "address"
        },
        {
          "internalType": "uint256",
          "name": "addedValue",
          "type": "uint256"
        }
      ],
      "name": "increaseAllowance",
      "outputs": [
        {
          "internalType": "bool",
          "name": "",
          "type": "bool"
        }
      ],
      "stateMutability": "nonpayable",
      "type": "function"
    },
    {
      "inputs": [
        {
          "internalType": "string[]",
          "name": "strings_",
          "type": "string[]"
        },
        {
          "internalType": "address[]",
          "name": "addresses_",
          "type": "address[]"
        },
        {
          "internalType": "address[]",
          "name": "factoryAddresses_",
          "type": "address[]"
        },
        {
          "internalType": "uint256[]",
          "name": "uints_",
          "type": "uint256[]"
        },
        {
          "internalType": "bytes[]",
          "name": "bytes_",
          "type": "bytes[]"
        }
      ],
      "name": "initialize",
      "outputs": [
        {
          "internalType": "bool",
          "name": "",
          "type": "bool"
        }
      ],
      "stateMutability": "nonpayable",
      "type": "function"
    },
    {
      "inputs": [
        {
          "internalType": "address",
          "name": "user",
          "type": "address"
        }
      ],
      "name": "isERC20Deployer",
      "outputs": [
        {
          "internalType": "bool",
          "name": "",
          "type": "bool"
        }
      ],
      "stateMutability": "view",
      "type": "function"
    },
    {
      "inputs": [],
      "name": "isInitialized",
      "outputs": [
        {
          "internalType": "bool",
          "name": "",
          "type": "bool"
        }
      ],
      "stateMutability": "view",
      "type": "function"
    },
    {
      "inputs": [
        {
          "internalType": "address",
          "name": "account",
          "type": "address"
        }
      ],
      "name": "isMinter",
      "outputs": [
        {
          "internalType": "bool",
          "name": "",
          "type": "bool"
        }
      ],
      "stateMutability": "view",
      "type": "function"
    },
    {
      "inputs": [
        {
          "internalType": "address",
          "name": "user",
          "type": "address"
        }
      ],
      "name": "isValidSubscription",
      "outputs": [
        {
          "internalType": "bool",
          "name": "",
          "type": "bool"
        }
      ],
      "stateMutability": "view",
      "type": "function"
    },
    {
      "inputs": [
        {
          "internalType": "address",
          "name": "account",
          "type": "address"
        },
        {
          "internalType": "uint256",
          "name": "value",
          "type": "uint256"
        }
      ],
      "name": "mint",
      "outputs": [],
      "stateMutability": "nonpayable",
      "type": "function"
    },
    {
      "inputs": [],
      "name": "name",
      "outputs": [
        {
          "internalType": "string",
          "name": "",
          "type": "string"
        }
      ],
      "stateMutability": "view",
      "type": "function"
    },
    {
      "inputs": [
        {
          "internalType": "address",
          "name": "",
          "type": "address"
        }
      ],
      "name": "nonces",
      "outputs": [
        {
          "internalType": "uint256",
          "name": "",
          "type": "uint256"
        }
      ],
      "stateMutability": "view",
      "type": "function"
    },
    {
      "inputs": [],
      "name": "pausePredictions",
      "outputs": [],
      "stateMutability": "nonpayable",
      "type": "function"
    },
    {
      "inputs": [],
      "name": "paused",
      "outputs": [
        {
          "internalType": "bool",
          "name": "",
          "type": "bool"
        }
      ],
      "stateMutability": "view",
      "type": "function"
    },
    {
      "inputs": [
        {
          "internalType": "uint256",
          "name": "epoch_start",
          "type": "uint256"
        },
        {
          "internalType": "address",
          "name": "predictoor_addr",
          "type": "address"
        }
      ],
      "name": "payout",
      "outputs": [],
      "stateMutability": "nonpayable",
      "type": "function"
    },
    {
      "inputs": [
        {
          "internalType": "uint256[]",
          "name": "blocknums",
          "type": "uint256[]"
        },
        {
          "internalType": "address",
          "name": "predictoor_addr",
          "type": "address"
        }
      ],
      "name": "payoutMultiple",
      "outputs": [],
      "stateMutability": "nonpayable",
      "type": "function"
    },
    {
      "inputs": [
        {
          "internalType": "address",
          "name": "",
          "type": "address"
        }
      ],
      "name": "permissions",
      "outputs": [
        {
          "internalType": "bool",
          "name": "minter",
          "type": "bool"
        },
        {
          "internalType": "bool",
          "name": "paymentManager",
          "type": "bool"
        }
      ],
      "stateMutability": "view",
      "type": "function"
    },
    {
      "inputs": [
        {
          "internalType": "uint256",
          "name": "epoch_start",
          "type": "uint256"
        }
      ],
      "name": "redeemUnusedSlotRevenue",
      "outputs": [],
      "stateMutability": "nonpayable",
      "type": "function"
    },
    {
      "inputs": [
        {
          "internalType": "address",
          "name": "_minter",
          "type": "address"
        }
      ],
      "name": "removeMinter",
      "outputs": [],
      "stateMutability": "nonpayable",
      "type": "function"
    },
    {
      "inputs": [],
      "name": "router",
      "outputs": [
        {
          "internalType": "address",
          "name": "",
          "type": "address"
        }
      ],
      "stateMutability": "view",
      "type": "function"
    },
    {
      "inputs": [],
      "name": "secondsPerEpoch",
      "outputs": [
        {
          "internalType": "uint256",
          "name": "",
          "type": "uint256"
        }
      ],
      "stateMutability": "view",
      "type": "function"
    },
    {
      "inputs": [],
      "name": "secondsPerSubscription",
      "outputs": [
        {
          "internalType": "uint256",
          "name": "",
          "type": "uint256"
        }
      ],
      "stateMutability": "view",
      "type": "function"
    },
    {
      "inputs": [
        {
          "internalType": "address",
          "name": "_newFeeCollector",
          "type": "address"
        }
      ],
      "name": "setFeeCollector",
      "outputs": [],
      "stateMutability": "nonpayable",
      "type": "function"
    },
    {
      "inputs": [
        {
          "internalType": "address",
          "name": "_newPaymentCollector",
          "type": "address"
        }
      ],
      "name": "setPaymentCollector",
      "outputs": [],
      "stateMutability": "nonpayable",
      "type": "function"
    },
    {
      "inputs": [
        {
          "internalType": "address",
          "name": "_publishMarketFeeAddress",
          "type": "address"
        },
        {
          "internalType": "address",
          "name": "_publishMarketFeeToken",
          "type": "address"
        },
        {
          "internalType": "uint256",
          "name": "_publishMarketFeeAmount",
          "type": "uint256"
        }
      ],
      "name": "setPublishingMarketFee",
      "outputs": [],
      "stateMutability": "nonpayable",
      "type": "function"
    },
    {
      "inputs": [
        {
          "internalType": "uint256",
          "name": "prediction_ts",
          "type": "uint256"
        }
      ],
      "name": "soonestEpochToPredict",
      "outputs": [
        {
          "internalType": "uint256",
          "name": "",
          "type": "uint256"
        }
      ],
      "stateMutability": "view",
      "type": "function"
    },
    {
      "inputs": [],
      "name": "stakeToken",
      "outputs": [
        {
          "internalType": "address",
          "name": "",
          "type": "address"
        }
      ],
      "stateMutability": "view",
      "type": "function"
    },
    {
      "inputs": [
        {
          "internalType": "address",
          "name": "consumer",
          "type": "address"
        },
        {
          "internalType": "uint256",
          "name": "serviceIndex",
          "type": "uint256"
        },
        {
          "components": [
            {
              "internalType": "address",
              "name": "providerFeeAddress",
              "type": "address"
            },
            {
              "internalType": "address",
              "name": "providerFeeToken",
              "type": "address"
            },
            {
              "internalType": "uint256",
              "name": "providerFeeAmount",
              "type": "uint256"
            },
            {
              "internalType": "uint8",
              "name": "v",
              "type": "uint8"
            },
            {
              "internalType": "bytes32",
              "name": "r",
              "type": "bytes32"
            },
            {
              "internalType": "bytes32",
              "name": "s",
              "type": "bytes32"
            },
            {
              "internalType": "uint256",
              "name": "validUntil",
              "type": "uint256"
            },
            {
              "internalType": "bytes",
              "name": "providerData",
              "type": "bytes"
            }
          ],
          "internalType": "struct ERC20Template3.providerFee",
          "name": "_providerFee",
          "type": "tuple"
        },
        {
          "components": [
            {
              "internalType": "address",
              "name": "consumeMarketFeeAddress",
              "type": "address"
            },
            {
              "internalType": "address",
              "name": "consumeMarketFeeToken",
              "type": "address"
            },
            {
              "internalType": "uint256",
              "name": "consumeMarketFeeAmount",
              "type": "uint256"
            }
          ],
          "internalType": "struct ERC20Template3.consumeMarketFee",
          "name": "_consumeMarketFee",
          "type": "tuple"
        }
      ],
      "name": "startOrder",
      "outputs": [],
      "stateMutability": "nonpayable",
      "type": "function"
    },
    {
      "inputs": [
        {
          "internalType": "bool",
          "name": "predictedValue",
          "type": "bool"
        },
        {
          "internalType": "uint256",
          "name": "stake",
          "type": "uint256"
        },
        {
          "internalType": "uint256",
          "name": "epoch_start",
          "type": "uint256"
        }
      ],
      "name": "submitPredval",
      "outputs": [],
      "stateMutability": "nonpayable",
      "type": "function"
    },
    {
      "inputs": [
        {
          "internalType": "uint256",
          "name": "epoch_start",
          "type": "uint256"
        },
        {
          "internalType": "bool",
          "name": "trueValue",
          "type": "bool"
        },
        {
          "internalType": "uint256",
          "name": "floatValue",
          "type": "uint256"
        },
        {
          "internalType": "bool",
          "name": "cancelRound",
          "type": "bool"
        }
      ],
      "name": "submitTrueVal",
      "outputs": [],
      "stateMutability": "nonpayable",
      "type": "function"
    },
    {
      "inputs": [
        {
          "internalType": "uint256",
          "name": "epoch_start",
          "type": "uint256"
        },
        {
          "internalType": "address",
          "name": "predictoor",
          "type": "address"
        }
      ],
      "name": "submittedPredval",
      "outputs": [
        {
          "internalType": "bool",
          "name": "",
          "type": "bool"
        }
      ],
      "stateMutability": "view",
      "type": "function"
    },
    {
      "inputs": [
        {
          "internalType": "address",
          "name": "",
          "type": "address"
        }
      ],
      "name": "subscriptions",
      "outputs": [
        {
          "internalType": "address",
          "name": "user",
          "type": "address"
        },
        {
          "internalType": "uint256",
          "name": "expires",
          "type": "uint256"
        }
      ],
      "stateMutability": "view",
      "type": "function"
    },
    {
      "inputs": [],
      "name": "symbol",
      "outputs": [
        {
          "internalType": "string",
          "name": "",
          "type": "string"
        }
      ],
      "stateMutability": "view",
      "type": "function"
    },
    {
      "inputs": [
        {
          "internalType": "uint256",
          "name": "_timestamp",
          "type": "uint256"
        }
      ],
      "name": "toEpochStart",
      "outputs": [
        {
          "internalType": "uint256",
          "name": "",
          "type": "uint256"
        }
      ],
      "stateMutability": "view",
      "type": "function"
    },
    {
      "inputs": [],
      "name": "totalSupply",
      "outputs": [
        {
          "internalType": "uint256",
          "name": "",
          "type": "uint256"
        }
      ],
      "stateMutability": "view",
      "type": "function"
    },
    {
      "inputs": [
        {
          "internalType": "address",
          "name": "to",
          "type": "address"
        },
        {
          "internalType": "uint256",
          "name": "amount",
          "type": "uint256"
        }
      ],
      "name": "transfer",
      "outputs": [
        {
          "internalType": "bool",
          "name": "",
          "type": "bool"
        }
      ],
      "stateMutability": "nonpayable",
      "type": "function"
    },
    {
      "inputs": [
        {
          "internalType": "address",
          "name": "from",
          "type": "address"
        },
        {
          "internalType": "address",
          "name": "to",
          "type": "address"
        },
        {
          "internalType": "uint256",
          "name": "amount",
          "type": "uint256"
        }
      ],
      "name": "transferFrom",
      "outputs": [
        {
          "internalType": "bool",
          "name": "",
          "type": "bool"
        }
      ],
      "stateMutability": "nonpayable",
      "type": "function"
    },
    {
      "inputs": [],
      "name": "trueValSubmitTimeout",
      "outputs": [
        {
          "internalType": "uint256",
          "name": "",
          "type": "uint256"
        }
      ],
      "stateMutability": "view",
      "type": "function"
    },
    {
      "inputs": [
        {
          "internalType": "uint256",
          "name": "",
          "type": "uint256"
        }
      ],
      "name": "trueValues",
      "outputs": [
        {
          "internalType": "bool",
          "name": "",
          "type": "bool"
        }
      ],
      "stateMutability": "view",
      "type": "function"
    },
    {
      "inputs": [
        {
          "internalType": "uint256",
          "name": "s_per_subscription",
          "type": "uint256"
        },
        {
          "internalType": "uint256",
          "name": "_truval_submit_timeout",
          "type": "uint256"
        }
      ],
      "name": "updateSeconds",
      "outputs": [],
      "stateMutability": "nonpayable",
      "type": "function"
    },
    {
      "inputs": [],
      "name": "withdrawETH",
      "outputs": [],
      "stateMutability": "payable",
      "type": "function"
    },
    {
      "stateMutability": "payable",
      "type": "receive"
    }
  ],
  "bytecode": "0x6080604052600b805460ff199081169091556000601055601d805490911690553480156200002c57600080fd5b5060408051808201825260048152631d195cdd60e21b60208083019182528351808501909452600a8452691d195cdd14de5b589bdb60b21b9084015281519192916200007b916003916200009f565b508051620000919060049060208401906200009f565b505060016007555062000182565b828054620000ad9062000145565b90600052602060002090601f016020900481019282620000d157600085556200011c565b82601f10620000ec57805160ff19168380011785556200011c565b828001600101855582156200011c579182015b828111156200011c578251825591602001919060010190620000ff565b506200012a9291506200012e565b5090565b5b808211156200012a57600081556001016200012f565b600181811c908216806200015a57607f821691505b602082108114156200017c57634e487b7160e01b600052602260045260246000fd5b50919050565b615d5880620001926000396000f3fe6080604052600436106103cd5760003560e01c806379d9d7f3116101fb578063b3998be011610117578063e487c2e8116100a5578063f068205411610077578063f068205414610d14578063f778f83414610d2a578063f887ea4014610d4a578063f9aa6e0f14610d6a578063fc913bed14610da757005b8063e487c2e814610c66578063ec342ad014610c79578063ef867ff414610c95578063f046395a14610cb557005b8063be95e01a116100e9578063be95e01a14610be9578063c415b95c14610c09578063d888731514610c29578063dd62ed3e14610c3e578063e086e5ec14610c5e57005b8063b3998be014610b6e578063b664fac814610b8e578063b6f421b614610ba3578063bccd741314610bd357005b8063a457c2d711610194578063aa271e1a11610166578063aa271e1a14610aa0578063aa6920e314610ad9578063ab62f0e114610b0e578063ad5f190314610b2e578063b0cb3eab14610b4e57005b8063a457c2d714610a2a578063a796344314610a4a578063a8c09b0b14610a60578063a9059cbb14610a8057005b80638b96412b116101cd5780638b96412b1461097557806395d89b411461099557806396fb3eaf146109aa5780639bd0f27a146109ca57005b806379d9d7f3146108f15780637dda231e146109115780637ecebe001461093357806382c03da51461096057005b8063392e53cd116102ea57806351ed6a30116102835780635c975abb116102555780635c975abb1461084d5780635d1ca6311461086757806363ed17fe1461087b57806370a082311461089b57806379cc6790146108d157005b806351ed6a30146107cf5780635487c577146107ef57806357a3a31b1461080f57806357ad5ff61461082d57005b806342966c68116102bc57806342966c68146107585780634598d7801461077857806347ac7d55146107985780634f189cb2146107ba57005b8063392e53cd146106c457806339509351146106dc578063397b3743146106fc57806340c10f191461073857005b806323b872dd116103675780633092afd5116103395780633092afd51461062357806330adf81f14610643578063313ce56714610677578063355274ea146106995780633644e515146106ae57005b806323b872dd146105a357806324e7fdda146105c357806327e62483146105e35780632cdf2e261461060357005b80630b83c417116103a05780630b83c417146104b45780630f58ff95146104e2578063160a79251461050257806318160ddd1461058e57005b80627ffb78146103d657806301e882081461041257806306fdde0314610462578063095ea7b31461048457005b366103d457005b005b3480156103e257600080fd5b50600b5461010090046001600160a01b03165b6040516001600160a01b0390911681526020015b60405180910390f35b34801561041e57600080fd5b5061044b61042d366004614ff9565b60056020526000908152604090205460ff8082169161010090041682565b604080519215158352901515602083015201610409565b34801561046e57600080fd5b50610477610dc7565b6040516104099190615042565b34801561049057600080fd5b506104a461049f366004615075565b610e59565b6040519015158152602001610409565b3480156104c057600080fd5b506104d46104cf3660046150a1565b610e73565b604051908152602001610409565b3480156104ee57600080fd5b506103d46104fd366004615105565b610e95565b34801561050e57600080fd5b5061056f61051d366004614ff9565b6040805180820190915260008082526020820152506001600160a01b031660009081526005602090815260409182902082518084019093525460ff808216151584526101009091041615159082015290565b6040805182511515815260209283015115159281019290925201610409565b34801561059a57600080fd5b506002546104d4565b3480156105af57600080fd5b506104a46105be36600461515b565b610eda565b3480156105cf57600080fd5b506104a46105de36600461519c565b610f00565b3480156105ef57600080fd5b506103d46105fe3660046150a1565b610f3f565b34801561060f57600080fd5b506103d461061e3660046151da565b611117565b34801561062f57600080fd5b506103d461063e366004614ff9565b6114bc565b34801561064f57600080fd5b506104d47f6e71edae12b1b97f4d1f60370fef10105fa2faae0126114a169c64845d6126c981565b34801561068357600080fd5b5060125b60405160ff9091168152602001610409565b3480156106a557600080fd5b50600a546104d4565b3480156106ba57600080fd5b506104d4601e5481565b3480156106d057600080fd5b50600b5460ff166104a4565b3480156106e857600080fd5b506104a46106f7366004615075565b6115d8565b34801561070857600080fd5b50600d54600e54600f54604080516001600160a01b03948516815293909216602084015290820152606001610409565b34801561074457600080fd5b506103d4610753366004615075565b6115fa565b34801561076457600080fd5b506103d46107733660046150a1565b6116c7565b34801561078457600080fd5b506104d46107933660046150a1565b6116d1565b3480156107a457600080fd5b506107ad6116f5565b6040516104099190615268565b3480156107c657600080fd5b506103d4611756565b3480156107db57600080fd5b50601a546103f5906001600160a01b031681565b3480156107fb57600080fd5b506104d461080a3660046150a1565b611831565b34801561081b57600080fd5b506103d461082a366004614ff9565b50565b34801561083957600080fd5b506103d461084836600461515b565b611841565b34801561085957600080fd5b50601d546104a49060ff1681565b34801561087357600080fd5b506003610687565b34801561088757600080fd5b506103d461089636600461527b565b6119fa565b3480156108a757600080fd5b506104d46108b6366004614ff9565b6001600160a01b031660009081526020819052604090205490565b3480156108dd57600080fd5b506103d46108ec366004615075565b611b1f565b3480156108fd57600080fd5b506103d461090c3660046152a7565b611b34565b34801561091d57600080fd5b50610926611fdb565b6040516104099190615320565b34801561093f57600080fd5b506104d461094e366004614ff9565b601f6020526000908152604090205481565b34801561096c57600080fd5b506103d4612050565b34801561098157600080fd5b506104d461099036600461544c565b6120af565b3480156109a157600080fd5b50610477612563565b3480156109b657600080fd5b506104a46109c5366004614ff9565b612572565b3480156109d657600080fd5b506109ea6109e536600461519c565b6125f0565b6040516104099190815115158152602080830151908201526040808301516001600160a01b03169082015260609182015115159181019190915260800190565b348015610a3657600080fd5b506104a4610a45366004615075565b6126e3565b348015610a5657600080fd5b506104d4601b5481565b348015610a6c57600080fd5b506103d4610a7b366004615521565b612769565b348015610a8c57600080fd5b506104a4610a9b366004615075565b6127c2565b348015610aac57600080fd5b506104a4610abb366004614ff9565b6001600160a01b031660009081526005602052604090205460ff1690565b348015610ae557600080fd5b50610af9610af43660046150a1565b6127d0565b60408051928352602083019190915201610409565b348015610b1a57600080fd5b506103d4610b2936600461557f565b61284b565b348015610b3a57600080fd5b506104a4610b493660046150a1565b612a06565b348015610b5a57600080fd5b506104d4610b693660046150a1565b612a19565b348015610b7a57600080fd5b506104a4610b893660046155f0565b612a3a565b348015610b9a57600080fd5b506103d4612b6d565b348015610baf57600080fd5b506104a4610bbe3660046150a1565b60146020526000908152604090205460ff1681565b348015610bdf57600080fd5b506104d4601c5481565b348015610bf557600080fd5b506103d4610c0436600461519c565b612c94565b348015610c1557600080fd5b506018546103f5906001600160a01b031681565b348015610c3557600080fd5b506104d4612ff3565b348015610c4a57600080fd5b506104d4610c593660046156e0565b613003565b6103d461302e565b348015610c7257600080fd5b50306103f5565b348015610c8557600080fd5b506104d4670de0b6b3a764000081565b348015610ca157600080fd5b506103f5610cb03660046150a1565b61305a565b348015610cc157600080fd5b50610cf5610cd0366004614ff9565b601760205260009081526040902080546001909101546001600160a01b039091169082565b604080516001600160a01b039093168352602083019190915201610409565b348015610d2057600080fd5b506104d460195481565b348015610d3657600080fd5b506104a4610d45366004614ff9565b613084565b348015610d5657600080fd5b506020546103f5906001600160a01b031681565b348015610d7657600080fd5b50610d9a610d853660046150a1565b60156020526000908152604090205460ff1681565b6040516104099190615746565b348015610db357600080fd5b506103d4610dc2366004615754565b6130b6565b606060088054610dd690615789565b80601f0160208091040260200160405190810160405280929190818152602001828054610e0290615789565b8015610e4f5780601f10610e2457610100808354040283529160200191610e4f565b820191906000526020600020905b815481529060010190602001808311610e3257829003601f168201915b5050505050905090565b600033610e678185856132cd565b60019150505b92915050565b600080610e7f83612a19565b6000908152601660205260409020549392505050565b60005b82811015610ed457610ec2848483818110610eb557610eb56157c4565b9050602002013583612c94565b80610ecc816157f0565b915050610e98565b50505050565b600033610ee88582856133f1565b610ef3858585613465565b60019150505b9392505050565b600080610f0c84612a19565b60009081526011602090815260408083206001600160a01b03878116855292529091206002015416151591505092915050565b600b5460405163160a792560e01b81523360048201526101009091046001600160a01b03169063160a792590602401608060405180830381865afa158015610f8b573d6000803e3d6000fd5b505050506040513d601f19601f82011682018060405250810190610faf919061580b565b60200151806110365750600b546040516331a9108f60e11b815260016004820152339161010090046001600160a01b031690636352211e90602401602060405180830381865afa158015611007573d6000803e3d6000fd5b505050506040513d601f19601f8201168201806040525081019061102b919061588f565b6001600160a01b0316145b61105b5760405162461bcd60e51b8152600401611052906158ac565b60405180910390fd5b80431161106757600080fd5b600061107282612a19565b6000818152601360205260409020549091501561108e57600080fd5b6018546001600160a01b03166110e65760405162461bcd60e51b815260206004820152601d60248201527f43616e6e6f742073656e64206665657320746f206164647265737320300000006044820152606401611052565b601854600082815260166020526040902054601a54611113926001600160a01b0391821692911690613609565b5050565b600b5460405163160a792560e01b81523360048201526101009091046001600160a01b03169063160a792590602401608060405180830381865afa158015611163573d6000803e3d6000fd5b505050506040513d601f19601f82011682018060405250810190611187919061580b565b602001518061120e5750600b546040516331a9108f60e11b815260016004820152339161010090046001600160a01b031690636352211e90602401602060405180830381865afa1580156111df573d6000803e3d6000fd5b505050506040513d601f19601f82011682018060405250810190611203919061588f565b6001600160a01b0316145b61122a5760405162461bcd60e51b8152600401611052906158ac565b43841061126f5760405162461bcd60e51b81526020600482015260136024820152721d1bdbc819585c9b1e481d1bc81cdd589b5a5d606a1b6044820152606401611052565b600061127a85612a19565b90506000808281526015602052604090205460ff1660028111156112a0576112a061570e565b146112df5760405162461bcd60e51b815260206004820152600f60248201526e185b1c9958591e481cd95d1d1b1959608a1b6044820152606401611052565b81806113215750601c546112f390826158e1565b43118015611321575060008181526015602052604081205460ff16600281111561131f5761131f61570e565b145b15611344576000818152601560205260409020805460ff19166002179055611465565b6000818152601460209081526040808320805460ff199081168915151790915560158352818420805490911660011790556013909152902054158015906113cb575083801561139f5750600081815260126020526040902054155b806113cb5750831580156113cb5750600081815260136020908152604080832054601290925290912054145b15611465576018546001600160a01b03166114385760405162461bcd60e51b815260206004820152602760248201527f43616e6e6f742073656e6420736c6173686564207374616b657320746f2061646044820152660647265737320360cc1b6064820152608401611052565b601854600082815260136020526040902054601a54611465926001600160a01b0391821692911690613609565b6000818152601560205260409081902054905182917ff77048461eef01232e5d5a901c088f04c60951fe52551bb41e88ee0066dbbc51916114ad918891889160ff16906158f9565b60405180910390a25050505050565b600b5460405163160a792560e01b81523360048201526101009091046001600160a01b03169063160a792590602401608060405180830381865afa158015611508573d6000803e3d6000fd5b505050506040513d601f19601f8201168201806040525081019061152c919061580b565b60200151806115b35750600b546040516331a9108f60e11b815260016004820152339161010090046001600160a01b031690636352211e90602401602060405180830381865afa158015611584573d6000803e3d6000fd5b505050506040513d601f19601f820116820180604052508101906115a8919061588f565b6001600160a01b0316145b6115cf5760405162461bcd60e51b8152600401611052906158ac565b61082a8161366c565b600033610e678185856115eb8383613003565b6115f591906158e1565b6132cd565b3360009081526005602052604090205460ff166116595760405162461bcd60e51b815260206004820152601960248201527f455243323054656d706c6174653a204e4f54204d494e544552000000000000006044820152606401611052565b600a5461166f8261166960025490565b906136dd565b11156116bd5760405162461bcd60e51b815260206004820152601f60248201527f44617461746f6b656e54656d706c6174653a20636170206578636565646564006044820152606401611052565b61111382826136e9565b61082a33826137a8565b600060195460026116e29190615916565b6116eb83612a19565b610e6d91906158e1565b60606022805480602002602001604051908101604052809291908181526020018280548015610e4f57602002820191906000526020600020905b81546001600160a01b0316815260019091019060200180831161172f575050505050905090565b600b546040516331a9108f60e11b8152600160048201526101009091046001600160a01b031690636352211e90602401602060405180830381865afa1580156117a3573d6000803e3d6000fd5b505050506040513d601f19601f820116820180604052508101906117c7919061588f565b6001600160a01b0316336001600160a01b0316146118275760405162461bcd60e51b815260206004820152601b60248201527f455243323054656d706c6174653a206e6f74204e46544f776e657200000000006044820152606401611052565b61182f6138da565b565b600060195482610e6d919061594b565b600d546001600160a01b031633146118ae5760405162461bcd60e51b815260206004820152602a60248201527f455243323054656d706c6174653a206e6f74207075626c6973684d61726b65746044820152694665654164647265737360b01b6064820152608401611052565b6001600160a01b0383166119155760405162461bcd60e51b815260206004820152602860248201527f496e76616c6964205f7075626c6973684d61726b657446656541646472657373604482015267206164647265737360c01b6064820152608401611052565b6001600160a01b03821661197a5760405162461bcd60e51b815260206004820152602660248201527f496e76616c6964205f7075626c6973684d61726b6574466565546f6b656e206160448201526564647265737360d01b6064820152608401611052565b600d80546001600160a01b038581166001600160a01b03199283168117909355600e8054918616919092168117909155600f839055604080513381526020810193909352820152606081018290527f02ab4b3fc023109c2d0da394bda239166c833f63c42b71b67ed4b836dca0ddfe9060800160405180910390a1505050565b600b5460405163160a792560e01b81523360048201526101009091046001600160a01b03169063160a792590602401608060405180830381865afa158015611a46573d6000803e3d6000fd5b505050506040513d601f19601f82011682018060405250810190611a6a919061580b565b6020015180611af15750600b546040516331a9108f60e11b815260016004820152339161010090046001600160a01b031690636352211e90602401602060405180830381865afa158015611ac2573d6000803e3d6000fd5b505050506040513d601f19601f82011682018060405250810190611ae6919061588f565b6001600160a01b0316145b611b0d5760405162461bcd60e51b8152600401611052906158ac565b611b1a8360008484613c70565b505050565b611b2a8233836133f1565b61111382826137a8565b33600090815260208190526040902054670de0b6b3a764000090811115611ba95760405162461bcd60e51b8152602060048201526024808201527f4e6f7420656e6f7567682064617461746f6b656e7320746f207374617274204f604482015263393232b960e11b6064820152608401611052565b600d5460408051338152602081018490529081018690524260608201524360808201526001600160a01b03918216918716907fe1c4fa794edfa8f619b8257a077398950357b9c6398528f94480307352f9afcc9060a00160405180910390a36000600f54118015611c245750600e546001600160a01b031615155b8015611c3a5750600d546001600160a01b031615155b15611caf57600e54600d54600f54611c62926001600160a01b03908116923392911690613d79565b600e54600d54600f546040519081526001600160a01b0392831692909116907f4049a448ac6f0284a98d2cb9199e73605944ea5bec901a037f88c84703de82b29060200160405180910390a35b60008260400135118015611cdc57506000611cd06040840160208501614ff9565b6001600160a01b031614155b8015611cfe57506000611cf26020840184614ff9565b6001600160a01b031614155b15611d9b57611d2e611d166040840160208501614ff9565b33611d246020860186614ff9565b8560400135613d79565b611d3e6040830160208401614ff9565b6001600160a01b0316611d546020840184614ff9565b6001600160a01b03167f6d11837f46cc09b011cf4aae09fcade046c020aac088090ae4f77ff67b7079728460400135604051611d9291815260200190565b60405180910390a35b60215415611f0b5760006021600081548110611db957611db96157c4565b60009182526020822060029091020154602180546001600160a01b0390921693508391634c87087d91908490611df157611df16157c4565b9060005260206000209060020201600101546040518263ffffffff1660e01b8152600401611e2191815260200190565b61018060405180830381865afa158015611e3f573d6000803e3d6000fd5b505050506040513d601f19601f82011682018060405250810190611e63919061595f565b509a50505050505050505050506000811115611f0857816001600160a01b031663f32f94766021600081548110611e9c57611e9c6157c4565b906000526020600020906002020160010154836040518363ffffffff1660e01b8152600401611ed5929190918252602082015260400190565b600060405180830381600087803b158015611eef57600080fd5b505af1158015611f03573d6000803e3d6000fd5b505050505b50505b60006040518060400160405280876001600160a01b03168152602001601b5443611f3591906158e1565b90526001600160a01b038781166000818152601760209081526040909120845181546001600160a01b0319169416939093178355830151600190920191909155601b54919250907f498f6fbe01bd9d9e4dd7aed2b61275cee780377081cbcc813dabf749f933dd4990611fa890436158e1565b604080519182524360208301520160405180910390a2611fca43601054613ec7565b611fd3826116c7565b505050505050565b60606021805480602002602001604051908101604052809291908181526020016000905b82821015612047576000848152602090819020604080518082019091526002850290910180546001600160a01b03168252600190810154828401529083529092019101611fff565b50505050905090565b600b5461010090046001600160a01b031633146118275760405162461bcd60e51b815260206004820152601f60248201527f455243323054656d706c6174653a204e4f542037323120436f6e7472616374006044820152606401611052565b600b5460405163160a792560e01b815233600482015260009161010090046001600160a01b03169063160a792590602401608060405180830381865afa1580156120fd573d6000803e3d6000fd5b505050506040513d601f19601f82011682018060405250810190612121919061580b565b60200151806121a85750600b546040516331a9108f60e11b815260016004820152339161010090046001600160a01b031690636352211e90602401602060405180830381865afa158015612179573d6000803e3d6000fd5b505050506040513d601f19601f8201168201806040525081019061219d919061588f565b6001600160a01b0316145b6121c45760405162461bcd60e51b8152600401611052906158ac565b6121cc613fbf565b6021541561221c5760405162461bcd60e51b815260206004820152601a60248201527f4669786564207261746520616c72656164792070726573656e740000000000006044820152606401611052565b8260008151811061222f5761222f6157c4565b6020908102919091010151601a546001600160a01b039081169116146122ac5760405162461bcd60e51b815260206004820152602c60248201527f43616e6e6f74206372656174652046524520776974682062617365546f6b656e60448201526b109eb9ba30b5b2aa37b5b2b760a11b6064820152608401611052565b60006001600160a01b0316836002815181106122ca576122ca6157c4565b60200260200101516001600160a01b031614156123295760405162461bcd60e51b815260206004820152601b60248201527f466565436f6c6c6563746f722063616e6e6f74206265207a65726f00000000006044820152606401611052565b60008260048151811061233e5761233e6157c4565b602002602001015111156123555761235584614019565b602054604051638244937560e01b81526001600160a01b039091169063824493759061238990879087908790600401615a1c565b6020604051808303816000875af11580156123a8573d6000803e3d6000fd5b505050506040513d601f19601f820116820180604052508101906123cc9190615a82565b9050826000815181106123e1576123e16157c4565b60200260200101516001600160a01b031683600181518110612405576124056157c4565b60200260200101516001600160a01b03167fb3fac3ae95956dbac74e63ba8dac94081832395c8788e3049c900a7732f3480583876040516124599291909182526001600160a01b0316602082015260400190565b60405180910390a3604080518082019091526001600160a01b038581168252602082018381526021805460018101825560009190915292517f3a6357012c1a3ae0a17d304c9920310382d968ebcc4b1771f41c6b304205b570600294850290810180546001600160a01b0319169290941691909117909255517f3a6357012c1a3ae0a17d304c9920310382d968ebcc4b1771f41c6b304205b571909101558251839190811061250a5761250a6157c4565b60200260200101516010819055508260028151811061252b5761252b6157c4565b6020026020010151601860006101000a8154816001600160a01b0302191690836001600160a01b03160217905550610ef96001600755565b606060098054610dd690615789565b600b5460405163160a792560e01b81526001600160a01b0383811660048301526000926101009004169063160a792590602401608060405180830381865afa1580156125c2573d6000803e3d6000fd5b505050506040513d601f19601f820116820180604052508101906125e6919061580b565b6020015192915050565b604080516080810182526000808252602082018190529181018290526060810191909152336001600160a01b038316148061262a57504383105b61266b5760405162461bcd60e51b8152602060048201526012602482015271796f75207368616c6c206e6f74207061737360701b6044820152606401611052565b600061267684612a19565b60009081526011602090815260408083206001600160a01b0396871684528252918290208251608081018452815460ff9081161515825260018301549382019390935260029091015495861692810192909252600160a01b90940490931615156060840152509092915050565b600033816126f18286613003565b9050838110156127515760405162461bcd60e51b815260206004820152602560248201527f45524332303a2064656372656173656420616c6c6f77616e63652062656c6f77604482015264207a65726f60d81b6064820152608401611052565b61275e82868684036132cd565b506001949350505050565b612771613fbf565b61277a816140ef565b61278d3033670de0b6b3a7640000613465565b6127b861279d6020840184614ff9565b60208401356127af6040860186615a9b565b85606001611b34565b6111136001600755565b600033610e67818585613465565b6000806127dc33613084565b61281a5760405162461bcd60e51b815260206004820152600f60248201526e27379039bab139b1b934b83a34b7b760891b6044820152606401611052565b600061282584612a19565b600090815260126020908152604080832054601390925290912054909590945092505050565b600b5460405163160a792560e01b81523360048201526101009091046001600160a01b03169063160a792590602401608060405180830381865afa158015612897573d6000803e3d6000fd5b505050506040513d601f19601f820116820180604052508101906128bb919061580b565b60200151806129425750600b546040516331a9108f60e11b815260016004820152339161010090046001600160a01b031690636352211e90602401602060405180830381865afa158015612913573d6000803e3d6000fd5b505050506040513d601f19601f82011682018060405250810190612937919061588f565b6001600160a01b0316145b61295e5760405162461bcd60e51b8152600401611052906158ac565b6040516bffffffffffffffffffffffff193060601b16602082015260009060340160408051808303601f19018152908290528051602090910120600b546301caf8fd60e31b835290925061010090046001600160a01b031690630e57c7e8906129cf90849087908790600401615abb565b600060405180830381600087803b1580156129e957600080fd5b505af11580156129fd573d6000803e3d6000fd5b50505050505050565b6000612a1182612a19565b909114919050565b60008060195483612a2a919061594b565b905060195481610ef99190615916565b600b5460009060ff1615612aaa5760405162461bcd60e51b815260206004820152603160248201527f455243323054656d706c6174653a20746f6b656e20696e7374616e636520616c6044820152701c9958591e481a5b9a5d1a585b1a5e9959607a1b6064820152608401611052565b612b5e612ab78b8d615b48565b8a8a8080602002602001604051908101604052809392919081815260200183836020028082843760009201919091525050604080516020808e0282810182019093528d82529093508d92508c91829185019084908082843760009201919091525050604080516020808d0282810182019093528c82529093508c92508b918291850190849080828437600092019190915250612b5992508991508a9050615bcf565b61450e565b9b9a5050505050505050505050565b600b5460405163160a792560e01b81523360048201526101009091046001600160a01b03169063160a792590602401608060405180830381865afa158015612bb9573d6000803e3d6000fd5b505050506040513d601f19601f82011682018060405250810190612bdd919061580b565b6020015180612c645750600b546040516331a9108f60e11b815260016004820152339161010090046001600160a01b031690636352211e90602401602060405180830381865afa158015612c35573d6000803e3d6000fd5b505050506040513d601f19601f82011682018060405250810190612c59919061588f565b6001600160a01b0316145b612c805760405162461bcd60e51b8152600401611052906158ac565b601d805460ff19811660ff90911615179055565b612c9c613fbf565b612ca68282610f00565b612ce25760405162461bcd60e51b815260206004820152600d60248201526c1b9bdd081cdd589b5a5d1d1959609a1b6044820152606401611052565b6000612ced83612a19565b60008181526011602090815260408083206001600160a01b038088168552908352928190208151608081018352815460ff9081161515825260018301549482019490945260029091015493841691810191909152600160a01b90920416158015606083015291925090612d615750506127b8565b601c54612d6e90836158e1565b43118015612d9c575060008281526015602052604081205460ff166002811115612d9a57612d9a61570e565b145b15612dbb576000828152601560205260409020805460ff191660021790555b60008281526015602052604081205460ff166002811115612dde57612dde61570e565b1415612deb5750506127b8565b60008281526011602090815260408083206001600160a01b038716845290915281206002908101805460ff60a01b1916600160a01b17905560008481526015602052604090205460ff166002811115612e4657612e4661570e565b1415612e5757506020810151612f17565b815160008481526014602052604090205460ff1615159015151415612f175760008381526014602052604081205460ff16612eb657600084815260126020908152604080832054601390925290912054612eb19190615c4a565b612ec6565b6000848152601260205260409020545b90508015612f15576000612ed985610e73565b6000868152601360205260409020549091508290612ef89083906158e1565b8560200151612f079190615916565b612f11919061594b565b9250505b505b60208083015183516000868152601484526040808220546013865281832054601290965291205487946001600160a01b038a16947f095487dd6dbd377778c598664198287a051bce23f419565bd4ce4a2b37c63c809490938893919260ff90911691612f8b90670de0b6b3a7640000615916565b612f95919061594b565b60008b81526015602052604090819020549051612fba96959493929160ff1690615c61565b60405180910390a38015612fe6576040820151601a54612fe6916001600160a01b039091169083613609565b5050506111136001600755565b6000612ffe43611831565b905090565b6001600160a01b03918216600090815260016020908152604080832093909416825291909152205490565b60405130904780156108fc02916000818181858888f1935050505015801561082a573d6000803e3d6000fd5b6006818154811061306a57600080fd5b6000918252602090912001546001600160a01b0316905081565b6001600160a01b0381166000908152601760205260408120600101544310156130ae576001610e6d565b600092915050565b601d5460ff16156130f25760405162461bcd60e51b81526020600482015260066024820152651c185d5cd95960d21b6044820152606401611052565b60006130fd82612a19565b9050613108436116d1565b81101561314c5760405162461bcd60e51b81526020600482015260126024820152711d1bdbc81b185d19481d1bc81cdd589b5a5d60721b6044820152606401611052565b6131568133610f00565b156131975760405162461bcd60e51b8152602060048201526011602482015270185b1c9958591e481cdd589b5a5d1d1959607a1b6044820152606401611052565b6040805160808101825285151581526020808201868152338385018181526000606086018181528882526011865287822093825292909452949092209251835460ff191690151517835551600183015591516002909101805492516001600160a01b039092166001600160a81b031990931692909217600160a01b911515919091021790558361322857600061322b565b60015b6132389060ff1684615916565b600082815260126020526040812080549091906132569084906158e1565b9091555050600081815260136020526040812080548592906132799084906158e1565b9091555050604051838152819033907f1adf2f5dd35a2da881dc68ca4d293ab5f8c12b143741836d06e273a5dbf58c539060200160405180910390a3601a54610ed4906001600160a01b0316333086614934565b6001600160a01b03831661332f5760405162461bcd60e51b8152602060048201526024808201527f45524332303a20617070726f76652066726f6d20746865207a65726f206164646044820152637265737360e01b6064820152608401611052565b6001600160a01b0382166133905760405162461bcd60e51b815260206004820152602260248201527f45524332303a20617070726f766520746f20746865207a65726f206164647265604482015261737360f01b6064820152608401611052565b6001600160a01b0383811660008181526001602090815260408083209487168084529482529182902085905590518481527f8c5be1e5ebec7d5bd14f71427d1e84f3dd0314c0f7b2291e5b200ac8c7c3b925910160405180910390a3505050565b60006133fd8484613003565b90506000198114610ed457818110156134585760405162461bcd60e51b815260206004820152601d60248201527f45524332303a20696e73756666696369656e7420616c6c6f77616e63650000006044820152606401611052565b610ed484848484036132cd565b6001600160a01b0383166134c95760405162461bcd60e51b815260206004820152602560248201527f45524332303a207472616e736665722066726f6d20746865207a65726f206164604482015264647265737360d81b6064820152608401611052565b6001600160a01b03821661352b5760405162461bcd60e51b815260206004820152602360248201527f45524332303a207472616e7366657220746f20746865207a65726f206164647260448201526265737360e81b6064820152608401611052565b6001600160a01b038316600090815260208190526040902054818110156135a35760405162461bcd60e51b815260206004820152602660248201527f45524332303a207472616e7366657220616d6f756e7420657863656564732062604482015265616c616e636560d01b6064820152608401611052565b6001600160a01b03848116600081815260208181526040808320878703905593871680835291849020805487019055925185815290927fddf252ad1be2c89b69c2b068fc378daa952ba7f163c4a11628f55a4df523b3ef910160405180910390a3610ed4565b6040516001600160a01b038316602482015260448101829052611b1a90849063a9059cbb60e01b906064015b60408051601f198184030181529190526020810180516001600160e01b03166001600160e01b03199093169290921790915261496c565b6001600160a01b03811660008181526005602052604090819020805460ff191681559051909133917fefa2735987005aaa89c050c0ff8cc9ae7d9079d19382081c429130f98c52d480906136cc9042904390918252602082015260400190565b60405180910390a361111382614a3e565b6000610ef982846158e1565b6001600160a01b03821661373f5760405162461bcd60e51b815260206004820152601f60248201527f45524332303a206d696e7420746f20746865207a65726f2061646472657373006044820152606401611052565b806002600082825461375191906158e1565b90915550506001600160a01b038216600081815260208181526040808320805486019055518481527fddf252ad1be2c89b69c2b068fc378daa952ba7f163c4a11628f55a4df523b3ef910160405180910390a35050565b6001600160a01b0382166138085760405162461bcd60e51b815260206004820152602160248201527f45524332303a206275726e2066726f6d20746865207a65726f206164647265736044820152607360f81b6064820152608401611052565b6001600160a01b0382166000908152602081905260409020548181101561387c5760405162461bcd60e51b815260206004820152602260248201527f45524332303a206275726e20616d6f756e7420657863656564732062616c616e604482015261636560f01b6064820152608401611052565b6001600160a01b0383166000818152602081815260408083208686039055600280548790039055518581529192917fddf252ad1be2c89b69c2b068fc378daa952ba7f163c4a11628f55a4df523b3ef910160405180910390a3505050565b6022546021546000916138ec916158e1565b9050600080826001600160401b0381111561390957613909615378565b604051908082528060200260200182016040528015613932578160200160208202803683370190505b50905060005b602154811015613c1857600060218281548110613957576139576157c4565b60009182526020822060029091020154602180546001600160a01b039092169350829182918591634c87087d919088908110613995576139956157c4565b9060005260206000209060020201600101546040518263ffffffff1660e01b81526004016139c591815260200190565b61018060405180830381865afa1580156139e3573d6000803e3d6000fd5b505050506040513d601f19601f82011682018060405250810190613a07919061595f565b9b509b509b505050505050505050506000821115613aad57836001600160a01b031663f32f947660218781548110613a4157613a416157c4565b906000526020600020906002020160010154846040518363ffffffff1660e01b8152600401613a7a929190918252602082015260400190565b600060405180830381600087803b158015613a9457600080fd5b505af1158015613aa8573d6000803e3d6000fd5b505050505b8215613b4157836001600160a01b031663c612e48a60218781548110613ad557613ad56157c4565b906000526020600020906002020160010154856040518363ffffffff1660e01b8152600401613b0e929190918252602082015260400190565b600060405180830381600087803b158015613b2857600080fd5b505af1158015613b3c573d6000803e3d6000fd5b505050505b613b8460218681548110613b5757613b576157c4565b600091825260208083206002909202909101546001600160a01b0316825260059052604090205460ff1690565b8015613b9257506001811515145b15613c015760218581548110613baa57613baa6157c4565b600091825260209091206002909102015486516001600160a01b0390911690879089908110613bdb57613bdb6157c4565b6001600160a01b039092166020928302919091019091015286613bfd816157f0565b9750505b505050508080613c10906157f0565b915050613938565b613c20614b8c565b50600c80546001600160a01b031916905560005b82811015610ed457613c5e828281518110613c5157613c516157c4565b6020026020010151614019565b80613c68816157f0565b915050613c34565b613c7a8483615c93565b15613cab5760405162461bcd60e51b81526020600482015260016024820152602560f81b6044820152606401611052565b613cb58484615c93565b15613ce65760405162461bcd60e51b81526020600482015260016024820152602560f81b6044820152606401611052565b601954613cfb57613cf7848461594b565b6019555b613d05848361594b565b601b55613d12848261594b565b601c819055601954601b54601a54604080519384526020840192909252908201929092526001600160a01b0390911660608201527fc4526e958dc74330dcd6698fa6f869171a8c97b4036026118c263688264099d59060800160405180910390a150505050565b6040516370a0823160e01b81526001600160a01b038381166004830152600091908616906370a0823190602401602060405180830381865afa158015613dc3573d6000803e3d6000fd5b505050506040513d601f19601f82011682018060405250810190613de79190615a82565b9050613dfe6001600160a01b038616858585614934565b613e0881836136dd565b6040516370a0823160e01b81526001600160a01b0385811660048301528716906370a0823190602401602060405180830381865afa158015613e4e573d6000803e3d6000fd5b505050506040513d601f19601f82011682018060405250810190613e729190615a82565b1015613ec05760405162461bcd60e51b815260206004820152601a60248201527f5472616e7366657220616d6f756e7420697320746f6f206c6f770000000000006044820152606401611052565b5050505050565b8015611113576000613ed883612a19565b90506000601954601b54613eec919061594b565b90506001811015613efb575060015b6000613f07828561594b565b905060005b82811015613f6657816016600083601954613f279190615916565b613f3190886158e1565b81526020019081526020016000206000828254613f4e91906158e1565b90915550819050613f5e816157f0565b915050613f0c565b506019546040805186815260208101869052808201849052606081018590526080810192909252517f12246f3e621dc7f930e714f57b7328c069007c690cbe9f328090bd161e7ff3b69181900360a00190a15050505050565b600260075414156140125760405162461bcd60e51b815260206004820152601f60248201527f5265656e7472616e637947756172643a207265656e7472616e742063616c6c006044820152606401611052565b6002600755565b6001600160a01b0381161561082a576001600160a01b0381166000908152600560205260409020805460ff16156140925760405162461bcd60e51b815260206004820152601d60248201527f4552433230526f6c65733a2020414c52454144592041204d494e5445520000006044820152606401611052565b805460ff191660011781556140a682614c3b565b6040805142815243602082015233916001600160a01b038516917f4f7e100eb1ee13e903798bd0d6aa854152e07eb05544f392b9409c12935c8095910160405180910390a35050565b60006140fe6020830183614ff9565b604051634c87087d60e01b81526020840135600482015290915060009081906001600160a01b03841690634c87087d9060240161018060405180830381865afa15801561414f573d6000803e3d6000fd5b505050506040513d601f19601f82011682018060405250810190614173919061595f565b5050505050505050935050925050306001600160a01b0316826001600160a01b0316146141f25760405162461bcd60e51b815260206004820152602760248201527f5468697320466978656452617465206973206e6f742070726f766964696e67206044820152661d1a1a5cc8111560ca1b6064820152608401611052565b604051636e8de4b560e11b815260208501356004820152670de0b6b3a76400006024820152606085013560448201526000906001600160a01b0385169063dd1bc96a90606401608060405180830381865afa158015614255573d6000803e3d6000fd5b505050506040513d601f19601f820116820180604052508101906142799190615ca7565b505050905084604001358111156142e25760405162461bcd60e51b815260206004820152602760248201527f46697865645261746545786368616e67653a20546f6f206d616e79206261736560448201526620746f6b656e7360c81b6064820152608401611052565b6142ee82333084613d79565b61430f6142fe6020870187614ff9565b6001600160a01b0384169083614cf2565b6001600160a01b0384166368c4b7e96020870135670de0b6b3a76400008461433d60a08b0160808c01614ff9565b6040516001600160e01b031960e087901b1681526004810194909452602484019290925260448301526001600160a01b031660648201526060880135608482015260a401600060405180830381600087803b15801561439b57600080fd5b505af11580156143af573d6000803e3d6000fd5b505030600090815260208190526040902054670de0b6b3a764000092509050101561441c5760405162461bcd60e51b815260206004820152601f60248201527f556e61626c6520746f206275792044542066726f6d20466978656452617465006044820152606401611052565b604051634c87087d60e01b8152602086013560048201526000906001600160a01b03861690634c87087d9060240161018060405180830381865afa158015614468573d6000803e3d6000fd5b505050506040513d601f19601f8201168201806040525081019061448c919061595f565b509a50505050505050505050506000811115611fd357604051637997ca3b60e11b815260208701356004820152602481018290526001600160a01b0386169063f32f947690604401600060405180830381600087803b1580156144ee57600080fd5b505af1158015614502573d6000803e3d6000fd5b50505050505050505050565b60008084600081518110614524576145246157c4565b6020026020010151905084600181518110614541576145416157c4565b60209081029190910181015181546001600160a01b0319166001600160a01b039182161790915581166145cb5760405162461bcd60e51b815260206004820152602c60248201527f455243323054656d706c6174653a20496e76616c6964206d696e7465722c202060448201526b7a65726f206164647265737360a01b6064820152608401611052565b6020546001600160a01b03166146375760405162461bcd60e51b815260206004820152602b60248201527f455243323054656d706c6174653a20496e76616c696420726f757465722c207a60448201526a65726f206164647265737360a81b6064820152608401611052565b8360008151811061464a5761464a6157c4565b6020026020010151600014156146ae5760405162461bcd60e51b8152602060048201526024808201527f44617461746f6b656e54656d706c6174653a20496e76616c6964206361702076604482015263616c756560e01b6064820152608401611052565b836000815181106146c1576146c16157c4565b6020026020010151600a81905550866000815181106146e2576146e26157c4565b6020026020010151600890805190602001906146ff929190614f31565b5086600181518110614713576147136157c4565b602002602001015160099080519060200190614730929190614f31565b50600b805460016001600160a81b03199091166101006001600160a01b0385160260ff191617179055600c80546001600160a01b031916301790558560028151811061477e5761477e6157c4565b6020026020010151600d60006101000a8154816001600160a01b0302191690836001600160a01b03160217905550856003815181106147bf576147bf6157c4565b6020026020010151600e60006101000a8154816001600160a01b0302191690836001600160a01b0316021790555083600181518110614800576148006157c4565b602090810291909101810151600f819055600d54600e54604080513381526001600160a01b039384169581019590955291169083015260608201527f02ab4b3fc023109c2d0da394bda239166c833f63c42b71b67ed4b836dca0ddfe9060800160405180910390a1600046905086600481518110614880576148806157c4565b6020026020010151601a60006101000a8154816001600160a01b0302191690836001600160a01b03160217905550614922856002815181106148c4576148c46157c4565b6020026020010151866003815181106148df576148df6157c4565b6020026020010151876004815181106148fa576148fa6157c4565b602002602001015188600581518110614915576149156157c4565b6020026020010151613c70565b5050600b5460ff169695505050505050565b6040516001600160a01b0380851660248301528316604482015260648101829052610ed49085906323b872dd60e01b90608401613635565b60006149c1826040518060400160405280602081526020017f5361666545524332303a206c6f772d6c6576656c2063616c6c206661696c6564815250856001600160a01b0316614da49092919063ffffffff16565b805190915015611b1a57808060200190518101906149df9190615cdd565b611b1a5760405162461bcd60e51b815260206004820152602a60248201527f5361666545524332303a204552433230206f7065726174696f6e20646964206e6044820152691bdd081cdd58d8d9595960b21b6064820152608401611052565b6001600160a01b0381166000908152600560205260409020805460ff16158015614a6f57508054610100900460ff16155b156111135760005b600654811015614ad057826001600160a01b031660068281548110614a9e57614a9e6157c4565b6000918252602090912001546001600160a01b03161415614abe57614ad0565b80614ac8816157f0565b915050614a77565b600654811015611b1a5760068054614aea90600190615c4a565b81548110614afa57614afa6157c4565b600091825260209091200154600680546001600160a01b039092169183908110614b2657614b266157c4565b9060005260206000200160006101000a8154816001600160a01b0302191690836001600160a01b031602179055506006805480614b6557614b65615cfa565b600082815260209020810160001990810180546001600160a01b0319169055019055505050565b60005b600654811015614bf25760006005600060068481548110614bb257614bb26157c4565b60009182526020808320909101546001600160a01b031683528201929092526040019020805461ffff191690555080614bea816157f0565b915050614b8f565b50614bff60066000614fb5565b6040805142815243602082015233917f712bc71db81927a76b8bf1ea346247bb0ad58f18e4e5c1bd4aa0ec6573e02a2b910160405180910390a2565b60005b600654811015614c9757816001600160a01b031660068281548110614c6557614c656157c4565b6000918252602090912001546001600160a01b03161415614c8557614c97565b80614c8f816157f0565b915050614c3e565b60065481141561111357600680546001810182556000919091527ff652222313e28459528d920b65115c16c04f3efc82aaedc97be59f3f377c0d3f0180546001600160a01b0384166001600160a01b03199091161790555050565b604051636eb1769f60e11b81523060048201526001600160a01b038381166024830152600091839186169063dd62ed3e90604401602060405180830381865afa158015614d43573d6000803e3d6000fd5b505050506040513d601f19601f82011682018060405250810190614d679190615a82565b614d7191906158e1565b6040516001600160a01b038516602482015260448101829052909150610ed490859063095ea7b360e01b90606401613635565b6060614db38484600085614dbb565b949350505050565b606082471015614e1c5760405162461bcd60e51b815260206004820152602660248201527f416464726573733a20696e73756666696369656e742062616c616e636520666f6044820152651c8818d85b1b60d21b6064820152608401611052565b600080866001600160a01b03168587604051614e389190615d10565b60006040518083038185875af1925050503d8060008114614e75576040519150601f19603f3d011682016040523d82523d6000602084013e614e7a565b606091505b5091509150614e8b87838387614e96565b979650505050505050565b60608315614f02578251614efb576001600160a01b0385163b614efb5760405162461bcd60e51b815260206004820152601d60248201527f416464726573733a2063616c6c20746f206e6f6e2d636f6e74726163740000006044820152606401611052565b5081614db3565b614db38383815115614f175781518083602001fd5b8060405162461bcd60e51b81526004016110529190615042565b828054614f3d90615789565b90600052602060002090601f016020900481019282614f5f5760008555614fa5565b82601f10614f7857805160ff1916838001178555614fa5565b82800160010185558215614fa5579182015b82811115614fa5578251825591602001919060010190614f8a565b50614fb1929150614fcf565b5090565b508054600082559060005260206000209081019061082a91905b5b80821115614fb15760008155600101614fd0565b6001600160a01b038116811461082a57600080fd5b60006020828403121561500b57600080fd5b8135610ef981614fe4565b60005b83811015615031578181015183820152602001615019565b83811115610ed45750506000910152565b6020815260008251806020840152615061816040850160208701615016565b601f01601f19169190910160400192915050565b6000806040838503121561508857600080fd5b823561509381614fe4565b946020939093013593505050565b6000602082840312156150b357600080fd5b5035919050565b60008083601f8401126150cc57600080fd5b5081356001600160401b038111156150e357600080fd5b6020830191508360208260051b85010111156150fe57600080fd5b9250929050565b60008060006040848603121561511a57600080fd5b83356001600160401b0381111561513057600080fd5b61513c868287016150ba565b909450925050602084013561515081614fe4565b809150509250925092565b60008060006060848603121561517057600080fd5b833561517b81614fe4565b9250602084013561518b81614fe4565b929592945050506040919091013590565b600080604083850312156151af57600080fd5b8235915060208301356151c181614fe4565b809150509250929050565b801515811461082a57600080fd5b600080600080608085870312156151f057600080fd5b843593506020850135615202816151cc565b9250604085013591506060850135615219816151cc565b939692955090935050565b600081518084526020808501945080840160005b8381101561525d5781516001600160a01b031687529582019590820190600101615238565b509495945050505050565b602081526000610ef96020830184615224565b60008060006060848603121561529057600080fd5b505081359360208301359350604090920135919050565b60008060008084860360c08112156152be57600080fd5b85356152c981614fe4565b94506020860135935060408601356001600160401b038111156152eb57600080fd5b860161010081890312156152fe57600080fd5b92506060605f198201121561531257600080fd5b509295919450926060019150565b602080825282518282018190526000919060409081850190868401855b8281101561536b57815180516001600160a01b0316855286015186850152928401929085019060010161533d565b5091979650505050505050565b634e487b7160e01b600052604160045260246000fd5b604051601f8201601f191681016001600160401b03811182821017156153b6576153b6615378565b604052919050565b60006001600160401b038211156153d7576153d7615378565b5060051b60200190565b600082601f8301126153f257600080fd5b81356020615407615402836153be565b61538e565b82815260059290921b8401810191818101908684111561542657600080fd5b8286015b84811015615441578035835291830191830161542a565b509695505050505050565b60008060006060848603121561546157600080fd5b833561546c81614fe4565b92506020848101356001600160401b038082111561548957600080fd5b818701915087601f83011261549d57600080fd5b81356154ab615402826153be565b81815260059190911b8301840190848101908a8311156154ca57600080fd5b938501935b828510156154f15784356154e281614fe4565b825293850193908501906154cf565b96505050604087013592508083111561550957600080fd5b5050615517868287016153e1565b9150509250925092565b60008082840360c081121561553557600080fd5b83356001600160401b0381111561554b57600080fd5b840160c0818703121561555d57600080fd5b925060a0601f198201121561557157600080fd5b506020830190509250929050565b6000806020838503121561559257600080fd5b82356001600160401b03808211156155a957600080fd5b818501915085601f8301126155bd57600080fd5b8135818111156155cc57600080fd5b8660208285010111156155de57600080fd5b60209290920196919550909350505050565b60008060008060008060008060008060a08b8d03121561560f57600080fd5b8a356001600160401b038082111561562657600080fd5b6156328e838f016150ba565b909c509a5060208d013591508082111561564b57600080fd5b6156578e838f016150ba565b909a50985060408d013591508082111561567057600080fd5b61567c8e838f016150ba565b909850965060608d013591508082111561569557600080fd5b6156a18e838f016150ba565b909650945060808d01359150808211156156ba57600080fd5b506156c78d828e016150ba565b915080935050809150509295989b9194979a5092959850565b600080604083850312156156f357600080fd5b82356156fe81614fe4565b915060208301356151c181614fe4565b634e487b7160e01b600052602160045260246000fd5b6003811061574257634e487b7160e01b600052602160045260246000fd5b9052565b60208101610e6d8284615724565b60008060006060848603121561576957600080fd5b8335615774816151cc565b95602085013595506040909401359392505050565b600181811c9082168061579d57607f821691505b602082108114156157be57634e487b7160e01b600052602260045260246000fd5b50919050565b634e487b7160e01b600052603260045260246000fd5b634e487b7160e01b600052601160045260246000fd5b6000600019821415615804576158046157da565b5060010190565b60006080828403121561581d57600080fd5b604051608081018181106001600160401b038211171561583f5761583f615378565b604052825161584d816151cc565b8152602083015161585d816151cc565b60208201526040830151615870816151cc565b60408201526060830151615883816151cc565b60608201529392505050565b6000602082840312156158a157600080fd5b8151610ef981614fe4565b6020808252818101527f455243323054656d706c6174653a204e4f54204445504c4f59455220524f4c45604082015260600190565b600082198211156158f4576158f46157da565b500190565b83151581526020810183905260608101614db36040830184615724565b6000816000190483118215151615615930576159306157da565b500290565b634e487b7160e01b600052601260045260246000fd5b60008261595a5761595a615935565b500490565b6000806000806000806000806000806000806101808d8f03121561598257600080fd5b8c5161598d81614fe4565b60208e0151909c5061599e81614fe4565b60408e015160608f0151919c509a506159b681614fe4565b8099505060808d0151975060a08d0151965060c08d01516159d6816151cc565b8096505060e08d015194506101008d015193506101208d015192506101408d015191506101608d0151615a08816151cc565b809150509295989b509295989b509295989b565b6001600160a01b038416815260606020808301829052600091615a4190840186615224565b838103604085015284518082528286019183019060005b81811015615a7457835183529284019291840191600101615a58565b509098975050505050505050565b600060208284031215615a9457600080fd5b5051919050565b6000823560fe19833603018112615ab157600080fd5b9190910192915050565b83815260406020820152816040820152818360608301376000818301606090810191909152601f909201601f1916010192915050565b60006001600160401b03831115615b0a57615b0a615378565b615b1d601f8401601f191660200161538e565b9050828152838383011115615b3157600080fd5b828260208301376000602084830101529392505050565b6000615b56615402846153be565b80848252602080830192508560051b850136811115615b7457600080fd5b855b81811015615bc35780356001600160401b03811115615b955760008081fd5b870136601f820112615ba75760008081fd5b615bb5368235868401615af1565b865250938201938201615b76565b50919695505050505050565b6000615bdd615402846153be565b80848252602080830192508560051b850136811115615bfb57600080fd5b855b81811015615bc35780356001600160401b03811115615c1c5760008081fd5b870136601f820112615c2e5760008081fd5b615c3c368235868401615af1565b865250938201938201615bfd565b600082821015615c5c57615c5c6157da565b500390565b86815260208101869052841515604082015283151560608201526080810183905260c08101614e8b60a0830184615724565b600082615ca257615ca2615935565b500690565b60008060008060808587031215615cbd57600080fd5b505082516020840151604085015160609095015191969095509092509050565b600060208284031215615cef57600080fd5b8151610ef9816151cc565b634e487b7160e01b600052603160045260246000fd5b60008251615ab181846020870161501656fea2646970667358221220bb0180ab2240aeb76c5f4eb4d516baf5f6d5e2c805dd14c060c706e07bcff13064736f6c634300080c0033",
  "linkReferences": {},
  "deployedLinkReferences": {}
}