{
  "abi": [
    {
      "anonymous": false,
      "inputs": [
        {
          "indexed": true,
          "internalType": "address",
          "name": "sender",
          "type": "address"
        },
        {
          "indexed": true,
          "internalType": "string",
          "name": "id",
          "type": "string"
        }
      ],
      "name": "AllocationRemoved",
      "type": "event"
    },
    {
      "anonymous": false,
      "inputs": [
        {
          "indexed": true,
          "internalType": "address",
          "name": "sender",
          "type": "address"
        },
        {
          "indexed": true,
          "internalType": "string",
          "name": "id",
          "type": "string"
        },
        {
          "indexed": false,
          "internalType": "uint256",
          "name": "amount",
          "type": "uint256"
        }
      ],
      "name": "AllocationSet",
      "type": "event"
    },
    {
      "inputs": [
        {
          "internalType": "address",
          "name": "_address",
          "type": "address"
        },
        {
          "internalType": "uint256",
          "name": "limit",
          "type": "uint256"
        },
        {
          "internalType": "uint256",
          "name": "skip",
          "type": "uint256"
        }
      ],
      "name": "getTotalAllocation",
      "outputs": [
        {
          "internalType": "string[]",
          "name": "allocationIds",
          "type": "string[]"
        },
        {
          "internalType": "uint256[]",
          "name": "allocationAmounts",
          "type": "uint256[]"
        }
      ],
      "stateMutability": "view",
      "type": "function"
    },
    {
      "inputs": [
        {
          "internalType": "address",
          "name": "_address",
          "type": "address"
        }
      ],
      "name": "getTotalAllocation",
      "outputs": [
        {
          "internalType": "uint256",
          "name": "",
          "type": "uint256"
        }
      ],
      "stateMutability": "view",
      "type": "function"
    },
    {
      "inputs": [
        {
          "internalType": "address",
          "name": "_address",
          "type": "address"
        },
        {
          "internalType": "string",
          "name": "_id",
          "type": "string"
        }
      ],
      "name": "getveAllocation",
      "outputs": [
        {
          "internalType": "uint256",
          "name": "",
          "type": "uint256"
        }
      ],
      "stateMutability": "view",
      "type": "function"
    },
    {
      "inputs": [
        {
          "internalType": "uint256",
          "name": "amount",
          "type": "uint256"
        },
        {
          "internalType": "string",
          "name": "_id",
          "type": "string"
        }
      ],
      "name": "setAllocation",
      "outputs": [],
      "stateMutability": "nonpayable",
      "type": "function"
    }
  ],
  "bytecode": "608060405234801561001057600080fd5b50610d84806100206000396000f3fe608060405234801561001057600080fd5b506004361061004b5760003560e01c8062b012cc146100505780637eca2cea14610076578063914db4ad14610097578063c49a153e146100ac575b600080fd5b61006361005e3660046109ff565b6100d5565b6040519081526020015b60405180910390f35b610089610084366004610a52565b610115565b60405161006d929190610ac0565b6100aa6100a5366004610b6f565b610394565b005b6100636100ba366004610ba2565b6001600160a01b031660009081526004602052604090205490565b6001600160a01b03831660009081526020819052604080822090516100fd9085908590610bc4565b90815260200160405180910390205490509392505050565b6001600160a01b038316600090815260016020526040902054606090819067ffffffffffffffff81111561014b5761014b610bd4565b60405190808252806020026020018201604052801561017e57816020015b60608152602001906001900390816101695790505b506001600160a01b03861660009081526001602052604090205490925067ffffffffffffffff8111156101b3576101b3610bd4565b6040519080825280602002602001820160405280156101dc578160200160208202803683370190505b50905060006101eb8486610c00565b6001600160a01b0387166000908152600160205260409020541115610211575083610238565b6001600160a01b038616600090815260016020526040902054610235908590610c18565b90505b835b6102448286610c00565b81101561038a576001600160a01b03871660009081526002602090815260408083208484529091529020805461027990610c2f565b80601f01602080910402602001604051908101604052809291908181526020018280546102a590610c2f565b80156102f25780601f106102c7576101008083540402835291602001916102f2565b820191906000526020600020905b8154815290600101906020018083116102d557829003601f168201915b505050505084828151811061030957610309610c6a565b6020908102919091018101919091526001600160a01b038816600090815280825260408082206002845281832085845290935290819020905161034c9190610c80565b90815260200160405180910390205483828151811061036d5761036d610c6a565b60209081029190910101528061038281610d1c565b91505061023a565b5050935093915050565b603281106103d75760405162461bcd60e51b815260206004820152600b60248201526a496420746f6f206c6f6e6760a81b60448201526064015b60405180910390fd5b6103e883111561040e5760405162461bcd60e51b8152602060048201526002602482015261424d60f01b60448201526064016103ce565b3360009081526020819052604090819020905161042e9084908490610bc4565b9081526020016040518091039020546000141561050a576000831161047a5760405162461bcd60e51b8152602060048201526002602482015261534d60f01b60448201526064016103ce565b3360009081526002602090815260408083206001835281842054845290915290206104a6908383610849565b503360009081526001602090815260408083205460039092529182902091519091906104d59085908590610bc4565b908152604080516020928190038301902092909255336000908152600190915290812080549161050483610d1c565b91905055505b3360009081526020819052604090819020905161052a9084908490610bc4565b9081526040805160209281900383019020543360009081526004909352912054610555908590610c00565b61055f9190610c18565b33600090815260046020526040902055826105835761057e8282610608565b6105b7565b336000908152602081905260409081902090518491906105a69085908590610bc4565b908152604051908190036020019020555b81816040516105c7929190610bc4565b6040519081900381208482529033907fd8c9a3d91a9712decb6f475c889dd8aadc77af5358da88983b6d6a9e123cb26f9060200160405180910390a3505050565b3360009081526020819052604080822090516106279085908590610bc4565b908152602001604051809103902054116106685760405162461bcd60e51b8152602060048201526002602482015261534d60f01b60448201526064016103ce565b3360009081526020819052604080822090516106879085908590610bc4565b9081526040805191829003602090810183209390935533600090815260039093528220906106b89085908590610bc4565b908152604080516020928190038301902054336000908152600284528281206001948590529281205491945091926106ef91610c18565b8152602080820192909252604090810160009081203382526002845282822085835290935220815490919061072390610c2f565b61072e9291906108cd565b5033600090815260036020908152604080832060028352818420858552909252918290209151839261075f91610c80565b9081526040805160209281900383019020929092553360009081526002825282812060019283905292812054909161079691610c18565b815260200190815260200160002060006107b09190610948565b336000908152600360205260409081902090516107d09085908590610bc4565b9081526040805160209281900383019020600090819055338152600190925281208054916107fd83610d37565b91905055508282604051610812929190610bc4565b6040519081900381209033907fdfff661e3eda1013045f8e1890c5ba777acb75ca06008312fe62abb41567a1bd90600090a3505050565b82805461085590610c2f565b90600052602060002090601f01602090048101928261087757600085556108bd565b82601f106108905782800160ff198235161785556108bd565b828001600101855582156108bd579182015b828111156108bd5782358255916020019190600101906108a2565b506108c9929150610985565b5090565b8280546108d990610c2f565b90600052602060002090601f0160209004810192826108fb57600085556108bd565b82601f1061090c57805485556108bd565b828001600101855582156108bd57600052602060002091601f016020900482015b828111156108bd57825482559160010191906001019061092d565b50805461095490610c2f565b6000825580601f10610964575050565b601f0160209004906000526020600020908101906109829190610985565b50565b5b808211156108c95760008155600101610986565b80356001600160a01b03811681146109b157600080fd5b919050565b60008083601f8401126109c857600080fd5b50813567ffffffffffffffff8111156109e057600080fd5b6020830191508360208285010111156109f857600080fd5b9250929050565b600080600060408486031215610a1457600080fd5b610a1d8461099a565b9250602084013567ffffffffffffffff811115610a3957600080fd5b610a45868287016109b6565b9497909650939450505050565b600080600060608486031215610a6757600080fd5b610a708461099a565b95602085013595506040909401359392505050565b600081518084526020808501945080840160005b83811015610ab557815187529582019590820190600101610a99565b509495945050505050565b6000604082016040835280855180835260608501915060608160051b860101925060208088016000805b84811015610b4f57888703605f1901865282518051808952835b81811015610b1f578281018701518a82018801528601610b04565b81811115610b2f578487838c0101525b50601f01601f191697909701840196509483019491830191600101610aea565b50505085840381870152505050610b668185610a85565b95945050505050565b600080600060408486031215610b8457600080fd5b83359250602084013567ffffffffffffffff811115610a3957600080fd5b600060208284031215610bb457600080fd5b610bbd8261099a565b9392505050565b8183823760009101908152919050565b634e487b7160e01b600052604160045260246000fd5b634e487b7160e01b600052601160045260246000fd5b60008219821115610c1357610c13610bea565b500190565b600082821015610c2a57610c2a610bea565b500390565b600181811c90821680610c4357607f821691505b60208210811415610c6457634e487b7160e01b600052602260045260246000fd5b50919050565b634e487b7160e01b600052603260045260246000fd5b600080835481600182811c915080831680610c9c57607f831692505b6020808410821415610cbc57634e487b7160e01b86526022600452602486fd5b818015610cd05760018114610ce157610d0e565b60ff19861689528489019650610d0e565b60008a81526020902060005b86811015610d065781548b820152908501908301610ced565b505084890196505b509498975050505050505050565b6000600019821415610d3057610d30610bea565b5060010190565b600081610d4657610d46610bea565b50600019019056fea2646970667358221220252054d968279b6dd806b538231da0abd16b4fadccfaf0410c9c0c5d0174525a64736f6c634300080c0033",
  "bytecodeSha1": "a5b4e6f9556cf661f76e059cfbe47e8635b1dc93",
  "compiler": {
    "evm_version": "istanbul",
    "optimizer": {
      "enabled": true,
      "runs": 200
    },
    "version": "0.8.12+commit.f00d7308"
  },
  "contractName": "veAllocate",
  "language": "Solidity",
  "natspec": {
    "kind": "dev",
    "methods": {},
    "version": 1
  },
  "opcodes": "PUSH1 0x80 PUSH1 0x40 MSTORE CALLVALUE DUP1 ISZERO PUSH2 0x10 JUMPI PUSH1 0x0 DUP1 REVERT JUMPDEST POP PUSH1 0x4 CALLDATASIZE LT PUSH2 0x4B JUMPI PUSH1 0x0 CALLDATALOAD PUSH1 0xE0 SHR DUP1 PUSH3 0xB012CC EQ PUSH2 0x50 JUMPI DUP1 PUSH4 0x7ECA2CEA EQ PUSH2 0x76 JUMPI DUP1 PUSH4 0x914DB4AD EQ PUSH2 0x97 JUMPI DUP1 PUSH4 0xC49A153E EQ PUSH2 0xAC JUMPI JUMPDEST PUSH1 0x0 DUP1 REVERT JUMPDEST PUSH2 0x63 PUSH2 0x5E CALLDATASIZE PUSH1 0x4 PUSH2 0x9FF JUMP JUMPDEST PUSH2 0xD5 JUMP JUMPDEST PUSH1 0x40 MLOAD SWAP1 DUP2 MSTORE PUSH1 0x20 ADD JUMPDEST PUSH1 0x40 MLOAD DUP1 SWAP2 SUB SWAP1 RETURN JUMPDEST PUSH2 0x89 PUSH2 0x84 CALLDATASIZE PUSH1 0x4 PUSH2 0xA52 JUMP JUMPDEST PUSH2 0x115 JUMP JUMPDEST PUSH1 0x40 MLOAD PUSH2 0x6D SWAP3 SWAP2 SWAP1 PUSH2 0xAC0 JUMP JUMPDEST PUSH2 0xAA PUSH2 0xA5 CALLDATASIZE PUSH1 0x4 PUSH2 0xB6F JUMP JUMPDEST PUSH2 0x394 JUMP JUMPDEST STOP JUMPDEST PUSH2 0x63 PUSH2 0xBA CALLDATASIZE PUSH1 0x4 PUSH2 0xBA2 JUMP JUMPDEST PUSH1 0x1 PUSH1 0x1 PUSH1 0xA0 SHL SUB AND PUSH1 0x0 SWAP1 DUP2 MSTORE PUSH1 0x4 PUSH1 0x20 MSTORE PUSH1 0x40 SWAP1 KECCAK256 SLOAD SWAP1 JUMP JUMPDEST PUSH1 0x1 PUSH1 0x1 PUSH1 0xA0 SHL SUB DUP4 AND PUSH1 0x0 SWAP1 DUP2 MSTORE PUSH1 0x20 DUP2 SWAP1 MSTORE PUSH1 0x40 DUP1 DUP3 KECCAK256 SWAP1 MLOAD PUSH2 0xFD SWAP1 DUP6 SWAP1 DUP6 SWAP1 PUSH2 0xBC4 JUMP JUMPDEST SWAP1 DUP2 MSTORE PUSH1 0x20 ADD PUSH1 0x40 MLOAD DUP1 SWAP2 SUB SWAP1 KECCAK256 SLOAD SWAP1 POP SWAP4 SWAP3 POP POP POP JUMP JUMPDEST PUSH1 0x1 PUSH1 0x1 PUSH1 0xA0 SHL SUB DUP4 AND PUSH1 0x0 SWAP1 DUP2 MSTORE PUSH1 0x1 PUSH1 0x20 MSTORE PUSH1 0x40 SWAP1 KECCAK256 SLOAD PUSH1 0x60 SWAP1 DUP2 SWAP1 PUSH8 0xFFFFFFFFFFFFFFFF DUP2 GT ISZERO PUSH2 0x14B JUMPI PUSH2 0x14B PUSH2 0xBD4 JUMP JUMPDEST PUSH1 0x40 MLOAD SWAP1 DUP1 DUP3 MSTORE DUP1 PUSH1 0x20 MUL PUSH1 0x20 ADD DUP3 ADD PUSH1 0x40 MSTORE DUP1 ISZERO PUSH2 0x17E JUMPI DUP2 PUSH1 0x20 ADD JUMPDEST PUSH1 0x60 DUP2 MSTORE PUSH1 0x20 ADD SWAP1 PUSH1 0x1 SWAP1 SUB SWAP1 DUP2 PUSH2 0x169 JUMPI SWAP1 POP JUMPDEST POP PUSH1 0x1 PUSH1 0x1 PUSH1 0xA0 SHL SUB DUP7 AND PUSH1 0x0 SWAP1 DUP2 MSTORE PUSH1 0x1 PUSH1 0x20 MSTORE PUSH1 0x40 SWAP1 KECCAK256 SLOAD SWAP1 SWAP3 POP PUSH8 0xFFFFFFFFFFFFFFFF DUP2 GT ISZERO PUSH2 0x1B3 JUMPI PUSH2 0x1B3 PUSH2 0xBD4 JUMP JUMPDEST PUSH1 0x40 MLOAD SWAP1 DUP1 DUP3 MSTORE DUP1 PUSH1 0x20 MUL PUSH1 0x20 ADD DUP3 ADD PUSH1 0x40 MSTORE DUP1 ISZERO PUSH2 0x1DC JUMPI DUP2 PUSH1 0x20 ADD PUSH1 0x20 DUP3 MUL DUP1 CALLDATASIZE DUP4 CALLDATACOPY ADD SWAP1 POP JUMPDEST POP SWAP1 POP PUSH1 0x0 PUSH2 0x1EB DUP5 DUP7 PUSH2 0xC00 JUMP JUMPDEST PUSH1 0x1 PUSH1 0x1 PUSH1 0xA0 SHL SUB DUP8 AND PUSH1 0x0 SWAP1 DUP2 MSTORE PUSH1 0x1 PUSH1 0x20 MSTORE PUSH1 0x40 SWAP1 KECCAK256 SLOAD GT ISZERO PUSH2 0x211 JUMPI POP DUP4 PUSH2 0x238 JUMP JUMPDEST PUSH1 0x1 PUSH1 0x1 PUSH1 0xA0 SHL SUB DUP7 AND PUSH1 0x0 SWAP1 DUP2 MSTORE PUSH1 0x1 PUSH1 0x20 MSTORE PUSH1 0x40 SWAP1 KECCAK256 SLOAD PUSH2 0x235 SWAP1 DUP6 SWAP1 PUSH2 0xC18 JUMP JUMPDEST SWAP1 POP JUMPDEST DUP4 JUMPDEST PUSH2 0x244 DUP3 DUP7 PUSH2 0xC00 JUMP JUMPDEST DUP2 LT ISZERO PUSH2 0x38A JUMPI PUSH1 0x1 PUSH1 0x1 PUSH1 0xA0 SHL SUB DUP8 AND PUSH1 0x0 SWAP1 DUP2 MSTORE PUSH1 0x2 PUSH1 0x20 SWAP1 DUP2 MSTORE PUSH1 0x40 DUP1 DUP4 KECCAK256 DUP5 DUP5 MSTORE SWAP1 SWAP2 MSTORE SWAP1 KECCAK256 DUP1 SLOAD PUSH2 0x279 SWAP1 PUSH2 0xC2F JUMP JUMPDEST DUP1 PUSH1 0x1F ADD PUSH1 0x20 DUP1 SWAP2 DIV MUL PUSH1 0x20 ADD PUSH1 0x40 MLOAD SWAP1 DUP2 ADD PUSH1 0x40 MSTORE DUP1 SWAP3 SWAP2 SWAP1 DUP2 DUP2 MSTORE PUSH1 0x20 ADD DUP3 DUP1 SLOAD PUSH2 0x2A5 SWAP1 PUSH2 0xC2F JUMP JUMPDEST DUP1 ISZERO PUSH2 0x2F2 JUMPI DUP1 PUSH1 0x1F LT PUSH2 0x2C7 JUMPI PUSH2 0x100 DUP1 DUP4 SLOAD DIV MUL DUP4 MSTORE SWAP2 PUSH1 0x20 ADD SWAP2 PUSH2 0x2F2 JUMP JUMPDEST DUP3 ADD SWAP2 SWAP1 PUSH1 0x0 MSTORE PUSH1 0x20 PUSH1 0x0 KECCAK256 SWAP1 JUMPDEST DUP2 SLOAD DUP2 MSTORE SWAP1 PUSH1 0x1 ADD SWAP1 PUSH1 0x20 ADD DUP1 DUP4 GT PUSH2 0x2D5 JUMPI DUP3 SWAP1 SUB PUSH1 0x1F AND DUP3 ADD SWAP2 JUMPDEST POP POP POP POP POP DUP5 DUP3 DUP2 MLOAD DUP2 LT PUSH2 0x309 JUMPI PUSH2 0x309 PUSH2 0xC6A JUMP JUMPDEST PUSH1 0x20 SWAP1 DUP2 MUL SWAP2 SWAP1 SWAP2 ADD DUP2 ADD SWAP2 SWAP1 SWAP2 MSTORE PUSH1 0x1 PUSH1 0x1 PUSH1 0xA0 SHL SUB DUP9 AND PUSH1 0x0 SWAP1 DUP2 MSTORE DUP1 DUP3 MSTORE PUSH1 0x40 DUP1 DUP3 KECCAK256 PUSH1 0x2 DUP5 MSTORE DUP2 DUP4 KECCAK256 DUP6 DUP5 MSTORE SWAP1 SWAP4 MSTORE SWAP1 DUP2 SWAP1 KECCAK256 SWAP1 MLOAD PUSH2 0x34C SWAP2 SWAP1 PUSH2 0xC80 JUMP JUMPDEST SWAP1 DUP2 MSTORE PUSH1 0x20 ADD PUSH1 0x40 MLOAD DUP1 SWAP2 SUB SWAP1 KECCAK256 SLOAD DUP4 DUP3 DUP2 MLOAD DUP2 LT PUSH2 0x36D JUMPI PUSH2 0x36D PUSH2 0xC6A JUMP JUMPDEST PUSH1 0x20 SWAP1 DUP2 MUL SWAP2 SWAP1 SWAP2 ADD ADD MSTORE DUP1 PUSH2 0x382 DUP2 PUSH2 0xD1C JUMP JUMPDEST SWAP2 POP POP PUSH2 0x23A JUMP JUMPDEST POP POP SWAP4 POP SWAP4 SWAP2 POP POP JUMP JUMPDEST PUSH1 0x32 DUP2 LT PUSH2 0x3D7 JUMPI PUSH1 0x40 MLOAD PUSH3 0x461BCD PUSH1 0xE5 SHL DUP2 MSTORE PUSH1 0x20 PUSH1 0x4 DUP3 ADD MSTORE PUSH1 0xB PUSH1 0x24 DUP3 ADD MSTORE PUSH11 0x496420746F6F206C6F6E67 PUSH1 0xA8 SHL PUSH1 0x44 DUP3 ADD MSTORE PUSH1 0x64 ADD JUMPDEST PUSH1 0x40 MLOAD DUP1 SWAP2 SUB SWAP1 REVERT JUMPDEST PUSH2 0x3E8 DUP4 GT ISZERO PUSH2 0x40E JUMPI PUSH1 0x40 MLOAD PUSH3 0x461BCD PUSH1 0xE5 SHL DUP2 MSTORE PUSH1 0x20 PUSH1 0x4 DUP3 ADD MSTORE PUSH1 0x2 PUSH1 0x24 DUP3 ADD MSTORE PUSH2 0x424D PUSH1 0xF0 SHL PUSH1 0x44 DUP3 ADD MSTORE PUSH1 0x64 ADD PUSH2 0x3CE JUMP JUMPDEST CALLER PUSH1 0x0 SWAP1 DUP2 MSTORE PUSH1 0x20 DUP2 SWAP1 MSTORE PUSH1 0x40 SWAP1 DUP2 SWAP1 KECCAK256 SWAP1 MLOAD PUSH2 0x42E SWAP1 DUP5 SWAP1 DUP5 SWAP1 PUSH2 0xBC4 JUMP JUMPDEST SWAP1 DUP2 MSTORE PUSH1 0x20 ADD PUSH1 0x40 MLOAD DUP1 SWAP2 SUB SWAP1 KECCAK256 SLOAD PUSH1 0x0 EQ ISZERO PUSH2 0x50A JUMPI PUSH1 0x0 DUP4 GT PUSH2 0x47A JUMPI PUSH1 0x40 MLOAD PUSH3 0x461BCD PUSH1 0xE5 SHL DUP2 MSTORE PUSH1 0x20 PUSH1 0x4 DUP3 ADD MSTORE PUSH1 0x2 PUSH1 0x24 DUP3 ADD MSTORE PUSH2 0x534D PUSH1 0xF0 SHL PUSH1 0x44 DUP3 ADD MSTORE PUSH1 0x64 ADD PUSH2 0x3CE JUMP JUMPDEST CALLER PUSH1 0x0 SWAP1 DUP2 MSTORE PUSH1 0x2 PUSH1 0x20 SWAP1 DUP2 MSTORE PUSH1 0x40 DUP1 DUP4 KECCAK256 PUSH1 0x1 DUP4 MSTORE DUP2 DUP5 KECCAK256 SLOAD DUP5 MSTORE SWAP1 SWAP2 MSTORE SWAP1 KECCAK256 PUSH2 0x4A6 SWAP1 DUP4 DUP4 PUSH2 0x849 JUMP JUMPDEST POP CALLER PUSH1 0x0 SWAP1 DUP2 MSTORE PUSH1 0x1 PUSH1 0x20 SWAP1 DUP2 MSTORE PUSH1 0x40 DUP1 DUP4 KECCAK256 SLOAD PUSH1 0x3 SWAP1 SWAP3 MSTORE SWAP2 DUP3 SWAP1 KECCAK256 SWAP2 MLOAD SWAP1 SWAP2 SWAP1 PUSH2 0x4D5 SWAP1 DUP6 SWAP1 DUP6 SWAP1 PUSH2 0xBC4 JUMP JUMPDEST SWAP1 DUP2 MSTORE PUSH1 0x40 DUP1 MLOAD PUSH1 0x20 SWAP3 DUP2 SWAP1 SUB DUP4 ADD SWAP1 KECCAK256 SWAP3 SWAP1 SWAP3 SSTORE CALLER PUSH1 0x0 SWAP1 DUP2 MSTORE PUSH1 0x1 SWAP1 SWAP2 MSTORE SWAP1 DUP2 KECCAK256 DUP1 SLOAD SWAP2 PUSH2 0x504 DUP4 PUSH2 0xD1C JUMP JUMPDEST SWAP2 SWAP1 POP SSTORE POP JUMPDEST CALLER PUSH1 0x0 SWAP1 DUP2 MSTORE PUSH1 0x20 DUP2 SWAP1 MSTORE PUSH1 0x40 SWAP1 DUP2 SWAP1 KECCAK256 SWAP1 MLOAD PUSH2 0x52A SWAP1 DUP5 SWAP1 DUP5 SWAP1 PUSH2 0xBC4 JUMP JUMPDEST SWAP1 DUP2 MSTORE PUSH1 0x40 DUP1 MLOAD PUSH1 0x20 SWAP3 DUP2 SWAP1 SUB DUP4 ADD SWAP1 KECCAK256 SLOAD CALLER PUSH1 0x0 SWAP1 DUP2 MSTORE PUSH1 0x4 SWAP1 SWAP4 MSTORE SWAP2 KECCAK256 SLOAD PUSH2 0x555 SWAP1 DUP6 SWAP1 PUSH2 0xC00 JUMP JUMPDEST PUSH2 0x55F SWAP2 SWAP1 PUSH2 0xC18 JUMP JUMPDEST CALLER PUSH1 0x0 SWAP1 DUP2 MSTORE PUSH1 0x4 PUSH1 0x20 MSTORE PUSH1 0x40 SWAP1 KECCAK256 SSTORE DUP3 PUSH2 0x583 JUMPI PUSH2 0x57E DUP3 DUP3 PUSH2 0x608 JUMP JUMPDEST PUSH2 0x5B7 JUMP JUMPDEST CALLER PUSH1 0x0 SWAP1 DUP2 MSTORE PUSH1 0x20 DUP2 SWAP1 MSTORE PUSH1 0x40 SWAP1 DUP2 SWAP1 KECCAK256 SWAP1 MLOAD DUP5 SWAP2 SWAP1 PUSH2 0x5A6 SWAP1 DUP6 SWAP1 DUP6 SWAP1 PUSH2 0xBC4 JUMP JUMPDEST SWAP1 DUP2 MSTORE PUSH1 0x40 MLOAD SWAP1 DUP2 SWAP1 SUB PUSH1 0x20 ADD SWAP1 KECCAK256 SSTORE JUMPDEST DUP2 DUP2 PUSH1 0x40 MLOAD PUSH2 0x5C7 SWAP3 SWAP2 SWAP1 PUSH2 0xBC4 JUMP JUMPDEST PUSH1 0x40 MLOAD SWAP1 DUP2 SWAP1 SUB DUP2 KECCAK256 DUP5 DUP3 MSTORE SWAP1 CALLER SWAP1 PUSH32 0xD8C9A3D91A9712DECB6F475C889DD8AADC77AF5358DA88983B6D6A9E123CB26F SWAP1 PUSH1 0x20 ADD PUSH1 0x40 MLOAD DUP1 SWAP2 SUB SWAP1 LOG3 POP POP POP JUMP JUMPDEST CALLER PUSH1 0x0 SWAP1 DUP2 MSTORE PUSH1 0x20 DUP2 SWAP1 MSTORE PUSH1 0x40 DUP1 DUP3 KECCAK256 SWAP1 MLOAD PUSH2 0x627 SWAP1 DUP6 SWAP1 DUP6 SWAP1 PUSH2 0xBC4 JUMP JUMPDEST SWAP1 DUP2 MSTORE PUSH1 0x20 ADD PUSH1 0x40 MLOAD DUP1 SWAP2 SUB SWAP1 KECCAK256 SLOAD GT PUSH2 0x668 JUMPI PUSH1 0x40 MLOAD PUSH3 0x461BCD PUSH1 0xE5 SHL DUP2 MSTORE PUSH1 0x20 PUSH1 0x4 DUP3 ADD MSTORE PUSH1 0x2 PUSH1 0x24 DUP3 ADD MSTORE PUSH2 0x534D PUSH1 0xF0 SHL PUSH1 0x44 DUP3 ADD MSTORE PUSH1 0x64 ADD PUSH2 0x3CE JUMP JUMPDEST CALLER PUSH1 0x0 SWAP1 DUP2 MSTORE PUSH1 0x20 DUP2 SWAP1 MSTORE PUSH1 0x40 DUP1 DUP3 KECCAK256 SWAP1 MLOAD PUSH2 0x687 SWAP1 DUP6 SWAP1 DUP6 SWAP1 PUSH2 0xBC4 JUMP JUMPDEST SWAP1 DUP2 MSTORE PUSH1 0x40 DUP1 MLOAD SWAP2 DUP3 SWAP1 SUB PUSH1 0x20 SWAP1 DUP2 ADD DUP4 KECCAK256 SWAP4 SWAP1 SWAP4 SSTORE CALLER PUSH1 0x0 SWAP1 DUP2 MSTORE PUSH1 0x3 SWAP1 SWAP4 MSTORE DUP3 KECCAK256 SWAP1 PUSH2 0x6B8 SWAP1 DUP6 SWAP1 DUP6 SWAP1 PUSH2 0xBC4 JUMP JUMPDEST SWAP1 DUP2 MSTORE PUSH1 0x40 DUP1 MLOAD PUSH1 0x20 SWAP3 DUP2 SWAP1 SUB DUP4 ADD SWAP1 KECCAK256 SLOAD CALLER PUSH1 0x0 SWAP1 DUP2 MSTORE PUSH1 0x2 DUP5 MSTORE DUP3 DUP2 KECCAK256 PUSH1 0x1 SWAP5 DUP6 SWAP1 MSTORE SWAP3 DUP2 KECCAK256 SLOAD SWAP2 SWAP5 POP SWAP2 SWAP3 PUSH2 0x6EF SWAP2 PUSH2 0xC18 JUMP JUMPDEST DUP2 MSTORE PUSH1 0x20 DUP1 DUP3 ADD SWAP3 SWAP1 SWAP3 MSTORE PUSH1 0x40 SWAP1 DUP2 ADD PUSH1 0x0 SWAP1 DUP2 KECCAK256 CALLER DUP3 MSTORE PUSH1 0x2 DUP5 MSTORE DUP3 DUP3 KECCAK256 DUP6 DUP4 MSTORE SWAP1 SWAP4 MSTORE KECCAK256 DUP2 SLOAD SWAP1 SWAP2 SWAP1 PUSH2 0x723 SWAP1 PUSH2 0xC2F JUMP JUMPDEST PUSH2 0x72E SWAP3 SWAP2 SWAP1 PUSH2 0x8CD JUMP JUMPDEST POP CALLER PUSH1 0x0 SWAP1 DUP2 MSTORE PUSH1 0x3 PUSH1 0x20 SWAP1 DUP2 MSTORE PUSH1 0x40 DUP1 DUP4 KECCAK256 PUSH1 0x2 DUP4 MSTORE DUP2 DUP5 KECCAK256 DUP6 DUP6 MSTORE SWAP1 SWAP3 MSTORE SWAP2 DUP3 SWAP1 KECCAK256 SWAP2 MLOAD DUP4 SWAP3 PUSH2 0x75F SWAP2 PUSH2 0xC80 JUMP JUMPDEST SWAP1 DUP2 MSTORE PUSH1 0x40 DUP1 MLOAD PUSH1 0x20 SWAP3 DUP2 SWAP1 SUB DUP4 ADD SWAP1 KECCAK256 SWAP3 SWAP1 SWAP3 SSTORE CALLER PUSH1 0x0 SWAP1 DUP2 MSTORE PUSH1 0x2 DUP3 MSTORE DUP3 DUP2 KECCAK256 PUSH1 0x1 SWAP3 DUP4 SWAP1 MSTORE SWAP3 DUP2 KECCAK256 SLOAD SWAP1 SWAP2 PUSH2 0x796 SWAP2 PUSH2 0xC18 JUMP JUMPDEST DUP2 MSTORE PUSH1 0x20 ADD SWAP1 DUP2 MSTORE PUSH1 0x20 ADD PUSH1 0x0 KECCAK256 PUSH1 0x0 PUSH2 0x7B0 SWAP2 SWAP1 PUSH2 0x948 JUMP JUMPDEST CALLER PUSH1 0x0 SWAP1 DUP2 MSTORE PUSH1 0x3 PUSH1 0x20 MSTORE PUSH1 0x40 SWAP1 DUP2 SWAP1 KECCAK256 SWAP1 MLOAD PUSH2 0x7D0 SWAP1 DUP6 SWAP1 DUP6 SWAP1 PUSH2 0xBC4 JUMP JUMPDEST SWAP1 DUP2 MSTORE PUSH1 0x40 DUP1 MLOAD PUSH1 0x20 SWAP3 DUP2 SWAP1 SUB DUP4 ADD SWAP1 KECCAK256 PUSH1 0x0 SWAP1 DUP2 SWAP1 SSTORE CALLER DUP2 MSTORE PUSH1 0x1 SWAP1 SWAP3 MSTORE DUP2 KECCAK256 DUP1 SLOAD SWAP2 PUSH2 0x7FD DUP4 PUSH2 0xD37 JUMP JUMPDEST SWAP2 SWAP1 POP SSTORE POP DUP3 DUP3 PUSH1 0x40 MLOAD PUSH2 0x812 SWAP3 SWAP2 SWAP1 PUSH2 0xBC4 JUMP JUMPDEST PUSH1 0x40 MLOAD SWAP1 DUP2 SWAP1 SUB DUP2 KECCAK256 SWAP1 CALLER SWAP1 PUSH32 0xDFFF661E3EDA1013045F8E1890C5BA777ACB75CA06008312FE62ABB41567A1BD SWAP1 PUSH1 0x0 SWAP1 LOG3 POP POP POP JUMP JUMPDEST DUP3 DUP1 SLOAD PUSH2 0x855 SWAP1 PUSH2 0xC2F JUMP JUMPDEST SWAP1 PUSH1 0x0 MSTORE PUSH1 0x20 PUSH1 0x0 KECCAK256 SWAP1 PUSH1 0x1F ADD PUSH1 0x20 SWAP1 DIV DUP2 ADD SWAP3 DUP3 PUSH2 0x877 JUMPI PUSH1 0x0 DUP6 SSTORE PUSH2 0x8BD JUMP JUMPDEST DUP3 PUSH1 0x1F LT PUSH2 0x890 JUMPI DUP3 DUP1 ADD PUSH1 0xFF NOT DUP3 CALLDATALOAD AND OR DUP6 SSTORE PUSH2 0x8BD JUMP JUMPDEST DUP3 DUP1 ADD PUSH1 0x1 ADD DUP6 SSTORE DUP3 ISZERO PUSH2 0x8BD JUMPI SWAP2 DUP3 ADD JUMPDEST DUP3 DUP2 GT ISZERO PUSH2 0x8BD JUMPI DUP3 CALLDATALOAD DUP3 SSTORE SWAP2 PUSH1 0x20 ADD SWAP2 SWAP1 PUSH1 0x1 ADD SWAP1 PUSH2 0x8A2 JUMP JUMPDEST POP PUSH2 0x8C9 SWAP3 SWAP2 POP PUSH2 0x985 JUMP JUMPDEST POP SWAP1 JUMP JUMPDEST DUP3 DUP1 SLOAD PUSH2 0x8D9 SWAP1 PUSH2 0xC2F JUMP JUMPDEST SWAP1 PUSH1 0x0 MSTORE PUSH1 0x20 PUSH1 0x0 KECCAK256 SWAP1 PUSH1 0x1F ADD PUSH1 0x20 SWAP1 DIV DUP2 ADD SWAP3 DUP3 PUSH2 0x8FB JUMPI PUSH1 0x0 DUP6 SSTORE PUSH2 0x8BD JUMP JUMPDEST DUP3 PUSH1 0x1F LT PUSH2 0x90C JUMPI DUP1 SLOAD DUP6 SSTORE PUSH2 0x8BD JUMP JUMPDEST DUP3 DUP1 ADD PUSH1 0x1 ADD DUP6 SSTORE DUP3 ISZERO PUSH2 0x8BD JUMPI PUSH1 0x0 MSTORE PUSH1 0x20 PUSH1 0x0 KECCAK256 SWAP2 PUSH1 0x1F ADD PUSH1 0x20 SWAP1 DIV DUP3 ADD JUMPDEST DUP3 DUP2 GT ISZERO PUSH2 0x8BD JUMPI DUP3 SLOAD DUP3 SSTORE SWAP2 PUSH1 0x1 ADD SWAP2 SWAP1 PUSH1 0x1 ADD SWAP1 PUSH2 0x92D JUMP JUMPDEST POP DUP1 SLOAD PUSH2 0x954 SWAP1 PUSH2 0xC2F JUMP JUMPDEST PUSH1 0x0 DUP3 SSTORE DUP1 PUSH1 0x1F LT PUSH2 0x964 JUMPI POP POP JUMP JUMPDEST PUSH1 0x1F ADD PUSH1 0x20 SWAP1 DIV SWAP1 PUSH1 0x0 MSTORE PUSH1 0x20 PUSH1 0x0 KECCAK256 SWAP1 DUP2 ADD SWAP1 PUSH2 0x982 SWAP2 SWAP1 PUSH2 0x985 JUMP JUMPDEST POP JUMP JUMPDEST JUMPDEST DUP1 DUP3 GT ISZERO PUSH2 0x8C9 JUMPI PUSH1 0x0 DUP2 SSTORE PUSH1 0x1 ADD PUSH2 0x986 JUMP JUMPDEST DUP1 CALLDATALOAD PUSH1 0x1 PUSH1 0x1 PUSH1 0xA0 SHL SUB DUP2 AND DUP2 EQ PUSH2 0x9B1 JUMPI PUSH1 0x0 DUP1 REVERT JUMPDEST SWAP2 SWAP1 POP JUMP JUMPDEST PUSH1 0x0 DUP1 DUP4 PUSH1 0x1F DUP5 ADD SLT PUSH2 0x9C8 JUMPI PUSH1 0x0 DUP1 REVERT JUMPDEST POP DUP2 CALLDATALOAD PUSH8 0xFFFFFFFFFFFFFFFF DUP2 GT ISZERO PUSH2 0x9E0 JUMPI PUSH1 0x0 DUP1 REVERT JUMPDEST PUSH1 0x20 DUP4 ADD SWAP2 POP DUP4 PUSH1 0x20 DUP3 DUP6 ADD ADD GT ISZERO PUSH2 0x9F8 JUMPI PUSH1 0x0 DUP1 REVERT JUMPDEST SWAP3 POP SWAP3 SWAP1 POP JUMP JUMPDEST PUSH1 0x0 DUP1 PUSH1 0x0 PUSH1 0x40 DUP5 DUP7 SUB SLT ISZERO PUSH2 0xA14 JUMPI PUSH1 0x0 DUP1 REVERT JUMPDEST PUSH2 0xA1D DUP5 PUSH2 0x99A JUMP JUMPDEST SWAP3 POP PUSH1 0x20 DUP5 ADD CALLDATALOAD PUSH8 0xFFFFFFFFFFFFFFFF DUP2 GT ISZERO PUSH2 0xA39 JUMPI PUSH1 0x0 DUP1 REVERT JUMPDEST PUSH2 0xA45 DUP7 DUP3 DUP8 ADD PUSH2 0x9B6 JUMP JUMPDEST SWAP5 SWAP8 SWAP1 SWAP7 POP SWAP4 SWAP5 POP POP POP POP JUMP JUMPDEST PUSH1 0x0 DUP1 PUSH1 0x0 PUSH1 0x60 DUP5 DUP7 SUB SLT ISZERO PUSH2 0xA67 JUMPI PUSH1 0x0 DUP1 REVERT JUMPDEST PUSH2 0xA70 DUP5 PUSH2 0x99A JUMP JUMPDEST SWAP6 PUSH1 0x20 DUP6 ADD CALLDATALOAD SWAP6 POP PUSH1 0x40 SWAP1 SWAP5 ADD CALLDATALOAD SWAP4 SWAP3 POP POP POP JUMP JUMPDEST PUSH1 0x0 DUP2 MLOAD DUP1 DUP5 MSTORE PUSH1 0x20 DUP1 DUP6 ADD SWAP5 POP DUP1 DUP5 ADD PUSH1 0x0 JUMPDEST DUP4 DUP2 LT ISZERO PUSH2 0xAB5 JUMPI DUP2 MLOAD DUP8 MSTORE SWAP6 DUP3 ADD SWAP6 SWAP1 DUP3 ADD SWAP1 PUSH1 0x1 ADD PUSH2 0xA99 JUMP JUMPDEST POP SWAP5 SWAP6 SWAP5 POP POP POP POP POP JUMP JUMPDEST PUSH1 0x0 PUSH1 0x40 DUP3 ADD PUSH1 0x40 DUP4 MSTORE DUP1 DUP6 MLOAD DUP1 DUP4 MSTORE PUSH1 0x60 DUP6 ADD SWAP2 POP PUSH1 0x60 DUP2 PUSH1 0x5 SHL DUP7 ADD ADD SWAP3 POP PUSH1 0x20 DUP1 DUP9 ADD PUSH1 0x0 DUP1 JUMPDEST DUP5 DUP2 LT ISZERO PUSH2 0xB4F JUMPI DUP9 DUP8 SUB PUSH1 0x5F NOT ADD DUP7 MSTORE DUP3 MLOAD DUP1 MLOAD DUP1 DUP10 MSTORE DUP4 JUMPDEST DUP2 DUP2 LT ISZERO PUSH2 0xB1F JUMPI DUP3 DUP2 ADD DUP8 ADD MLOAD DUP11 DUP3 ADD DUP9 ADD MSTORE DUP7 ADD PUSH2 0xB04 JUMP JUMPDEST DUP2 DUP2 GT ISZERO PUSH2 0xB2F JUMPI DUP5 DUP8 DUP4 DUP13 ADD ADD MSTORE JUMPDEST POP PUSH1 0x1F ADD PUSH1 0x1F NOT AND SWAP8 SWAP1 SWAP8 ADD DUP5 ADD SWAP7 POP SWAP5 DUP4 ADD SWAP5 SWAP2 DUP4 ADD SWAP2 PUSH1 0x1 ADD PUSH2 0xAEA JUMP JUMPDEST POP POP POP DUP6 DUP5 SUB DUP2 DUP8 ADD MSTORE POP POP POP PUSH2 0xB66 DUP2 DUP6 PUSH2 0xA85 JUMP JUMPDEST SWAP6 SWAP5 POP POP POP POP POP JUMP JUMPDEST PUSH1 0x0 DUP1 PUSH1 0x0 PUSH1 0x40 DUP5 DUP7 SUB SLT ISZERO PUSH2 0xB84 JUMPI PUSH1 0x0 DUP1 REVERT JUMPDEST DUP4 CALLDATALOAD SWAP3 POP PUSH1 0x20 DUP5 ADD CALLDATALOAD PUSH8 0xFFFFFFFFFFFFFFFF DUP2 GT ISZERO PUSH2 0xA39 JUMPI PUSH1 0x0 DUP1 REVERT JUMPDEST PUSH1 0x0 PUSH1 0x20 DUP3 DUP5 SUB SLT ISZERO PUSH2 0xBB4 JUMPI PUSH1 0x0 DUP1 REVERT JUMPDEST PUSH2 0xBBD DUP3 PUSH2 0x99A JUMP JUMPDEST SWAP4 SWAP3 POP POP POP JUMP JUMPDEST DUP2 DUP4 DUP3 CALLDATACOPY PUSH1 0x0 SWAP2 ADD SWAP1 DUP2 MSTORE SWAP2 SWAP1 POP JUMP JUMPDEST PUSH4 0x4E487B71 PUSH1 0xE0 SHL PUSH1 0x0 MSTORE PUSH1 0x41 PUSH1 0x4 MSTORE PUSH1 0x24 PUSH1 0x0 REVERT JUMPDEST PUSH4 0x4E487B71 PUSH1 0xE0 SHL PUSH1 0x0 MSTORE PUSH1 0x11 PUSH1 0x4 MSTORE PUSH1 0x24 PUSH1 0x0 REVERT JUMPDEST PUSH1 0x0 DUP3 NOT DUP3 GT ISZERO PUSH2 0xC13 JUMPI PUSH2 0xC13 PUSH2 0xBEA JUMP JUMPDEST POP ADD SWAP1 JUMP JUMPDEST PUSH1 0x0 DUP3 DUP3 LT ISZERO PUSH2 0xC2A JUMPI PUSH2 0xC2A PUSH2 0xBEA JUMP JUMPDEST POP SUB SWAP1 JUMP JUMPDEST PUSH1 0x1 DUP2 DUP2 SHR SWAP1 DUP3 AND DUP1 PUSH2 0xC43 JUMPI PUSH1 0x7F DUP3 AND SWAP2 POP JUMPDEST PUSH1 0x20 DUP3 LT DUP2 EQ ISZERO PUSH2 0xC64 JUMPI PUSH4 0x4E487B71 PUSH1 0xE0 SHL PUSH1 0x0 MSTORE PUSH1 0x22 PUSH1 0x4 MSTORE PUSH1 0x24 PUSH1 0x0 REVERT JUMPDEST POP SWAP2 SWAP1 POP JUMP JUMPDEST PUSH4 0x4E487B71 PUSH1 0xE0 SHL PUSH1 0x0 MSTORE PUSH1 0x32 PUSH1 0x4 MSTORE PUSH1 0x24 PUSH1 0x0 REVERT JUMPDEST PUSH1 0x0 DUP1 DUP4 SLOAD DUP2 PUSH1 0x1 DUP3 DUP2 SHR SWAP2 POP DUP1 DUP4 AND DUP1 PUSH2 0xC9C JUMPI PUSH1 0x7F DUP4 AND SWAP3 POP JUMPDEST PUSH1 0x20 DUP1 DUP5 LT DUP3 EQ ISZERO PUSH2 0xCBC JUMPI PUSH4 0x4E487B71 PUSH1 0xE0 SHL DUP7 MSTORE PUSH1 0x22 PUSH1 0x4 MSTORE PUSH1 0x24 DUP7 REVERT JUMPDEST DUP2 DUP1 ISZERO PUSH2 0xCD0 JUMPI PUSH1 0x1 DUP2 EQ PUSH2 0xCE1 JUMPI PUSH2 0xD0E JUMP JUMPDEST PUSH1 0xFF NOT DUP7 AND DUP10 MSTORE DUP5 DUP10 ADD SWAP7 POP PUSH2 0xD0E JUMP JUMPDEST PUSH1 0x0 DUP11 DUP2 MSTORE PUSH1 0x20 SWAP1 KECCAK256 PUSH1 0x0 JUMPDEST DUP7 DUP2 LT ISZERO PUSH2 0xD06 JUMPI DUP2 SLOAD DUP12 DUP3 ADD MSTORE SWAP1 DUP6 ADD SWAP1 DUP4 ADD PUSH2 0xCED JUMP JUMPDEST POP POP DUP5 DUP10 ADD SWAP7 POP JUMPDEST POP SWAP5 SWAP9 SWAP8 POP POP POP POP POP POP POP POP JUMP JUMPDEST PUSH1 0x0 PUSH1 0x0 NOT DUP3 EQ ISZERO PUSH2 0xD30 JUMPI PUSH2 0xD30 PUSH2 0xBEA JUMP JUMPDEST POP PUSH1 0x1 ADD SWAP1 JUMP JUMPDEST PUSH1 0x0 DUP2 PUSH2 0xD46 JUMPI PUSH2 0xD46 PUSH2 0xBEA JUMP JUMPDEST POP PUSH1 0x0 NOT ADD SWAP1 JUMP INVALID LOG2 PUSH5 0x6970667358 0x22 SLT KECCAK256 0x25 KECCAK256 SLOAD 0xD9 PUSH9 0x279B6DD806B538231D LOG0 0xAB 0xD1 PUSH12 0x4FADCCFAF0410C9C0C5D0174 MSTORE GAS PUSH5 0x736F6C6343 STOP ADDMOD 0xC STOP CALLER ",
  "sha1": "e414772378fd04f74a31f6f4ff3692a32066e080",
  "source": "pragma solidity ^0.8.12;\n\ncontract veAllocate {\n    mapping(address => mapping(string => uint256)) veAllocation;\n    mapping(address => uint256) allocationCounter;\n    mapping(address => mapping(uint256 => string)) allocationToId;\n    mapping(address => mapping(string => uint256)) idToAllocation;\n    mapping(address => uint256) _totalAllocation;\n\n    event AllocationSet(\n        address indexed sender,\n        string indexed id,\n        uint256 amount\n    );\n    event AllocationRemoved(address indexed sender, string indexed id);\n\n    function getveAllocation(address _address, string calldata _id)\n        public\n        view\n        returns (uint256)\n    {\n        // string is {DataNFT Address}-{chain id}\n        // returns the allocation perc for given address\n        return veAllocation[_address][_id];\n    }\n\n    function getTotalAllocation(address _address)\n        public\n        view\n        returns (uint256)\n    {\n        // string is {DataNFT Address}-{chain id}\n        // returns the allocation perc for given address\n        return _totalAllocation[_address];\n    }\n\n    function setAllocation(uint256 amount, string calldata _id) external {\n        require(bytes(_id).length < 50, \"Id too long\");\n        require(amount <= 1000, \"BM\");\n\n        if (veAllocation[msg.sender][_id] == 0) {\n            require(amount > 0, \"SM\");\n            allocationToId[msg.sender][allocationCounter[msg.sender]] = _id;\n            idToAllocation[msg.sender][_id] = allocationCounter[msg.sender];\n            allocationCounter[msg.sender]++;\n        }\n\n        _totalAllocation[msg.sender] =\n            _totalAllocation[msg.sender] +\n            amount -\n            veAllocation[msg.sender][_id];\n\n        if (amount == 0) {\n            _removeAllocation(_id);\n        } else {\n            veAllocation[msg.sender][_id] = amount;\n        }\n        emit AllocationSet(msg.sender, _id, amount);\n    }\n\n    function _removeAllocation(string calldata _id) internal {\n        require(veAllocation[msg.sender][_id] > 0, \"SM\");\n\n        veAllocation[msg.sender][_id] = 0;\n\n        uint256 no = idToAllocation[msg.sender][_id];\n\n        allocationToId[msg.sender][no] = allocationToId[msg.sender][\n            allocationCounter[msg.sender] - 1\n        ]; // swap last with this one\n        idToAllocation[msg.sender][allocationToId[msg.sender][no]] = no; // swap last with this one\n\n        delete allocationToId[msg.sender][allocationCounter[msg.sender] - 1];\n        delete idToAllocation[msg.sender][_id];\n\n        allocationCounter[msg.sender]--;\n\n        emit AllocationRemoved(msg.sender, _id);\n    }\n\n    function getTotalAllocation(\n        address _address,\n        uint256 limit,\n        uint256 skip\n    )\n        external\n        view\n        returns (\n            string[] memory allocationIds,\n            uint256[] memory allocationAmounts\n        )\n    {\n        // array of strings\n        allocationIds = new string[](allocationCounter[_address]);\n\n        allocationAmounts = new uint256[](allocationCounter[_address]);\n\n        uint256 _limit = 0;\n        if (allocationCounter[_address] > limit + skip) {\n            _limit = limit;\n        } else {\n            _limit = allocationCounter[_address] - skip;\n        }\n\n        for (uint256 i = skip; i < skip + _limit; i++) {\n            allocationIds[i] = allocationToId[_address][i];\n            allocationAmounts[i] = veAllocation[_address][\n                allocationToId[_address][i]\n            ];\n        }\n    }\n}\n",
  "sourcePath": "contracts/ve/veAllocate.sol",
  "type": "contract"
}